:020000040800F2
:1000000000000220210B0008650B0008650B0008AA
:10001000650B0008650B0008650B00080000000078
:10002000000000000000000000000000650B000858
:10003000650B000800000000650B00089D06000825
:10004000650B0008650B0008650B0008650B0008D0
:10005000650B0008650B0008650B0008650B0008C0
:10006000650B0008650B0008650B0008650B0008B0
:10007000650B0008650B0008650B0008650B0008A0
:10008000650B0008650B0008000000000000000080
:100090000000000000000000650B0008650B000870
:1000A000650B0008650B0008650B0008650B000870
:1000B000650B0008650B0008650B0008650B000860
:1000C000650B0008650B0008AD060008ED0600088A
:1000D00000000000650B0008650B0008650B0008B8
:1000E0000000000000000000000000000000000010
:1000F000650B000800000000650B0008650B000898
:10010000650B000800000000000000000000000077
:1001100000000000650B0008650B0008650B000877
:10012000650B0008650B00080000000000000000DF
:1001300000000000000000000000000000000000BF
:10014000650B0008650B0008650B0008650B0008CF
:10015000650B0008650B00080000000000000000AF
:10016000000000000000000000000000000000008F
:1001700000000000650B0008000000000000000007
:08018000650B0008650B000887
:1001880010B5054C237833B9044B13B10448AFF3C9
:1001980000800123237010BD04000020000000002F
:1001A800E40C000808B5034B1BB103490348AFF33F
:1001B800008008BD0000000008000020E40C0008D2
:1001C80000238360C0E90012C360704783684268F7
:1001D800013310B5B3FBF2F402FB1433C2689A4240
:1001E8001DBF82680468A15400201CBF83600120E1
:1001F80010BD8268C3689A420DD0C3680268D35C98
:100208000B70C36842680133B3FBF2F102FB113390
:10021800C3600120704700207047002101704175BC
:1002280080F82A101422013000F099BCFFF7F5BFBE
:1002380030B50246014400208A4200D130BD12F890
:10024800013B0824584045B24300D8B2002D04F1C0
:10025800FF33B8BF80F0070013F0FF04F3D1EBE7DA
:1002680070B5037804460D461646072B0FD8DFE80D
:1002780003F0040A1219232D3E50432901D101230A
:100288002370002070BD4A2901D10223F8E72046D7
:10029800FFF7C3FFF5E7012380F82A304170817525
:1002A8000323EDE790F82A3081705A1C034480F844
:1002B8002A2099750423E3E790F82A30C1705A1C64
:1002C800034480F82A2099750523D9E71029DED838
:1002D80090F82A3001715A1C034480F82A20997535
:1002E80000239942437514BF06230723C8E7427DBC
:1002F800531C0244DBB24375517190F82A20511CFB
:10030800024480F82A10957502799A42B9D80723D1
:10031800B6E790F82A101630FFF78AFFA842B6D140
:100328006378012BB3D1631C324604F1150153F8ED
:10033800040B42F8040B8B42F9D12046FFF76DFFFE
:1003480001209FE7F8B5102B0F46069C11461D4665
:100358001CD8DE1D9DF81C30F6B29E4216D84323E9
:1003680023704A2363700123A370E07027716571BD
:1003780025B11AB12A46A01D00F015FCA01C291DA4
:10038800FFF756FF2C44A0713046F8BD0026FBE766
:100398002DE9F04389B0044602AD4FF017090E4627
:1003A800174600214A462846984600F0D8FB207E8A
:1003B800431C23763146CDE9005943463A46FFF7B8
:1003C800C1FF014618B1A3680BB12846984709B088
:1003D800BDE8F08338B5036804460D4698472844BD
:1003E800606138BD0346084603B11847704738B501
:1003F8001C220D460021044600F0B1FB95E80F00D1
:1004080084E80F000123237638BD000013B50446A5
:1004180003689847237C012B0ED1636953B3834249
:1004280028D2042323741B4900236361E06802B0C7
:10043800BDE81040FFF7D6BF022B1DD16369CBB1D1
:10044800834217D201230DF10702822120468DF83D
:100458000730FFF79DFF63680BB10F4898470323E8
:100468004FF47A7120462374FFF7B4FF0B49E06814
:10047800FFF7B8FF02B010BD032BFBD16369002B57
:10048800F8D08342F6D2042323740023044963611D
:10049800CCE700BFDA0B0008F60B0008010C0008D7
:1004A8002C0C000837B50D4604461A49284600F0BA
:1004B80070FB30B96368EBB1174803B0BDE8304052
:1004C80018471649284600F064FBA8B9237C012B7D
:1004D80012D142F21073ADF8043081210223204674
:1004E80001AAFFF755FF0223237442F6E061204674
:1004F800FFF770FF03B030BD0949284600F049FBFB
:100508000028F7D1237C032B02BF2074606160763A
:10051800F0E700BF4A0C00084F0C0008730C0008F5
:10052800930C000837B54A7882768B78C3760D46E7
:100538008DF804208DF8053001AA02238021044695
:10054800FFF726FFAB78102B0BD0123B022B1CD8E1
:10055800237C022B19D163680BB10D4898470323FC
:100568000AE0237C8BB9EB7803B12B796376636857
:100578000BB10848984701234FF47A712046237439
:1005880003B0BDE83040FFF725BF03B030BD00BF62
:10059800F60B0008540C000804289ABF024B53F8C5
:1005A80020000248704700BFB80C00085D0C000826
:1005B800014B1868704700BFCC00002010B51344E9
:1005C8009A4203D103685B06FCD510BD0468240673
:1005D800FCD512F8014B44600C6801340C60EFE75D
:1005E80002460B4601480249FFF7E8BF00100140E8
:1005F800B800002030B50023CA5C1D181C46013322
:100608000AB9234602E02F2B2A70F5D10022C254E2
:100618000133302BFBD130BD13B50A2304468DF8C6
:10062800073000F0CEFA0649034622460548FFF790
:10063800C5FF01230DF10702FFF7C0FF02B010BD8F
:10064800B40000200044004010B5014604460848A4
:10065800FFF7D0FF07490622204600F088FA28B99C
:1006680021460548BDE81040FFF7C4BF10BD00BFD4
:1006780058000020A40C000828000020014601486A
:10068800FFF7A4BD4801002001460148FFF79EBDC1
:1006980038010020024A136801331360704700BF15
:1006A800CC0000200C4B1A6810B412F00F041FBFC6
:1006B8000A48016801310160920608D5084A58685D
:1006C800136810BC0133C0B21360FFF7DDBF04B17B
:1006D8005B6810BC704700BF00100140B0000020EC
:1006E800C00000200C490B6810B413F00F041FBFA2
:1006F8000A480268013202609B0608D5084A486821
:10070800136810BC0133C0B21360FFF7B7BF0CB158
:10071800014B5B6810BC704700440040AC000020EF
:10072800BC0000202DE98048AB4BAC4CAC4FDFF847
:10073800B492DFF8B4A2DFF8B4820FCB91B006AE62
:1007480086E80F00AA49AB48FFF754FFAA49AB480F
:10075800FFF750FF4FF0E02043F67F634361A84A5C
:100768000021072381610361D2F8303843F0020386
:10077800C2F83038236823F030032360236843F03D
:1007880010032360636823F004036360A36843F0E5
:100798003003A360E36823F03003E3600423A3611C
:1007A800D2F8303843F00103C2F83038954B1D6851
:1007B8003D401D601D6845F4201545F0A0051D60ED
:1007C8005D6825F4C16525F004055D609D6845F404
:1007D800701545F0F0059D60DD683D40DD60DD6821
:1007E80045F4801545F04005DD601D6A25F47F4518
:1007F8001D621D6A45F4EE451D625D6A25F47F653C
:100808005D625D6A45F4EE655D62D2F8403843F496
:100818000033C2F840387C4B40F2836742F22C0523
:10082800D960196159619F60DD604023C0F80431C7
:10083800D2F8443843F01003C2F84438734BD960F7
:10084800196159619F60DD602023C0F80431704947
:100858007048714D714F8022FFF7B2FC70497148A2
:100868008022FFF7ADFC7048FFF7E0FC31462846D0
:100878006E4EFFF7BCFD2B7C337089F800303B6867
:10088800CAF8003000238DF828300DF1280B614894
:100898005946FFF7AEFC002868D18DF8170061486B
:1008A8000DF11701FFF7A5FC002840F0E580284668
:1008B800FFF7ACFD287C99F8003083420BD03070EC
:1008C8003B6889F80000CAF80030FFF765FE01466A
:1008D8004848FFF78FFE2B7C3A68002B36D1544BE3
:1008E8001B787BB953490B68D31AB3F57A7F09D3C0
:1008F8000A60514951480B68039201330B60FFF7B6
:100908008BFE039A4E4B197801F0FF03F1B94D485D
:100918000168511AB1F57A7F18D34B4902600A6809
:10092800039301320A6058461946172200F017F956
:10093800039B1722CDE900B283211A461846FFF718
:1009480001FD014610B15846FFF74AFE3A68337870
:10095800042BD9B240F0B3806423B2FBF3F3DB0776
:1009680000F1AB804FF48023A3618BE79DF828202A
:100978000D2A8AD00A2A98F8003075D1002B84D025
:10098800324932480022CA54314900F002F970B99C
:10099800274B01221A702F4A1368013313602B4921
:1009A8002846FFF77FFD002388F800306DE72A49C5
:1009B800264800F0EEF820B91D4B01221A70274A8C
:1009C800EAE72749214800F0E4F80028E7D1184B66
:1009D80001221A70234ADFE7CC0C00080004024009
:1009E8000FFFC3FF00000020C4000020D00000203B
:1009F800AB0C000858000020B00C000828000020AC
:100A08000030024000000240004400400010014055
:100A1800D8010020480100201C010020CC00002043
:100A28005801002038010020F1000020C8000020F3
:100A380089000020240000209C0000204A0C0008A7
:100A4800880000202000002098000020D10000200D
:100A58004F0C0008A8000020730C0008A400002018
:100A6800930C0008A00000201E2B9CD8591C88F865
:100A780000102349CA5408E79DF8171021485A4620
:100A8800FFF7EEFB00283FF40AAF1F4B01221A7054
:100A98001E4A1368013313609DF82A30152B08D1BC
:100AA8001B4A13680133136059462846FFF73AFD7D
:100AB800F5E6802BF8D1174AF3E7A161E2E6317831
:100AC800CBB2032998BF01334FF47A7198BFDBB2D8
:100AD800B2FBF1F088BF002301FB10224FF0C80CD5
:100AE8000021C8B2984201D304233DE70CFB01F072
:100AF800904203D8643090423FF634AF0131F0E7BA
:100B0800D1000020F1000020880000208C00002087
:100B180094000020900000200B480C490C4A914298
:100B280000D304E050F8043B41F8043BF7E70948D8
:100B380009490022884200D302E040F8042BF9E773
:100B4800FFF7F0FDFEE70000F40C000800000020AD
:100B5800010000200400002058020020FEE70244A3
:100B68000346934200D1704703F8011BF9E710B51B
:100B78006AB10139841810F8012B11F8013F9A4223
:100B880003D1A04201D0002AF5D1D01A10BD1046D9
:100B9800FCE710F8012B11F8013B012A28BF9A4203
:100BA800F7D0D01A70470A44914200F1FF3300D1C0
:100BB800704710B511F8014B03F8014F9142F9D174
:100BC80010BD034613F8012B002AFBD1181A01386F
:100BD80070474641554C543A20554E4F2073746F18
:100BE800702061636B2074696D656F757400524580
:100BF80053554D455F524551007761746368646F82
:100C0800673A204A20726573756C742074696D6543
:100C18006F75742C20666F7263696E6720726573D6
:100C2800756D65004641554C543A20554E4F20721B
:100C38006573756D652061636B2074696D656F758B
:100C4800740050494E4700504F4E470053544F5080
:100C58005F52455100554E4B4E4F574E0049444C3C
:100C68004500574149545F554E4F5F53544F505FAD
:100C780041434B00574149545F4A5F524553554CD5
:100C88005400574149545F554E4F5F524553554D97
:100C9800455F41434B004641554C54004641554C35
:100CA800543A00424F4F54004E4F4E45000000004A
:100CB800650C00086A0C00087C0C00088A0C000807
:100CC8009E0C0008B905000821060008E90500087F
:100CD80051060008F8B500BFF8B500BFAD0100081F
:0C0CE80089010008AEFEFF7F0100000043
:010CF40004FB
:0400000508000B21C3
:00000001FF
