:020000040800F2
:1000000000000220150600085906000859060008DD
:1000100059060008590600085906000800000000AB
:100020000000000000000000000000005906000869
:10003000590600080000000059060008590600088B
:100040005906000859060008590600085906000814
:100050005906000859060008590600085906000804
:1000600059060008590600085906000859060008F4
:1000700059060008590600085906000859060008E4
:1000800059060008590600085906000859060008D4
:1000900059060008590600085906000859060008C4
:1000A00059060008590600085906000859060008B4
:1000B00059060008590600085906000859060008A4
:1000C0005906000859060008590600085906000894
:1000D0005906000859060008590600085906000884
:1000E0005906000859060008590600085906000874
:1000F0005906000859060008590600085906000864
:100100005906000859060008590600085906000853
:100110005906000859060008590600085906000843
:100120005906000859060008590600085906000833
:100130005906000859060008590600085906000823
:100140005906000859060008590600085906000813
:100150005906000859060008590600085906000803
:1001600059060008590600085906000859060008F3
:1001700059060008590600085906000859060008E3
:080180005906000859060008A9
:1001880000238360C0E90012C36070478268C368B7
:100198009A420DD0C3680268D35C0B70C36842688A
:1001A8000133B3FBF2F102FB1133C3600120704746
:1001B8000020704700210170417580F82A10142230
:1001C800013000F046BAFFF7F5BF30B502460144EA
:1001D80000208A4200D130BD12F8013B0824584063
:1001E80045B24300D8B2002D04F1FF33B8BF80F008
:1001F800070013F0FF04F3D1EBE770B5037804466A
:100208000D461646072B0FD8DFE803F0040A12192B
:10021800232D3E50432901D101232370002070BDB6
:100228004A2901D10223F8E72046FFF7C3FFF5E783
:10023800012380F82A30417081750323EDE790F897
:100248002A3081705A1C034480F82A2099750423A7
:10025800E3E790F82A30C1705A1C034480F82A203A
:1002680099750523D9E71029DED890F82A3001714D
:100278005A1C034480F82A20997500239942437533
:1002880014BF06230723C8E7427D531C0244DBB290
:100298004375517190F82A20511C024480F82A10A5
:1002A800957502799A42B9D80723B6E790F82A10CB
:1002B8001630FFF78AFFA842B6D16378012BB3D175
:1002C800631C324604F1150153F8040B42F8040B81
:1002D8008B42F9D12046FFF76DFF01209FE7F8B563
:1002E800102B0F46069C11461D461CD8DE1D9DF896
:1002F8001C30F6B29E4216D8432323704A236370FB
:100308000123A370E0702771657125B11AB12A46DF
:10031800A01D00F0B0F9A01C291DFFF756FF2C44C2
:10032800A0713046F8BD0026FBE72DE9F04389B0FF
:10033800044602AD4FF017090E46174600214A46FB
:100348002846984600F085F9207E431C23763146DE
:10035800CDE9005943463A46FFF7C1FF014618B1B7
:10036800A3680BB12846984709B0BDE8F08338B5B3
:10037800036804460D4698472844606138BD034623
:10038800084603B11847704738B51C220D460021AE
:10039800044600F05EF995E80F0084E80F00012399
:1003A800237638BD13B5044603689847237C012B90
:1003B8000ED1636953B3834228D2042323741B49A3
:1003C80000236361E06802B0BDE81040FFF7D7BFC3
:1003D800022B1DD16369CBB1834217D201230DF1E2
:1003E8000702822120468DF80730FFF79EFF6368D9
:1003F8000BB10F48984703234FF47A7120462374B2
:10040800FFF7B5FF0B49E068FFF7B9FF02B010BD71
:10041800032BFBD16369002BF8D08342F6D2042367
:100428002374002304496361CCE700BF9A060008DF
:10043800B6060008C1060008EC06000837B50D46E8
:1004480004461A49284600F00CF930B96368EBB144
:10045800174803B0BDE8304018471649284600F051
:1004680000F9A8B9237C012B12D142F21073ADF820
:10047800043081210223204601AAFFF756FF0223F8
:10048800237442F6E0612046FFF771FF03B030BDE8
:100498000949284600F0E5F80028F7D1237C032B0A
:1004A80002BF207460616076F0E700BF0A070008A9
:1004B8000F070008140700081D07000837B54A7819
:1004C80082768B78C3760D468DF804208DF805303A
:1004D80001AA022380210446FFF727FFAB78102BDF
:1004E8000BD0123B022B1CD8237C022B19D163683A
:1004F8000BB10D48984703230AE0237C8BB9EB78AE
:1005080003B12B79637663680BB1084898470123D8
:100518004FF47A712046237403B0BDE83040FFF7EA
:1005280026BF03B030BD00BFB60600082807000884
:1005380000207047704770477047000000B52A4B8D
:100548000FCB8BB001AC84E80F00284928488022E3
:10055800FFF716FE274928488022FFF711FE274893
:10056800FFF731FE21462648264CFFF70DFF0023F2
:10057800254E8DF814301E4805A9FFF707FE58B917
:100588008DF803001C480DF10301FFF7FFFDF0B9DA
:100598001B48FFF707FFEAE79DF814200D2AEAD069
:1005A8000A2A23780AD1002BE5D0174A14480025D7
:1005B8001146D554FFF742FF2570DCE71E2B97BF85
:1005C800591C0023F254217088BF2370D3E79DF88B
:1005D80003100A4805AAFFF710FE0028D2D00848E1
:1005E80005A9FFF76BFFCDE73407000808010020D5
:1005F80078000020880000206800002021000020EA
:100608004C00002000000020010000200B480C498D
:100618000C4A914200D304E050F8043B41F8043BF3
:10062800F7E7094809490022884200D302E040F868
:10063800042BF9E7FFF782FFFEE7000044070008F4
:100648000000002000000020000000208801002099
:10065800FEE702440346934200D1704703F8011BAA
:10066800F9E710F8012B11F8013B012A28BF9A423B
:10067800F7D0D01A70470A44914200F1FF3300D1F5
:10068800704710B511F8014B03F8014F9142F9D1A9
:1006980010BD4641554C543A20554E4F2073746F47
:1006A800702061636B2074696D656F7574005245C5
:1006B80053554D455F524551007761746368646FC7
:1006C800673A204A20726573756C742074696D6589
:1006D8006F75742C20666F7263696E67207265731C
:1006E800756D65004641554C543A20554E4F207261
:1006F8006573756D652061636B2074696D656F75D1
:10070800740050494E4700504F4E470053544F50C5
:100718005F41434B00524553554D455F41434B00A4
:1007280053544F505F5245510000000039050008EE
:0C0738003D0500083F05000841050008D1
:04074400F8B500BF45
:04074800F8B500BF41
:08074C001EFFFF7F0100000009
:0400000508000615D4
:00000001FF
