:020000040800F2
:10000000C812002045010008012100080321000852
:10001000072100080B2100080F2100080000000044
:100020000000000000000000000000001321000894
:100030001521000800000000172100084F1D0008CE
:100040005F0100085F0100085F0100085F01000810
:100050005F0100085F0100085F0100085F01000800
:100060005F0100085F0100085F0100085F010008F0
:100070005F0100085F0100085F0100085F010008E0
:100080005F0100085F0100085F0100085F010008D0
:100090005F0100085F0100085F0100085F010008C0
:1000A0005F0100085F0100085F0100085F010008B0
:1000B0005F0100085F0100085F0100085F010008A0
:1000C0005F0100085F0100085F0100085F01000890
:1000D0005F0100085F0100080D320008D3400008EE
:1000E0005F0100085F0100085F0100085F01000870
:1000F0005F0100085F0100085F0100085F01000860
:100100005F0100085F0100085F0100085F0100084F
:100110005F010008DB4400085F0100085F01000880
:100120005F0100085F0100085F0100085F0100082F
:10013000DFF80CD005F05AF800480047B71F000858
:10014000C81200200648804706480047FEE7FEE741
:10015000FEE7FEE7FEE7FEE7FEE7FEE7FEE7FEE777
:1001600047020008310100080CB500200190009002
:100170006C48006840F480306A49086000BF6948F4
:10018000006800F4003000900198401C0190009835
:1001900018B90198B0F5A06FF1D16248006800F479
:1001A000003010B10120009001E000200090009884
:1001B000012843D15C48006840F010005A490860AB
:1001C0000846006820F0030008600846006840F018
:1001D0000200086053484068524948600846406839
:1001E00048600846406840F48060486008464068BF
:1001F00020F47C1048600846406840F4E8104860ED
:100200000846006840F08070086000BF45480068FC
:1002100000F000700028F9D04248406820F0030048
:10022000404948600846406840F00200486000BF0E
:100230003C48406800F00C000828F9D10CBD10B50E
:10024000FFF792FF10BD10B53648006840F001007E
:1002500034490860084640683449084031494860DC
:1002600008460068324908402E4908600846006880
:1002700020F4802008600846406820F4FE004860B2
:100280004FF41F008860FFF7DAFF4FF00060294944
:10029000086010BD10B5002100200022214B5B68D2
:1002A00003F00C0121B1042906D0082928D107E068
:1002B000214B224C236027E01F4B204C236023E07E
:1002C000184B5B6803F47010164B5B6803F48032C4
:1002D000022303EB904022B9194B4343174C236090
:1002E0000DE0104B5B6803F4003323B1144B434320
:1002F000124C236003E0104B4343104C236003E097
:100300000D4B0E4C236000BF00BF064B5B68C3F370
:1003100003130C4CE15C094B1B68CB40074C23607A
:1003200010BD000000100240002002400000FFF855
:10033000FFFFF6FE08ED00E000127A00000000204A
:1003400000093D000400002031490143314A116099
:10035000704770B5002100230F22C47804B32D4CE0
:10036000246804F4E064C4F5E064210AC1F10403E4
:10037000CA40447804FA03F1847814402143090107
:10038000254C0678A155047804F01F050124AC40E3
:1003900005786D11AD0005F1E025C5F8004109E0D3
:1003A000047804F01F050124AC401C4D067876113A
:1003B00045F8264070BD1A4A0A400243154B1B1FE0
:1003C0001A60704739B1134A121D12680243114B6B
:1003D0001B1D1A6006E00F4A121D126882430D4B66
:1003E0001B1D1A607047042808D14FF0E0210969ED
:1003F00041F004014FF0E022116107E04FF0E021ED
:10040000096921F004014FF0E022116170470000FA
:100410000000FA050CED00E000E400E080E100E0FF
:1004200080FFFF1F10B50446CC48844208D101214B
:10043000042000F02DFB0021042000F029FB46E001
:10044000C748844208D10121082000F021FB002187
:10045000082000F01DFB3AE0C248844208D1012187
:10046000102000F015FB0021102000F011FB2EE001
:10047000BD48844208D10121202000F009FB002161
:10048000202000F005FB22E0B848844208D1012179
:10049000402000F0FDFA0021402000F0F9FA16E0BB
:1004A000B348844208D10121802000F0F1FA0021F4
:1004B000802000F0EDFA0AE0AE48844207D1012125
:1004C000801500F0E5FA0021A01500F0E1FA10BD5A
:1004D00010B50121084600F0DBFA0021012000F0F0
:1004E000D7FA10BD2DE9F041024600250026002074
:1004F00000230024002791F803C00CF00F0591F8A9
:1005000003C00CF0100CBCF1000F03D091F802C036
:100510004CEA050591F800C0BCF1000F31D0146819
:1005200000202BE04FF0010C0CFA00F3B1F800C0F2
:100530000CEA03069E4220D183004FF00F0C0CFA08
:1005400003F7BC4305FA03FC4CEA040491F803C02A
:10055000BCF1280F06D14FF0010C0CFA00FCC2F8D8
:1005600014C00AE091F803C0BCF1480F05D14FF068
:10057000010C0CFA00FCC2F810C0401C0828D1D3B2
:100580001460B1F800C0BCF1FF0F34DD54680020E6
:100590002EE000F1080C4FF0010808FA0CF3B1F856
:1005A00000C00CEA03069E4221D183004FF00F0CDD
:1005B0000CFA03F7BC4305FA03FC4CEA040491F877
:1005C00003C0BCF1280F05D100F1080C08FA0CF8A3
:1005D000C2F8148091F803C0BCF1480F07D100F1B4
:1005E000080C4FF0010808FA0CF8C2F81080401C03
:1005F0000828CED35460BDE8F0814FF6FF7101802A
:10060000022181700421C170704702460020936866
:100610000B400BB1012000E00020704701468868C4
:1006200080B2704702460020D3680B400BB1012016
:1006300000E0002070470146C86880B27047016141
:100640007047416170470AB1016100E04161704744
:10065000C16070474FF480320A43826181618261D8
:1006600082698269704702460020434B18684FF642
:100670008073184040EA021008433F4B18607047EF
:100680003E49C8617047F0B50A46002300240021A6
:10069000002500F00046B6F1004F02D1364EF16958
:1006A00001E0354E7168C0F3034583B200F4401693
:1006B000B6F5401F08D121F070612F4E766826F004
:1006C00070662D4F7E6012E000F48016B6F5801F34
:1006D00006D1032606FA05F4A14341F0706106E055
:1006E000460D360103FA06F6B14341F0706122B1BE
:1006F000460D360103FA06F6314300F00046B6F126
:10070000004F02D11C4EF16101E01B4E7160F0BD43
:1007100030B500228B071C0F0F2303FA04F2164B8F
:1007200008338C1053F824309343134C08348D1045
:1007300044F8253023468C1053F824308C07240FBE
:1007400000FA04F423430C4C08348D1044F825308F
:1007500030BD0A49DC3108607047000000080140E4
:10076000000C01400010014000140140001801403D
:10077000001C014000200140000001400000204218
:10078000DF48006840F00100DD4908600846406825
:10079000DC490840DA49486008460068DA49084000
:1007A000D74908600846006820F4802008600846A1
:1007B000406820F4FE0048604FF41F0088607047D6
:1007C000CF49096821F48031CD4A1160114609688A
:1007D00021F480211160B0F5803F03D0B0F5802F67
:1007E0000ED106E0C649096841F48031C44A11605F
:1007F00007E0C349096841F4A021C14A116000E043
:1008000000BF00BF704710B5014600220023002042
:100810004A11012A02D1BA4C236806E0022A02D109
:10082000B74C236A01E0B64C636A01F01F02012451
:1008300094401C400CB1012000E0002010BD38B5F0
:10084000002000900024002500BF3120FFF7DBFFCF
:1008500005460098401C00900098B0F5A06F01D0AC
:10086000002DF2D03120FFF7CEFF08B1012400E0C7
:100870000024204638BD01460020A14A106820F01F
:10088000F80040EAC10010607047A0490860704756
:10089000024600209A4B586820F47C1042EA01037B
:1008A0001843974B5860704798490866704701464F
:1008B0000020934A506820F00300084350607047BE
:1008C0008F48406800F00C007047014600208C4AB9
:1008D000506820F0F0000843506070470146002047
:1008E000874A506820F4E060084350607047014632
:1008F0000020834A506820F4605040EAC1005060F4
:10090000704729B17E4A527A02437D4B5A7204E005
:100910007B4A527A82437A4B5A7270477B49D8316C
:100920000860704701460020754A506820F4404036
:100930000843506070470021714A20321170704A9C
:1009400082F82010012802D004280AD104E00121F5
:100950006B4A2032117005E00521694A203211707E
:1009600000E000BF00BF70476949086070476449F4
:10097000096A0143624A1162704765494439086057
:10098000704730B500210022002400235C4D6D68C3
:1009900005F00C0121B1042905D0082923D105E077
:1009A0005C4D056022E05B4D05601FE0544D6D68B5
:1009B00005F47012524D6D6805F48034022505EB84
:1009C00092421CB9544D554305600BE04C4D6D6887
:1009D00005F400351DB1504D5543056002E04D4D05
:1009E0005543056002E04B4D056000BF00BF444D1C
:1009F0006D6805F0F0010909484D6B5C0568DD4044
:100A000045603F4D6D6805F4E061090A434D6B5C3C
:100A10004568DD4085603A4D6D6805F46051C90A4E
:100A20003E4D6B5C4568DD40C560354D6D6805F435
:100A30004041890B3A4D6B5CC568B5FBF3F5056128
:100A400030BD29B12E4A526902432D4B5A6104E050
:100A50002B4A526982432A4B5A61704729B1284A6E
:100A600092690243264B9A6104E0254A92698243C7
:100A7000234B9A61704729B1214AD2690243204B26
:100A8000DA6104E01E4AD26982431D4BDA61704785
:100A900029B11B4AD2680243194BDA6004E0184AB4
:100AA000D2688243164BDA60704729B1144A126942
:100AB0000243134B1A6104E0114A12698243104B3E
:100AC0001A61704712494039086070470F49C8647D
:100AD00070470B49C87170470948406A40F0807000
:100AE00007494862704701460020054A92680A405B
:100AF0000AB1012000E00020704701498872704768
:100B0000001002400000FFF8FFFFF6FE0000424226
:100B10008004424200127A0000093D0014000020C7
:100B20002400002010B50446FE48844208D101216B
:100B3000C014FFF7ADFF0021E014FFF7A9FFC4E0E8
:100B4000B4F1804F08D101210846FFF7AEFF002124
:100B50000120FFF7AAFFB8E0F348844208D1012141
:100B60000220FFF7A2FF00210220FFF79EFFACE06A
:100B7000EE48844208D101210420FFF796FF0021AE
:100B80000420FFF792FFA0E0E948844208D1012148
:100B90000820FFF78AFF00210820FFF786FF94E076
:100BA000E448844208D101211020FFF77EFF002194
:100BB0001020FFF77AFF88E0DF48844208D1012146
:100BC0002020FFF772FF00212020FFF76EFF7CE05E
:100BD000DA48844208D101214014FFF759FF00216F
:100BE0006014FFF755FF70E0D548844209D1012118
:100BF000C804FFF74DFF00214FF40020FFF748FF26
:100C000063E0D048844209D101210805FFF740FF85
:100C100000214FF48010FFF73BFF56E0CA488442A2
:100C200009D101214805FFF733FF00214FF40010DF
:100C3000FFF72EFF49E0C548844208D1012140203A
:100C4000FFF733FF00214020FFF72FFF3DE0C048B2
:100C5000844208D101218020FFF727FF0021802056
:100C6000FFF723FF31E0BB48844208D10121801502
:100C7000FFF71BFF0021A015FFF717FF25E0B6487F
:100C8000844209D101210804FFF702FF00214FF43B
:100C90008030FFF7FDFE18E0B048844209D1012101
:100CA0004804FFF7F5FE00214FF40030FFF7F0FE97
:100CB0000BE0AB48844208D101218804FFF7E8FE2D
:100CC00000214FF48020FFF7E3FE10BD00220288D0
:100CD000944B98420ED0994B98420BD0B0F1804F74
:100CE00008D0914B984205D0904B984202D0904B3F
:100CF000984204D14FF68F731A404B881A438D4B9C
:100D0000984207D08C4B984204D04FF6FF431A40CC
:100D1000CB881A4302808B8883850B880385814B9F
:100D200098420BD0854B984208D08B4B984205D007
:100D30008A4B984202D08A4B984201D10B7A0386A3
:100D400001238382704770B5002400220023058CA4
:100D50004FF6FE7635400584028C8388048B4FF66F
:100D60008F752C40B51E2C400D882C43751E2A40D3
:100D70000D892A434D882A436A4DA8420BD06F4DF6
:100D8000A84208D0744DA84205D0744DA84202D0A4
:100D9000734DA84213D14FF6F7752A404D892A4367
:100DA0004FF6FB752A408D882A434FF6FF652B408E
:100DB0004FF6FF552B408D892B43CD892B438380E4
:100DC0000483CD888586028470BD70B5002400221E
:100DD0000023058C4FF6EF7635400584028C83881E
:100DE000048B48F6FF752C404FF6FF452C400D88CC
:100DF0004FF6FF7606EA05252C434FF6DF752A40AD
:100E00000D8906EA05152A434D8806EA05152A4389
:100E1000444DA84202D0494DA8421DD14FF67F75DE
:100E20002A404D894FF6FF7606EA05152A434FF60C
:100E3000BF752A408D8806EA05152A434FF6FF350F
:100E40002B404FF2FF752B408D8906EA85052B4319
:100E5000CD8906EA85052B4383800483CD880587E9
:100E6000028470BD70B5002400220023058C4FF66B
:100E7000FF6635400584028C8388848B4FF68F751E
:100E80002C404FF6FC752C400D882C434FF6FF5537
:100E90002A400D894FF6FF7606EA05252A434D883C
:100EA00006EA05252A431F4DA84202D0234DA84239
:100EB0001DD14FF2FF752A404D894FF6FF7606EAA5
:100EC00005252A434FF6FF352A408D8806EA052579
:100ED0002A434EF6FF752B404DF6FF752B408D894A
:100EE00006EA05152B43CD8906EA05152B438380B9
:100EF0008483CD888587028470BD70B5002200236D
:100F00000024058C4EF6FF7635400584038C8488DA
:100F1000828B48F6FF752A404FF6FF452A400D8820
:100F200020E00000002C01400004004000080040C8
:100F3000000C00400010004000140040003401404C
:100F4000004C014000500140005401400018004096
:100F5000001C0040002000400040014000440140CF
:100F6000004801404FF6FF7606EA05252A434DF674
:100F7000FF752B400D8906EA05352B434D8806EA9F
:100F800005352B43FA4DA84202D0FA4DA84208D1AC
:100F90004BF6FF752C408D894FF6FF7606EA8515D6
:100FA0002C4384808283CD88A0F84050038470BD98
:100FB000828B4FF2FF331A408283828B4FF6FF738E
:100FC00003EA01231A4382837047F0B50C461546A5
:100FD000002200210026078C4EF6FF7C07EA0C0752
:100FE0000784828B018C4FF6FF7707EA043640F6C0
:100FF000FF473A404FF6FF7707EA05273A434FF697
:10100000FF7707EA03373A43D94FB8420ED0D94F9A
:10101000B8420BD0B0F1804F08D0D74FB84205D0BE
:10102000D64FB84202D0D64FB84206D14DF6FF7720
:10103000394046F48057394305E047F6FF573940B9
:1010400044F48057394382830184F0BD828B4FF68C
:10105000F3731A408283828B0A4382837047F0B510
:101060000C461546002200210026078C4FF6FF6C27
:1010700007EA0C070784828B018C4FF6FF7707EA9B
:1010800004264FF60C773A404FF6FF7707EA03172E
:101090002F433A43B64FB8420ED0B64FB8420BD0AA
:1010A000B0F1804F08D0B44FB84205D0B34FB8422A
:1010B00002D0B34FB84206D14FF6FF57394046F43D
:1010C0008077394305E04FF2FF57394044F4807789
:1010D000394382830184F0BD028B4FF2FF331A4003
:1010E0000283028B4FF6FF7303EA01231A43028344
:1010F0007047F0B50C461546002200210026078CEB
:101100004FF6EF7C07EA0C070784028B018C4FF641
:10111000FF7707EA041640F6FF473A404FF6FF779D
:1011200007EA03373A434FF6FF7707EA05273A43C2
:101130008F4FB8420ED08F4FB8420BD0B0F1804FD6
:1011400008D08D4FB84205D08C4FB84202D08C4F9A
:10115000B84206D14FF6DF77394046F010073943E1
:1011600005E04FF65F77394044F0100739430283BA
:101170000184F0BD028B4FF6F3731A400283028B99
:101180000A4302837047F0B50C4615460022002141
:10119000068C4FF6FE773E400684028B018C4FF69C
:1011A0000C7632407E1C06EA03162E433243704E04
:1011B000B0420ED06F4EB0420BD0B0F1804F08D08D
:1011C0006D4EB04205D06D4EB04202D06C4EB04272
:1011D00006D14FF6FD76314044F00106314305E07B
:1011E0004FF6F576314044F0010631430283018425
:1011F000F0BD70B505460C465D4885420ED05D4891
:1012000085420BD0B5F1804F08D05B48854205D0B0
:101210005A48854202D05A48854200D100E000BFBA
:10122000208850B92389A28861882846FFF7ABFF40
:10123000E1882846FFF79EFF25E0208804280AD190
:101240002389A28861882846FFF753FFE188284652
:10125000FFF742FF17E0208808280AD12389A288D7
:1012600061882846FFF7FBFEE1882846FFF7EEFE7F
:1012700009E02389A28861882846FFF7A6FEE18855
:101280002846FFF795FE70BD2DE9F04105460C4656
:1012900000260127608808B9022600E00026A08801
:1012A000012801D1022700E001272088A0B9238965
:1012B000A28861882846FFF766FFE1882846FFF785
:1012C00059FF23893A4631462846FFF712FFE18845
:1012D0002846FFF701FF13E02389A288618828468A
:1012E000FFF707FFE1882846FFF7F6FE23893A4615
:1012F00031462846FFF747FFE1882846FFF73AFFC7
:10130000BDE8F0810A884B881A438B881A43CB8842
:101310001A430B891A434B891A438B891A43A0F845
:10132000442070474FF6FF71818000210180C18009
:101330004180017270470021018041808180C1801D
:10134000018141818181C1817047002101804180FB
:10135000012181800021C18001817047002101802D
:1013600041808180C180018141818181704700007D
:10137000002C0140003401400004004000080040FF
:10138000000C004021B1028842F00102028004E01A
:1013900002884FF6FE731A400280704731B1B0F8F0
:1013A000442042F40042A0F8442005E0B0F8442074
:1013B000C2F30E02A0F8442070471AB183890B4390
:1013C000838102E083898B438381704781827047E8
:1013D00041EA0203A0F8483070471AB183890B43F1
:1013E000838102E083898B438381704701894FF6B3
:1013F000F8721140018170470A46002101894FF6B9
:101400008F73194011430181704730B504460D4672
:1014100029462046FFF7F0FF208940F00700208191
:1014200030BD2DE9F04104460D4616461F46602D9D
:1014300006D13B46012231462046FFF75AFE05E021
:101440003B46012231462046FFF79DFE29462046B5
:10145000FFF7D2FF208940F007002081BDE8F0812E
:1014600030B50C4600210189C9B24FF6FF7505EA77
:101470000325154325432943018130BD2DE9F04162
:1014800005460E4617469846002443463A463146DE
:101490002846FFF7E5FF2C894FF6F870044044F02A
:1014A00007044FF68F70044044F070042C81BDE8AF
:1014B000F081F0B504460D4616461F463B463246BF
:1014C00029462046FFF7CCFF208940F48040208148
:1014D000F0BD0185828270470A46002101884FF6DF
:1014E0008F731940114301807047F0B50C461546C3
:1014F0001E460021002200230189028B038C4FF637
:10150000F877394021434FF6FC473A4040F2011743
:101510003A434FF6DD773B404FF6FF7707EA061771
:101520002F433B43018102830384F0BD0A4600211F
:10153000018B4FF68F7319401143018370470A46A0
:101540000021018B48F6FF7319404FF6FF7303EA41
:1015500002231943018370470A460021818B4FF60D
:101560008F7319401143818370470A460021818B94
:1015700048F6FF7319404FF6FF7303EA022319433D
:101580008183704721B1028842F08002028004E02A
:1015900002884FF67F731A400280704721B182881B
:1015A00042F00402828004E082884FF6FB731A4006
:1015B0008280704721B1828842F00802828004E074
:1015C00082884FF6F7731A408280704721B1828873
:1015D00042F00102828004E082884FF6FE731A40D6
:1015E000828070470A460021018B4FF6F77319403D
:1015F0001143018370470A460021018B4FF2FF73AC
:1016000019404FF6FF7303EA022319430183704721
:101610000A460021818B4FF6F773194011438183ED
:1016200070470A460021818B4FF2FF7319404FF635
:10163000FF7303EA02231943818370470A4600219E
:10164000018B4FF6FB7319401143018370470A4623
:101650000021018B4FF6FF3319404FF6FF7303EA69
:1016600002231943018370470A460021818B4FF6FC
:10167000FB7319401143818370470A460021818B17
:101680004FF6FF3319404FF6FF7303EA0223194365
:10169000818370470A460021018B4FF67F73194002
:1016A0001143018370470A460021018BC1F30E01EB
:1016B0004FF6FF7303EA02231943018370470A467A
:1016C0000021818B4FF67F7319401143818370474E
:1016D0000A460021818BC1F30E014FF6FF7303EA26
:1016E00002231943818370470A460021018C4FF67B
:1016F000FD7319401143018470470A460021018C93
:101700004FF6F77319401143018470470A460021D0
:10171000018C4FF6DF7319404FF6FF7303EA021393
:101720001943018470470A460021018C4FF67F73EC
:1017300019404FF6FF7303EA0213194301847047FF
:101740000A460021018C4FF6FF5319404FF6FF73F4
:1017500003EA02231943018470470A460021018CE1
:101760004FF2FF7319404FF6FF7303EA0223194348
:10177000018470470A460021018C4DF6FF73194021
:101780004FF6FF7303EA023319430184704730B503
:10179000002301248C40A3B2048C9C430484048C59
:1017A00002FA01F5ADB22C43048430BD30B50023FC
:1017B00004248C40A3B2048C9C430484048C02FA5D
:1017C00001F5ADB22C43048430BD70B50346002052
:1017D00000241846183001258D40ACB21D8CA5435D
:1017E0001D8409B1082909D100EB6100056825F0C5
:1017F000700505600568154305600EE00D1FC5F313
:101800004E052844056825F4E045056005684FF657
:10181000FF7606EA02263543056070BD21B10288D5
:1018200042F00202028004E002884FF6FD731A4083
:101830000280704721B1028842F00402028004E075
:1018400002884FF6FB731A400280704721B18288EC
:1018500042F08002828004E082884FF67F731A4053
:101860008280704702884FF6F7731A400280028820
:101870000A430280704782884FF68F731A40828035
:1018800082880A438280704702894FF6F8731A40B3
:10189000028102890A430281704702894FF67F73F1
:1018A0001A40028102890A4302817047818470478D
:1018B00081857047818670470187704781877047AF
:1018C000A0F84010704702884FF6FF431A4002808C
:1018D00002880A43028070470146888E704701469D
:1018E000088F70470146888F70470146B1F8400065
:1018F00070470146888C70470146088D7047024644
:101900000020138A0B400BB1012000E0002070473B
:10191000CA430282704730B50246002000230024EB
:10192000158A05EA0103958905EA010413B10CB192
:10193000012000E0002030BDCA4302827047000051
:1019400010B50446FB48844209D101218803FFF702
:101950009FF800214FF48040FFF79AF832E0F648F4
:10196000844209D101214804FFF79FF800214FF478
:101970000030FFF79AF825E0F048844209D10121B0
:101980008804FFF792F800214FF48020FFF78DF8CC
:1019900018E0EB48844209D10121C804FFF785F81B
:1019A00000214FF40020FFF780F80BE0E548844267
:1019B00008D101210805FFF778F800214FF48010C5
:1019C000FFF773F810BD2DE9F04786B005460E46C7
:1019D0000024A24600BFA1460027B08900B100BF85
:1019E0002F462C8A4CF6FF700440F08804432C826A
:1019F000AC894EF6F3100440B088318908437189F0
:101A000008430443AC81AC8A4FF6FF400440B089E0
:101A10000443AC8201A8FEF7B4FFC648874202D156
:101A2000DDF810A001E0DDF80CA0A88900F400406A
:101A300040B10AEBCA0000EB0A1031684900B0FB64
:101A4000F1F807E00AEBCA0000EB0A1031688900E0
:101A5000B0FBF1F86420B8FBF0F004012009642128
:101A600001FB1089A88900F4004040B1322000EB4E
:101A7000C900B0FBF1F000F00700044308E0322099
:101A800000EB09106421B0FBF1F000F00F000443FB
:101A90002C8106B0BDE8F0874FF41651016000219B
:101AA0008180C18001810C214181002181817047A9
:101AB00010B502460020108A4FF2FF0318400B8831
:101AC0004C8823438C882343CC88234318431082BB
:101AD00010BD0021018041808180C180704721B10B
:101AE000828942F40052828104E082894DF6FF73BC
:101AF0001A4082817047F0B5034600240026002575
:101B0000002040F66A17B94200D100BF1846C1F361
:101B1000421401F01F06012707FA06F5012C01D136
:101B20000C3004E0022C01D1103000E014301AB166
:101B300007682F43076002E00768AF430760F0BD06
:101B40001AB1838A0B43838202E0838A8B438382A8
:101B50007047028A4FF6F0731A400282028A0A43E3
:101B60000282704782894FF2FF731A408281828914
:101B70000A438281704721B1828942F00202828148
:101B800004E082894FF6FD731A4082817047028A11
:101B90004FF6DF731A400282028A0A4302827047BC
:101BA00021B1028A42F48042028204E0028A4BF6AA
:101BB000FF731A4002827047C1F3080282807047A7
:101BC00001468888C0F308007047818941F001010F
:101BD00081817047028BD2B20283028B42EA0122DA
:101BE00002837047028B02F47F420283028B0A4316
:101BF0000283704721B1828A42F02002828204E08F
:101C0000828A4FF6DF731A408282704721B1828A3E
:101C100042F01002828204E0828A4FF6EF731A408B
:101C20008282704721B1828A42F00802828204E0F7
:101C3000828A4FF6F7731A408282704721B18289F7
:101C400042F40042828103E08289C2F30E02828163
:101C5000704721B1828A42F40062828204E0828A63
:101C60004FF2FF731A4082827047828A4FF6FB73ED
:101C70001A408282828A0A438282704721B1828A14
:101C800042F00202828204E0828A4FF6FD731A401B
:101C90008282704702460020B1F5007F00D100BF6C
:101CA00013880B400BB1012000E00020704701F4C5
:101CB0000072B2F5007F00D100BFCA4302807047B6
:101CC00070B50246002400230025002040F66A1665
:101CD000B14200D100BFC1F3421501F01F0301263C
:101CE00006FA03F3012D02D19689334006E0022D56
:101CF00002D1168A334001E0968A33400C12012645
:101D000006FA04F41688344013B10CB1012000E047
:101D1000002070BD10B50022002340F66A14A142D5
:101D200000D100BF0A1201249440A3B2DC43048016
:101D300010BD000000380140004400400048004051
:101D4000004C004000500040CA4800687047C94835
:101D50000068401CC7490860704730B5C648006835
:101D60004FF47A72B0FBF2F1B1F1807F00D31DE045
:101D700021F07F40401E4FF0E022506150170F22AB
:101D8000002807DA13071D0EBC4B00F00F04241FB8
:101D90001D5503E013071C0EB94B1C5400BF002057
:101DA0004FF0E02290610720106100BF30BD70B598
:101DB00004460D462078062806D1284602F0F3FD99
:101DC000B0A001F0AFF870BD207807280BD12846ED
:101DD00002F0F4FD18B1ADA001F0A4F802E0AEA04D
:101DE00000F0A2FDEFE72078082802D101F0A7F863
:101DF000E9E702F0F8FD48B12078012802D0207808
:101E0000022803D1A9A000F08FFDDCE72946204677
:101E100001F021FC00BFD6E72DE9F74FDEB0904678
:101E20000BAA5F995E9801F05CFE814602F0F0FD1E
:101E30000746B9F1000F08D0484601F0C8FE8246B7
:101E400002F0E1F861B0BDE8F08F9DF82C000428A5
:101E500005D1404602F0CAFD02F0C6F8F2E79DF84F
:101E60002C00052805D1404602F0C9FD02F0C1F85A
:101E7000E8E79DF82C00062855D1404602F0BFFD4A
:101E800002F0B1FD824602F0FDFA834602F0C8F886
:101E90000A9002F003FB099002F0FDFA089002F0AC
:101EA00015F9079002F0C5F80690DDE90901CDE9C2
:101EB00003BACDE901010898009080492EA8DDE918
:101EC000062303F00DFC2EA801F06FFF7CA11AA8D9
:101ED00002F058FE102115A802F0E3FA064600248D
:101EE00011E015A8025D79A119A803F0F9FB1AA861
:101EF00002F012FEC0F14F0A524619A91AA802F0C8
:101F00002DFE601CC4B2B442EBDB1AA802F004FE42
:101F1000C0F14F0A52466FA11AA802F01FFE1AA87C
:101F200001F043FF8EE79DF82C0007280AD12FB15E
:101F3000404602F064FD02F061F802E066A002F0A3
:101F400062F87FE79DF82C00082805D1404602F092
:101F50002AFD02F053F875E79DF82C0009280AD1F4
:101F6000404602F02BFD10B102F048F802E05DA0FF
:101F700002F049F866E7404602F041FD02F033FD09
:101F800018B158A002F03FF85CE7424639460BA86A
:101F900002F0CDFB05461DB95FB102F02FF808E055
:101FA000012D03D14FA002F02EF802E04FA002F065
:101FB0002AF800BF46E7A6B000F0F2FBFFF7CDFE1F
:101FC000FFF7C2FE0446204601F0B2FA4FF4E130BA
:101FD00000F0DEFE4FF4E13001F080FE4FF4E1301E
:101FE00002F016F902F07CFB204602F0CBFC2546FD
:101FF000274600F092FF3BE0FFF7A6FE044620468E
:1020000002F009FD204601F0E5FB601B142807D310
:10201000601B282801D9254600E0143501F093FA09
:1020200021A800F017FF18B1214621A8FFF7BFFE35
:1020300023466A46802101A801F0E7FE0646002EED
:1020400006DD2246BDF8001001A8FFF7E5FE04E01A
:10205000002E02DA27A001F0D6FF204602F001FC94
:1020600002F0F9FCE01B642802D3274601F0CCFB08
:10207000C2E70000280000200000002018ED00E06A
:1020800000E400E04553544F50000000434C4541EC
:10209000525F4553544F50006573746F705F6E6F9D
:1020A000745F636C65617261626C65006573746F07
:1020B000705F6C6174636865640000004C5C0008CC
:1020C000404255535241573A0000000025303258E3
:1020D00000000000210000005741544348444F478E
:1020E00000000000425553590000000054494D457E
:1020F0004F5554004241445F4652414D4500000057
:10210000704700BFFEE700BFFEE700BFFEE700BF6D
:10211000FEE770477047704770B505460E46144697
:10212000B4F5FA6F01D94FF4FA6435B1012D0FD02F
:10213000022D18D0032D2CD120E032464FF48071AF
:10214000D248FEF780FA2146D148FFF7B3FB21E0E1
:1021500032464FF40061CD48FEF775FA2146CC486F
:10216000FFF7AAFB16E032464FF48051C748FEF74E
:102170006AFA2146C648FFF7A1FB0BE032464FF44E
:102180008061C448FEF75FFA2146C148FFF798FB1B
:1021900000E000BF00BF70BD014609B900207047D4
:1021A000B1F57A7F01DD4FF47A71B1F5FA6F01D99B
:1021B0004FF4FA610846F2E7024640F24C4309B98F
:1021C0000020704752B940F24C40814201DB0120AF
:1021D000F7E740F24C40401A80B2F2E70846F0E7D9
:1021E0002DE9F04107460D4616463046FFF7D4FF6D
:1021F000044621462846FFF7DFFF044614B1C4F524
:10220000FA6084B2224629463846FFF785FFBDE8CA
:10221000F08110B50446042C00DB10BD00209E495F
:1022200021F81400002211462046FFF775FF00BF79
:10223000F3E770B50446002C01DD204600E0604263
:1022400085B21CB90020FFF7E4FF70BD002C05DD4E
:102250002A4600210846FFF7C3FF04E02A46012171
:102260000020FFF7BDFF00BFEFE770B50446002C6C
:1022700001DD204600E0604285B21CB90120FFF775
:10228000C8FF70BD002C05DD2A4601210846FFF776
:10229000A7FF04E02A4600210120FFF7A1FF00BFAD
:1022A000EFE770B50446002C01DD204600E06042F7
:1022B00085B21CB90220FFF7ACFF70BD002C05DD14
:1022C0002A4601210220FFF78BFF04E02A46002165
:1022D0000220FFF785FF00BFEFE770B50446002C32
:1022E00001DD204600E0604285B21CB90320FFF703
:1022F00090FF70BD002C05DD2A4600210320FFF76A
:102300006FFF04E02A4601210320FFF769FF00BFA9
:10231000EFE710B5002404E02046FFF77AFF601CC9
:10232000C4B2042CF8DB10BD00B589B0012142F223
:102330000100FEF793FB01211420FEF78FFB08A894
:10234000FEF75BF94FF47070ADF8200018208DF89F
:10235000230003208DF8220008A94E48FEF7C2F89A
:102360004FF4C850ADF8200010208DF82300032052
:102370008DF8220008A94548FEF7B4F84FF48060B4
:10238000ADF8200010208DF8230003208DF82200E6
:1023900008A94048FEF7A6F801A8FEF7CCFF602088
:1023A000ADF804000120ADF806000020ADF80C00E7
:1023B000ADF80A0001A93648FEF7C5FC01A934486A
:1023C000FEF703FD01A93248FEF74CFD01A9304894
:1023D000FEF793FD05A8FEF7A5FF0020ADF81A0053
:1023E000ADF816004FF4FA60ADF818000120ADF812
:1023F000140005A92648FEF769FC01212448FEF7D0
:10240000C1FF01212248FEF7C9FFFFF782FF09B093
:1024100000BD70B505460C46042D00DB70BDB4F55B
:102420007A7F02DD4FF47A7403E014F57A7F00DAE4
:102430001A4C1CB92846FFF7ECFEEFE735B1012D29
:1024400008D0022D0AD0032D10D10BE02046FFF753
:10245000F0FE0CE02046FFF708FF08E02046FFF7FB
:1024600020FF04E02046FFF738FF00E0D6E700BF7A
:10247000094820F8154000BFD0E70146042901DBD8
:1024800000207047044830F91100FAE700080140C5
:1024900000340140001001405400002018FCFFFFF0
:1024A000014631B1012906D0022906D0032909D1FC
:1024B00006E0B2487047B248FCE74FF08040F9E7C9
:1024C000B048F7E70020F5E710B586B0044603A84A
:1024D000FEF728FF0020ADF80C004FF6FF70ADF8B6
:1024E00010000020ADF81200ADF80E0003A9204640
:1024F000FEF7ECFB00231A4603212046FEF7F5FF0A
:102500006846FEF722FF0A20ADF80800694620461B
:10251000FEF76FFE00212046FFF7C8F90121204693
:10252000FEF730FF06B010BD08B501210820FEF708
:10253000A2FA01210420FEF791FA0320ADF8000071
:1025400004208DF8030003208DF8020069468E48B0
:10255000FDF7C8FF8948FFF7B7FF08BD08B501219F
:102560000220FEF788FA01210420FEF777FAC02046
:10257000ADF8000004208DF8030003208DF8020060
:1025800069468148FDF7AEFF7D48FFF79DFF08BD16
:1025900008B501210846FEF76EFA01210D20FEF76D
:1025A0005DFA01217948FEF76EF84FF40040ADF86E
:1025B000000004208DF8030003208DF80200694616
:1025C0007148FDF78FFF0820ADF80000694670489C
:1025D000FDF788FF4FF08040FFF776FF08BD08B594
:1025E00001210420FEF747FA01210820FEF736FA00
:1025F000C020ADF8000004208DF8030003208DF802
:10260000020069466248FDF76DFF5E48FFF75CFF18
:1026100008BD10B5FFF788FFFFF7A0FFFFF7B8FF71
:10262000FFF7DDFF002408E000205A4941F82400AC
:10263000594941F82400601CC4B2042CF4DB10BDDD
:1026400070B504462046FFF72BFF06460EB9002062
:1026500070BDB08C05B20020B0845048005745438F
:102660004D4840F824504B4850F82400284449492C
:1026700041F824002846EBE70146042901DB00204D
:102680007047444850F82100FAE70146042901DB6D
:1026900000207047404850F82100FAE770B5044622
:1026A0002046FFF7FDFE054605B970BD0020A88451
:1026B000384941F82400384941F8240000BFF4E7C4
:1026C0002DE9F04180460C4615461E460CB100200F
:1026D00020700DB1002028700EB100203080B8F1BC
:1026E000000F09D0B8F1010F13D0B8F1020F1DD0BF
:1026F000B8F1030F35D127E024B101212248FDF7BD
:1027000084FF207025B102211F48FDF77EFF28704D
:1027100028E024B140211C48FDF777FF207025B147
:1027200080211948FDF771FF28701BE02CB14FF490
:1027300000411548FDF769FF207025B108211448B4
:10274000FDF763FF28700DE024B140211048FDF72C
:102750005CFF207025B180210D48FDF756FF2870E1
:1027600000E000BF00BF4046FFF79AFE074617B1E2
:102770000EB1B88C3080BDE8F0810000000C004044
:102780000004004000080040000801400003180059
:10279000000C0140280100203801002050000020DA
:1027A00010B501210846FEF759F901210348FDF74C
:1027B0006AFF4FF4A060FDF7C7FD10BD00023000B6
:1027C000421C90B2884200DB0020704770B505467D
:1027D000FA480088FA490988884201D1002070BD72
:1027E000F7480488F748005D28704FF48071204650
:1027F000FFF7E6FFF24908800120F0E7F24802887F
:10280000F24801888A4205DB501AC0F58060401EFC
:1028100080B27047881A401E80B2FAE72DE9F04175
:102820000646304602F078F987B2FFF7E7FFB84274
:1028300007DAE7480068401CE54908600020BDE869
:10284000F081E148048800250AE0705DE1490855FF
:102850004FF480612046FFF7B3FF0446681C85B241
:10286000BD42F2DB72B6D8480480012240F22771E3
:10287000D948FFF740F962B60120E0E770B5054698
:10288000284602F049F9044615E0601E285C0D2830
:102890000BD0601E285C0A2807D0601E285C202808
:1028A00003D0601E285C092804D10021601E295431
:1028B000641E00E001E0002CE7D100BF70BDF8B558
:1028C00005460E46002000900A226946284602F07E
:1028D00085F904460098A84206D00098007818B9F7
:1028E000012C01DB042C01DD0020F8BD601E3070DE
:1028F0000120FAE7F8B504460D460020009069462D
:10290000204603F051F906460F460098A04202D037
:102910000098007808B10020F8BD3046394602F032
:1029200041FA28600120F7E710B58EB00446224630
:10293000AAA1684602F0D4FE6846FFF76FFF0EB00A
:1029400010BD2DE9F04106460F4614461D46394696
:10295000304602F0E8F810B10020BDE8F081A2A1F5
:10296000002002F019F950B1A0A0FFF7DDFFA24846
:102970000068401CA04908604FF0FF30EDE72C7064
:102980000120EAE72DE9F04792B081460C46142178
:10299000204602F0AAF84846FFF770FF99F80000B9
:1029A00018B9002012B0BDE8F0873F22494602A8BE
:1029B00002F0A6F800208DF847008BA102A802F0D3
:1029C000EBF805464DB98DA0FFF7AEFF8A480068C9
:1029D000401C894908600020E4E7234605228AA1BB
:1029E0002846FFF7AEFF06462EB1002E01DD01207E
:1029F000D8E70020D6E72346062285A12846FFF720
:102A0000A0FF06462EB1002E01DD0120CAE70020FE
:102A1000C8E72346072280A12846FFF792FF064613
:102A20002EB1002E01DD0120BCE70020BAE72346CD
:102A300008227CA12846FFF784FF06462EB1002E0F
:102A400001DD0120AEE70020ACE778A1284602F0C6
:102A50006AF8002835D180461EE063A1002002F00C
:102A60009BF8054635B1201D00EB88012846FFF78D
:102A700041FF68B90DB95DA100E06DA10846FFF7FF
:102A800053FF5D480068401C5B490860002089E7EF
:102A900008F1010000F0FF08B8F1040FDDDB52A1DE
:102AA000002002F079F848B150A0FFF73DFF5248EE
:102AB0000068401C50490860002073E70120207026
:102AC00070E75EA1284602F02EF820B15CA12846EE
:102AD00002F029F870BB2878452801D1032000E0D6
:102AE0000420824640A1002002F056F8054625B198
:102AF000611C2846FFF7E3FE48B952A0FFF714FF18
:102B00003D480068401C3C49086000204AE736A167
:102B1000002002F041F848B134A0FFF705FF364825
:102B20000068401C3449086000203BE784F800A09E
:102B3000012037E746A1284601F0F5FF00283CD1E7
:102B400029A102F029F8054625B1611C2846FFF7A6
:102B5000B6FE48B93BA0FFF7E7FE27480068401CD7
:102B60002549086000201DE71FA1002002F014F88D
:102B700005464DB91DA0FFF7D7FE1F480068401C51
:102B80001D49086000200DE7002001900A2201A9DC
:102B9000284602F023F807460198A84202D001987F
:102BA000007848B12BA0FFF7BFFE13480068401C17
:102BB000114908600020F5E652E078E05E00002050
:102BC00060000020880100206200002064000020D6
:102BD0006C00002088020020004400404552523A18
:102BE00025730D0A000000002C0000006172675F71
:102BF000636F756E74000000740000206261645F92
:102C0000707265666978000053544F5000000000F0
:102C10004553544F50000000434C4541525F4553CB
:102C2000544F5000494E464F00000000570000002E
:102C300070617273655F666C6F61740045000000BF
:102C4000440000006261645F6368616E6E656C00E1
:102C50004D00000070617273655F696E7400000062
:102C600017F57A7F02DBB7F57A7F09DDF7A0FFF76A
:102C70005BFEF8480068401CF6490860002091E6B9
:102C8000AFF29C01002001F087FF50B1AFF2A40029
:102C9000FFF74AFEEF480068401CEE49086000203C
:102CA00080E60220207038B2608001207AE6AFF220
:102CB000B400FFF739FEE7480068401CE5490860AA
:102CC00000206FE62DE9F04107460C4615463846D0
:102CD00001F022FF0646601EB04205D9A01B421E2D
:102CE0002946384601F03AFFBDE8F0812DE9F0476A
:102CF00086B00746884616460021304602F078F82E
:102D00000CD8D549304601F0F9FF82464FF07C518E
:102D100001F09CFF814602F02CF80BE0CE493046D2
:102D200001F0ECFF82464FF07C5101F0E1FF81465B
:102D300002F01FF80546002D01DA684200E028463F
:102D40000446002D0EDA4FF47A70B4FBF0F100FB6C
:102D50001149B4FBF0FA4B465246C0A1684602F056
:102D6000BFFC0DE04FF47A70B4FBF0F100FB1149A9
:102D7000B4FBF0FA4B465246BBA1684602F0B0FCE9
:102D80006A4641463846FFF79DFF06B0BDE8F0872A
:102D900010B586B0044601210520FDF75FFE012134
:102DA0004804FDF768FE0420ADF8140018208DF8E3
:102DB000170003208DF8160005A9AE48FDF792FB19
:102DC0000820ADF8140004208DF8170005A9A948C3
:102DD000FDF788FB01A8FEF75FFE01940C20ADF81B
:102DE0000E0001A9A448FEF7EEFD012240F2255194
:102DF000A148FEF780FE002240F227719E48FEF7B0
:102E00007AFE01219C48FEF76AFE26208DF800001C
:102E100000208DF801008DF8020001208DF80300DC
:102E20006846FDF796FA00209449087094490870A6
:102E300094490880944908809449088094490880FE
:102E40009449086094490860944908708149086071
:102E500006B010BD38B5044690480078A8B172B6E7
:102E6000884800888849088000208C49087062B62C
:102E70000020824908700120814908707548006867
:102E8000401C74490860002038BD3FE09DF80000F8
:102E90000D2800D13AE09DF800000A281AD17848A0
:102EA000007840B1002076490870744908707CA011
:102EB000FFF73AFD2AE000207D49704A12788854D5
:102EC0006E49087021467A48FFF75CFD08B1012081
:102ED000DAE71BE06A48007800B117E0674800783D
:102EE0003F280AD29DF80010644802780078401C00
:102EF000624B18706E48815407E0012060490870E9
:102F000054480068401C5349086000BF6846FFF7FA
:102F10005DFC0028BAD100BFB6E710B565A0FFF789
:102F20007DFC10BD10B58AB00446224665A16846F6
:102F300002F0D6FB6846FFF771FC0AB010BD10B571
:102F400063A0FFF76BFC10BD70B59AB006460C4647
:102F500015462346721C68A102A8009502F0C0FB2A
:102F600002A8FFF75BFC1AB070BD2DE9F043A5B0D5
:102F700004460D4616461F46DDE92C892B46621C89
:102F800062A105A88DE8C00302F0AAFB05A8FFF71F
:102F900045FC25B0BDE8F08370B5B0B005460E46DF
:102FA00061A1684601F0EEFD00240DE0AFF2C832E9
:102FB000C0216846FFF786FE55F82420C0216846E8
:102FC000FFF794FE601CC4B2042CEFDB00240DE07C
:102FD000AFF2EC32C0216846FFF774FE56F82420A9
:102FE000C0216846FFF782FE601CC4B2042CEFDBF0
:102FF00040A2C0216846FFF765FE6846FFF70EFC59
:1030000030B070BD10B59AB00446B4F90600B4F9FA
:103010000410CDE90010B4F90230B4F9002043A146
:1030200002A802F05DFB02A8FFF7F8FB1AB010BD82
:103030002DE9F041C6B005460E461746984640A118
:1030400006A801F09FFD00248EE0000072616E670B
:10305000650000007400002000007A442D256C7586
:103060002E2530336C750000256C752E2530336CA1
:103070007500000000080140004400405C00002092
:103080005D0000205E000020600000206200002043
:1030900064000020680000206C0000207000002008
:1030A0006C696E655F746F6F5F6C6F6E67000000B8
:1030B000480100204353525F5246315F524541441C
:1030C000590D0A0041434B3A25730D0A00000000D8
:1030D000494E464F2C434F4D42494E45442C312ECC
:1030E000302E302C4D4F54494F4E5F56312C4152AB
:1030F0004D5F56320D0A0000454E432C25752C2598
:103100006C642C256C640D0A000000004442472CBE
:1031100025752C25752C25752C25752C256C642C76
:10312000256C640D0A00000056454C0050574D2C8C
:1031300025642C25642C25642C25640D0A000000D0
:103140004E41564442470000AFF264524FF4807142
:1031500006A8FFF7B7FD55F824204FF4807106A8A4
:10316000FFF7C4FD601CC4B2042CEDDB00240FE0AB
:10317000AFF28C524FF4807106A8FFF7A3FD56F80A
:1031800024204FF4807106A8FFF7B0FD601CC4B284
:10319000042CEDDB00240FE0AFF2B4524FF4807149
:1031A00006A8FFF78FFD57F824204FF4807106A87A
:1031B000FFF79CFD601CC4B2042CEDDB00240DE085
:1031C00038F9142036A1684602F08AFA6A464FF4AC
:1031D000807106A8FFF776FD601CC4B2042CEFDBFB
:1031E000AFF2F0024FF4807106A8FFF76BFD06A85E
:1031F000FFF714FB46B0BDE8F0812A48006870472D
:1032000029480068704729480068704770B540F247
:1032100025512748FEF754FDF0B12548FEF7D0FCB4
:10322000C5B24FF4807123480088FFF7C9FA0446FD
:1032300021480088844206D020481E490988455408
:103240001C48048007E017480068401C15490860C6
:1032500001201B49087000BF40F227711448FEF797
:103260002FFDD8B1174800881749098888420FD028
:103270001648144A1288815C0D48FEF79DFC4FF4F5
:10328000806110480088FFF79BFA0E49088005E02E
:10329000002240F227710648FEF72DFC70BD0000A9
:1032A0002C256400680000206C00002074000020C1
:1032B000004400405E0000206000002088010020E3
:1032C00070000020640000206200002088020020BE
:1032D00010B504460021204601F080FD02D284F0A2
:1032E000004010BD2046FCE770B506460D4614466A
:1032F0002946304601F072FD01D2284670BD2146B4
:10330000304601F075FD01D22046F7E73046F5E77B
:1033100070B504460021204601F06AFD09D84FF03F
:103320007C51204601F092FC054601F022FD00B2DE
:1033300070BD4FF07C51204601F0DAFC054601F0EB
:1033400018FD00B2F4E700200EE00021FE4A42F82A
:103350002010FE4A42F82010FD4A42F82010FD4A93
:1033600042F82010411CC8B20428EEDB7047002050
:1033700008E00021F84A42F82010F84A42F82010EC
:10338000411CC8B20428F4DB7047002005E000218E
:10339000F34A22F81010411CC8B20428F7DB70472A
:1033A00010B5FFF7E4FFFFF7F0FFFFF7CCFF0024B5
:1033B00005E00020EB4921F81400601CC4B2042C85
:1033C000F7DBFEF7A6FF0020E749087010BD10B537
:1033D00000240DE0E24830F81400E24921F814001E
:1033E000084630F914102046FFF713F8601CC4B2E9
:1033F000042CEFDB10BD70B504462046FFF720F922
:103400000546284601F0ACFC0646D84901F076FC9A
:1034100070BD70B505460C462846FFF759FF0646B5
:10342000D34901F0DBFC07D32046FFF751FF0646E6
:10343000CF4901F0D3FC01D2002070BD0021284605
:1034400001F0D6FC01D2012600E000260021204632
:1034500001F0CEFC01D2012000E000207040ECE73A
:103460000021B94A42F82010B84A42F82010BD4A5B
:1034700022F8101070472DE9F84F04460E46174603
:103480003046FFF725FF8246B94901F0A7FC08D274
:103490000020AD4941F82400AC4941F82400BDE8C2
:1034A000F88F3946304601F023FC0546B14951F802
:1034B0002400294601F022FCAF49009001F01EFCD7
:1034C0008246A24850F82410284601F011FC0090D2
:1034D000AA4850F82410009801F010FC8346514689
:1034E00001F0B4FB8046984951F82400414601F0B0
:1034F000ADFB954941F8240051F82400A04AA149A8
:10350000FFF7F2FE904941F82400904840F824501B
:103510009D49085701F024FC82468B4850F824103E
:10352000504601F0EBFB81464846FFF7F1FEB6E757
:1035300010B50446FEF7F8FEFFF76BF8FFF730FF13
:103540009248046010BD2DE9F041914D002460E0E7
:103550002046FFF750FF064631468E4801F0CEFB6D
:1035600007467B4850F824108B4801F0C7FB804683
:10357000394601F06BFB764941F82400084650F8C3
:103580002400744941F82400744A52F82410724A05
:1035900052F8240001F02CFC18D2704951F8240094
:1035A000294601F053FB6D4941F824006A4A52F85C
:1035B00024106A4A52F8240001F01AFC27D2664807
:1035C00050F82400654941F8240020E0634A52F88D
:1035D0002410614A52F8240001F000FC17D25F4920
:1035E00051F82400294601F083FB5C4941F824008E
:1035F000594A52F82410594A52F8240001F0EEFBBF
:1036000005D2554850F82400544941F82400601C64
:10361000C4B2042C9CDB54480078022801D0BDE8D9
:10362000F081002413E04B4850F824204B4850F818
:1036300024102046FFF71FFF4A4921F814000846CE
:1036400030F914102046FEF7E4FE601CC4B2042CCE
:10365000E9DB00BFE3E72DE9F04186B00446884688
:103660004A48C0F80080207806286BD2DFE800F0D6
:10367000AD032C4455A73C480078022805D0FFF73D
:1036800076FEFFF760FEFFF780FE002513E0221DA7
:1036900052F82510304A52F82500FFF7BAFE10B153
:1036A0002846FFF7DDFE201D50F825002A4941F885
:1036B0002500681CC5B2042DE9DB02202A490870E8
:1036C00036A0FFF72FFC81E027480078012805D0BD
:1036D000FFF74DFEFFF737FEFFF757FE01202249A7
:1036E0000870608861781E4A22F81100FFF76FFEAB
:1036F0002BA0FFF717FC69E06078FEF7BDFF0646D8
:103700006078FEF7C2FF074626A0FFF70BFC607843
:103710003A463146FFF718FC58E06078FEF7ACFFF8
:1037200006466078FEF7B1FF0746607803AB04AA4F
:1037300005A9FEF7C5FF1CA0FFF7F4FBCDE9006764
:10374000607833E041E00000C8060020D806002081
:10375000B8060020A8060020880600209806002051
:10376000800000208800002078000020A1ADAE3B42
:103770006F12033AA00000200AD7A33C900000205B
:1037800000007A4400007AC44C0000207C00002035
:10379000CCCC4C3D6666263F3333B33E5700000029
:1037A0004D0000004500000044000000BDF80C3052
:1037B0009DF810209DF81410FFF7D7FB06E0FFF7E7
:1037C000EFFD2EA0FFF7AEFB00E000BF00BF06B08C
:1037D000BDE8F08170B504462A48007800B970BD94
:1037E00028480078022801D1FA2001E04FF4FA605D
:1037F000054625480068201AA84203D9FFF7D0FDE6
:103800002148046000BFEAE710B520492048FFF7CF
:10381000C3FB2048FFF7F6FB1E4B1D4A1E491B4801
:10382000FFF706FC10BD1748007808B90120704763
:103830000020FCE770B500241BE0144951F8240077
:10384000FFF746FD0546154901F0D2FA0DD312499E
:1038500051F82400FFF73CFD0546104901F0C8FA75
:1038600003D30C4830F8140008B1012070BD601C6F
:10387000C4B2042CE1DB0020F8E7000053544F50A1
:1038800000000000780000207C0000208806002056
:10389000A806002088000020980600206F12033A36
:1038A0000146302903DB392901DC01207047002063
:1038B000FCE72DE9F04105460E4617464FF000089B
:1038C000002410E0285DFFF7EBFF10B90020BDE8F1
:1038D000F081285D303808EB880100EB41001FFAC9
:1038E00080F8601CC4B2B442ECDBA7F80080012071
:1038F000EDE738B505460C466A460321681CFFF71C
:10390000D8FF08B9012038BDBDF80000062803D251
:10391000BDF80000FF2801D10220F4E7BDF8000047
:1039200020700020EFE72DE9FC4104460F461546C4
:103930000F2F0BD12078232808D12079502805D1CA
:10394000607A542802D1A07B212802D00120BDE852
:10395000FC8129462046FFF7CCFF06460EB13046D3
:10396000F5E701AA0421601DFFF7A3FF30B16A4605
:10397000042104F10A00FFF79CFF08B90120E6E7E3
:10398000BDF80400B0F5FA7F0BD3BDF8040040F693
:10399000BA11884205D8BDF8000042F20F71884282
:1039A00001D90220D3E7BDF804006880BDF800000B
:1039B000A8800020CBE72DE9F04105460F461446CC
:1039C0000F2F0CD1221D39462846FFF7ACFF0646C3
:1039D00016B901202070A0703046BDE8F081092F93
:1039E00008D12878232805D12879502802D1287AAF
:1039F000212801D00120F0E7611C2846FFF779FF5C
:103A000006460EB13046E8E7032276A1681D01F0B4
:103A100098F818B9022020700020DEE7032272A176
:103A2000681D01F08EF818B9032020700020D4E73B
:103A30000320D2E72DE9FC4707460D461446112D19
:103A400006D338787B2803D1681E385C7D2802D0E5
:103A50000120BDE8FC8701264FF0000835E0A07882
:103A6000062804D2681E801B80B20F2801D20120D4
:103A7000EFE7B8196A460F21FFF755FF8146B9F104
:103A8000000F01D04846E4E79DF80010012088406F
:103A900000EA080008B10120DBE79DF800100120D2
:103AA0008840C0B240EA0808A07800EB4001201D21
:103AB00000EB410000990160BDF804108180A078FE
:103AC000401CA07006F10F0086B2681EB042C6D836
:103AD000B04201D00120BCE701202070E07000203E
:103AE000B7E770B506460C4615462821284600F073
:103AF000FCFF16B10CB1802C01D3012070BD3078D1
:103B0000232805D12A4621463046FFF754FFF5E722
:103B100030787B2805D12A4621463046FFF78AFFB8
:103B2000ECE73078242803D10A2028700320E5E749
:103B30003078402801D00120E0E70E2C09D10E2278
:103B40002AA1304600F0FDFF18B90420287000209B
:103B5000D4E7062C09D1062228A1304600F0F1FF57
:103B600018B9052028700020C8E7062C09D10622C4
:103B700024A1304600F0E5FF18B906202870002087
:103B8000BCE7062C09D1062220A1304600F0D9FF5F
:103B900018B9072028700020B0E7072C09D10722A8
:103BA0001CA1304600F0CDFF18B908202870002075
:103BB000A4E70D2C09D10D2218A1304600F0C1FF59
:103BC00018B909202870002098E7032096E70146DD
:103BD000022901D115A07047032901D115A0FAE7E8
:103BE00017A0F8E744535400524144004048454C64
:103BF0004C4F3A41524D5F563221000040494E46EB
:103C00004F21000040444941472100004050494EA7
:103C100047210000404553544F50210040434C453C
:103C200041523A4553544F50210000004C494D49F0
:103C300054000000554E535550504F5254454400C7
:103C40004241445F4652414D45000000421C90B243
:103C5000884200DB0020704770B50546F6480088B2
:103C6000F6490988884201D1002070BDF3480488D4
:103C7000F348005D28704FF400712046FFF7E6FF1F
:103C8000EE4908800120F0E7EE480288EE480188FE
:103C90008A4205DB501AC0F50070401E80B27047A2
:103CA000881A401E80B2FAE70020E8490880E849F7
:103CB0000870E84908707047E74A10700122E34B2A
:103CC0001A80E64A11600122E24B1A707B2801D16A
:103CD0007D2200E02122DE4B1A70704710B586B0BD
:103CE000044601210820FCF7B9FE01218804FCF7F5
:103CF000C2FE4FF48060ADF8140018208DF8170054
:103D000003208DF8160005A9D548FCF7EBFB4FF40E
:103D10000060ADF8140004208DF8170005A9D04804
:103D2000FCF7E0FB01A8FDF7B7FE01940C20ADF80D
:103D30000E0001A9CB48FDF746FE012240F22551B5
:103D4000C848FDF7D8FE002240F22771C548FDF7AC
:103D5000D2FE0121C348FDF7C2FE27208DF80000E6
:103D600001208DF8010000208DF8020001208DF85F
:103D700003006846FCF7EDFA0020AF490880AF4920
:103D80000880B0490880B0490880B7490860B74941
:103D90000860B7490870B7490860B7490860B74973
:103DA0000860FFF781FF06B010BD2DE9F04106461F
:103DB000304600F0B1FE87B2FFF766FFB84207DA7F
:103DC000AA480068401CA94908600020BDE8F081AD
:103DD0009C48058800240AE0305DA94948554FF405
:103DE00000712846FFF732FF0546601C84B2BC42D2
:103DF000F2DB72B693480580012240F227719948A0
:103E0000FDF779FE62B60120E0E7F8B505460E46FB
:103E100017461C4696480078C0B172B6864800889E
:103E20008649088000209249087062B600208749C0
:103E30000880874908700420864908708D4800680A
:103E4000401C8C4908604FF0FF30F8BD8148007875
:103E500001280ED181480068201A642809D98548B4
:103E60000068401C83490860FFF71EFF4FF0FF30D9
:103E7000EBE7B1E07748007848BB9DF800002328C5
:103E80000BD09DF800007B2807D09DF80000242867
:103E900003D09DF80000402805D121469DF8000080
:103EA000FFF70AFF12E09DF800000D280ED09DF8E4
:103EB00000000A280AD09DF80000202806D09DF8AE
:103EC0000000092802D003206249087084E061489C
:103ED000007803280ED19DF800000A2809D1654812
:103EE0000068401C63490860FFF7DEFE4FF0FF30BA
:103EF000ABE771E05748007804280ED19DF8000028
:103F0000212807D09DF800007D2803D09DF80000EF
:103F10000A2801D1FFF7C8FE5EE04E48007802286B
:103F200014D19DF800004A490978884203D09DF8D1
:103F300000000A2809D14F480068401C4D4908601C
:103F4000FFF7B2FE4FF0FF307FE745E043480460E3
:103F5000414800787B2807D19DF800007B2803D1D9
:103F600002203C49087037E0384800887F2803D396
:103F70000220384908702FE09DF80010334802886D
:103F80000088401C314B1880334881549DF8000054
:103F90002F49097888421ED118460088B04209DBB3
:103FA00034480068401C33490860FFF77DFE4FF03D
:103FB000FF304AE7254802882749284600F07CFD63
:103FC0000020224909886854204800883880FFF77B
:103FD0006BFE012039E700BF6846FFF73DFE002871
:103FE0007FF448AF00BF30E710B526A0FFF7DDFE35
:103FF00010BD10B527A0FFF7D8FE10BD10B52DA03D
:10400000FFF7D3FE10BD10B58CB0044622462CA19C
:10401000684601F065FB6846FFF7C7FE0CB010BDAF
:1040200011480068704711480068704711480068DF
:104030007047114800687047B0000020B2000020AF
:10404000E8060020B4000020B6000020B8000020E0
:10405000BA000020BB000020E80A0020BC000020BD
:10406000000C014000480040C0000020C4000020B7
:10407000C8000020CC000020D0000020D400002088
:10408000E80800204052454144593A41524D5F569C
:104090003221000040494E464F3A434F4D42494E6F
:1040A00045443A312E302E303A41524D5F5632213E
:1040B000000000004041434B3A4F4B2100000000FC
:1040C000404552523A257321000000002A480068FA
:1040D000704770B540F225512848FDF7F1FD18B33F
:1040E0002648FDF76DFDC5B225480068401C2449EF
:1040F00008604FF4007123480088FFF7A7FD0446CD
:1041000021480088844206D020481E490988455429
:104110001C48048007E01E480068401C1C490860D9
:1041200001201C49087000BF40F227711348FDF7B9
:10413000C7FD00B31848008818490988884214D080
:104140001748154A1288815C0C48FDF735FD0A486E
:104150000068401C084908604FF400710E48008850
:10416000FFF774FD0C49088005E0002240F227713A
:104170000248FDF7C0FC70BDD4000020004800409C
:10418000D0000020B0000020B2000020E80600208F
:10419000C0000020C8000020B6000020B4000020AD
:1041A000E8080020421C90B2884200DB00207047E3
:1041B000F9480288F94801888A4205DB501AC0F59F
:1041C0000070401E80B27047881A401E80B2FAE725
:1041D00070B50546F2480088F2490988884201D145
:1041E000002070BDEF480488EF48005D28704FF450
:1041F00080712046FFF7D6FFEA4908800120F0E7EA
:104200000020EA490880EA490870EA4908707047C6
:1042100010B586B0044601211020FCF71FFC0121D7
:104220000805FCF728FC4FF48050ADF814001C2062
:104230008DF8170003208DF8160005A9DE48FCF75D
:1042400051F901A8FDF728FC01940C20ADF80E00EF
:1042500001A9DA48FDF7B7FB0121D848FDF7E2FCD8
:10426000012240F22551D548FDF745FC002240F2DD
:104270002771D248FDF73FFC002240F22661CF486B
:10428000FDF739FC0121CD48FDF729FC35208DF8DB
:10429000000002208DF8010000208DF802000120AE
:1042A0008DF803006846FCF754F80020BC490880EC
:1042B000BC490880B8490880B8490880C0490870DE
:1042C000C0490860C0490860C0490860C04908602A
:1042D000C0490860C0490870C0490870FFF790FFE6
:1042E00006B010BD2DE9F0410746384600F014FC39
:1042F00086B21EB1FFF75CFFB04207DAB248006831
:10430000401CB14908600020BDE8F081A248058842
:1043100000240AE0385DB24948554FF40071284640
:10432000FFF740FF0546601C84B2B442F2DB72B670
:1043300099480580A248007868B90120A049087012
:10434000002240F225519D48FDF7D5FB40F2266141
:104350009A48FDF7DFFC012240F227719748FDF7EC
:10436000CAFB62B60120CFE7F8B505460E461746F0
:104370001C468F48007870B19A480068201A64285B
:1043800009D992480068401C90490860FFF738FF3F
:104390004FF0FF30F8BD67E08548007868B99DF8B8
:1043A0000000232808D19049087001207F49088027
:1043B0007F4908708B48046056E08A4804609DF885
:1043C0000000232808D18849087001207749088017
:1043D00000207849087047E07648007870B19DF871
:1043E0000000212809D179480068401C77490860FD
:1043F000FFF706FF4FF0FF30CCE735E06B48008851
:104400003F2803D301206B4908702DE09DF8001070
:10441000664802880088401C644B188072488154AA
:104420009DF8000021281ED118460088B04209DB03
:1044300066480068401C65490860FFF7E1FE4FF0E0
:10444000FF30A7E7594802886749284600F034FB47
:104450000020564909886854544800883880FFF77E
:10446000CFFE012096E700BF6846FFF7B1FE0028A7
:1044700092D100BF8EE75248007808B901207047FA
:104480000020FCE74F48006870474F4800687047BD
:104490004E48006870474E48006870474D480068B5
:1044A000704770B503460A4672B64C4D2878904264
:1044B00000DD1046484D2D782D1A05F00F0400211F
:1044C00007E0651805F00F05484E755D5D544D1CFD
:1044D000E9B28142F5DB62B670BD70B540F225519C
:1044E0003648FDF7EDFB70B33448FDF769FBC5B204
:1044F00037480068401C364908603C48364909780E
:10450000455435480078401C00F00F0032490870CF
:1045100032480078102804D230480078401C2F49D7
:1045200008704FF480711E480088FFF73BFE044678
:104530001C480088844207D01B4819490988455403
:104540001748048005E005E01E480068401C1D492E
:10455000086000BF40F227711848FDF7B1FBD0B1E9
:104560000E4800880C490988884241D01C480B4AF3
:104570001288815C1148FDF71FFB16480068401C3B
:10458000144908604FF4007104480088FFF70AFEE0
:104590000249088038E037E0DC000020DE0000201F
:1045A000D8000020DA000020680B0020E200002084
:1045B000E4000020E5000020001001400050004011
:1045C000E0000020EC000020F0000020F4000020BB
:1045D000F8000020FC000020000100200101002064
:1045E000680C0020E8000020680E0020A80E0020C3
:1045F000002240F227711248FDF77DFA012240F2B5
:1046000026610F48FDF777FA40F226610C48FDF766
:1046100057FB98B140F226610948FDF77BFB002269
:1046200040F226610648FDF766FA012240F2255164
:104630000348FDF760FA00200249087070BD0000D1
:1046400000500040E0000020F0B587B006460D465F
:104650001446A088009063882278B0A101A801F0D8
:104660003FF8304600F058FA281A471E3A4601A98A
:10467000304600F073FA07B0F0BD2DE9F041044672
:104680000D46164600202870E07810B1A8A00088DA
:10469000288000270AE007EB4701201D00EB4102BC
:1046A00031462846FFF7D0FF781CC7B2A078B84241
:1046B000F1DCE07850B1284600F02EFA301AA0F173
:1046C000010842469BA1284600F048FA284600F01F
:1046D00023FAB04202D20120BDE8F0810020FBE7BE
:1046E000002006E040F2DC51934A22F81010411CF1
:1046F000C8B20628F6D30021904A1160904A117082
:10470000904A1170904A1170904A1160704710B52C
:1047100004468B48007810B9FFF7ADFE08B90020B9
:1047200010BD86480068201AC017401CF8E72DE924
:10473000F041A0B004460F46164657B12078022833
:1047400007D03046FFF7E3FF18B9012020B0BDE8DD
:10475000F0812078012839D1802269462046FFF770
:104760008CFF08B90220F1E76846FFF7BBFD08B9E6
:104770000220EBE74FF0000800251EE005EB4501A5
:10478000201D00EB4100418805EB4502201D10F87B
:104790001200694A22F8101005EB4501201D00EBBC
:1047A00041008088404506DD05EB4501201D00EBFA
:1047B0004100B0F80480681CC5B2A078A842DDDCD6
:1047C00006EB08005D4908600020BFE7207802285A
:1047D0000ED162785EA1684600F082FF6846FFF75E
:1047E00081FD08B90220B1E7544806600020ADE71A
:1047F000207803281DD15248007808B10120A5E790
:10480000627856A1684600F06BFF6846FFF76AFDC4
:1048100008B902209AE70120494908704948077001
:1048200060784949087006F1C800484908600020CE
:104830008CE702208AE77FB50546002409E022467E
:1048400043A1684600F04CFF6846FFF74BFD601C33
:10485000C4B2062CF3D339480560002038490870EB
:104860007FBD30B593B0044623466A46402103A875
:10487000FFF77AFD0546002D19DD3148007820B399
:104880003148027838A101A800F02AFFBDF80000E5
:1048900007281AD3052201A903A800F052F9A0B9EC
:1048A00003A8FFF782FA0020254908700DE0002DCB
:1048B0000BDA2348007828B12248007810B12CA0E8
:1048C000FFF7A1FB00201E4908701D48007860B169
:1048D0001E480068201A08D41A48007810B127A092
:1048E000FFF791FB00201649087013B030BD00217E
:1048F0000FE0114830F81100B0F5966F05D30E485F
:1049000030F81100B0F5E16F01D901207047481C63
:10491000C1B20629EDD30020F8E70000232530338B
:104920007550253034755425303475210000000051
:104930007B0000007D000000B80E00200401002074
:1049400008010020090100200A0100200C010020BC
:104950002325303375504453542100002325303330
:10496000755052414421000023253033755000001A
:104970004241445F4652414D4500000054494D4577
:104980004F5554000021424A1170424A1170424A68
:104990001170424A1170424908600021414A116079
:1049A000414A1160704710B504460120384908702B
:1049B000FEF7F6FC2046FFF73EFF10BD10B504469B
:1049C0003348007808B9012010BDFEF72CFF18B15C
:1049D0002046FFF79CFE08B90020F5E700202C498F
:1049E00008700120F0E72A48007870470121294A21
:1049F00011700021284A1170294908607047254923
:104A0000097821B1264908600021234A11707047B6
:104A100020480078704710B504461E480078C8B199
:104A20001D480078B0B91E480068201AB0F5C87F4C
:104A300010D92046FFF7FFFE1CA0FFF7E4FA012083
:104A40001549087000201349087017480068401C79
:104A50001549086010BD10B5FEF7ECFE20B1FFF758
:104A600046FF08B1012000E0002004463CB10B489D
:104A7000007820B90B480068401C0A4908600748C4
:104A8000047010BD07480068704707480068704709
:104A9000100100201101002012010020130100204C
:104AA00014010020180100201C010020574154432C
:104AB00048444F470000000040EA01039B0703D031
:104AC00009E008C9121F08C0042AFAD203E011F84D
:104AD000013B00F8013B521EF9D27047D2B201E00F
:104AE00000F8012B491EFBD270470022F6E710B5F3
:104AF00013460A4604461946FFF7F0FF204610BD4C
:104B000010B5044604E00B7800F8013B03B1491CE2
:104B1000521EF8D2204610BD421C10F8011B00297D
:104B2000FBD1801A704710B5002200E0521C835C54
:104B30008C5CA34201D1002BF8D1D8B2E1B2401A6B
:104B400010BD30B504460020034600E05B1C9342D4
:104B500003D2E05CCD5C401BF8D030BD10B50446FC
:104B600000E0401C0378002BFBD100E0401C521EEB
:104B700004D311F8013B0370002BF7D10021017021
:104B8000204610BD034611F8012B00F8012B002A26
:104B9000F9D118467047000070B50F4D00B928686C
:104BA000002412E00A4602E09E4203D0521C137811
:104BB000002BF9D1DAB2224305D02BB124B1002168
:104BC00000F8011B04E00446401C0678002EE9D1E1
:104BD0002860204670BD0000200100202DE9F0472C
:104BE00091460F4680460446002614F8015B2DB11D
:104BF00000F03AF90068405DC007F6D12B2D02D0D5
:104C00002D2D18D0641E4A463946204600F039F949
:104C100027B13968A14201D1C7F8008071054FF072
:104C200002040BD54042002803DD00F06DFD046056
:104C3000A007BDE8F08746F48066E4E70028F8DACC
:104C400000F062FD04606FF00040F2E7F0B480EA2B
:104C50000102D40F4200B2EB410F02D202460846D5
:104C600011464A0042D0C30DDDB2C1F3C752AD1A9E
:104C7000202D35DAC1F3160141F4000204B152428D
:104C8000C5F1200602FA06F12A411044B3EBD05FC9
:104C900023D0C4B1012DA0EBC35009DCF0BC4FF010
:104CA000004202EAC352DBB200F5000000F08FB907
:104CB000400000F1807000EBC350A0F1807040EA2A
:104CC000D170490009E0490841EAC071A0EBC35026
:104CD00000F50000400800EBC350F0BC00F06EB9D6
:104CE0006142012202EB4101001BF6E7F0BC704774
:104CF00081F00041AAE780F00040A7E780EA0102C6
:104D000010B502F00043400022D04A001FD0010E2F
:104D100001EB1261C0F35600C2F3560240F40000EA
:104D200042F40002A0FB022000047F39140400D0EA
:104D3000401C50EA124001D44000491EC2B20C0689
:104D400004EBD010401C4008802A02D003E0002071
:104D500010BD20F00100002900DA0020184310BD2A
:104D6000C10F80EAE0700844CA079623002100F0D2
:104D70002EB900F0004220F00040C10DC0F3160033
:104D800040F400007F2901DA00207047962903DCF7
:104D9000C1F19601C84001E096398840002AF4D05C
:104DA0004042704701F0004330B421F0004150EA26
:104DB000010206D00A0DA2F56072C1F31301002AA8
:104DC00002DC30BC00207047440F44EAC104C1003B
:104DD000E01830BC00EBC25000F0F0B8002801DB56
:104DE000C0F10040002901DBC1F100418142704760
:104DF000002801DBC0F10040002901DBC1F10041C6
:104E0000884270472DE9F05F0546002092469B4698
:104E100088460646814640241BE0284641464746D0
:104E2000224600F004FA53465A46C01A914110D364
:104E300011461846224600F0EBF92D1A67EB0108DF
:104E40004F4622460120002100F0E2F917EB00094D
:104E50004E41201EA4F10104DFDC484631462A46BB
:104E60004346BDE8F09F000000487047485C0008DA
:104E700010B50446FFF7F8FF0068005D00F0010080
:104E800010BD2DE9F05F82460078002715468B465D
:104E90000AF10104B946302801D09DB113E014F89D
:104EA000010B0127782803D0582801D045B10AE02A
:104EB0000DB1102D07D10027102514F8010B02E0C9
:104EC000082500E00A250026B0460EE005FB080094
:104ED00005FB06F1012701EB10461FFA80F8B6F535
:104EE000803F00D3B94614F8010B294600F0AFF912
:104EF0000028EBDABBF1000F05D00FB1641E00E013
:104F00005446CBF80040B9F1000F06D000F0FCFB8E
:104F100002210160C81EBDE8F09F48EA0640FAE79A
:104F20000FB4002300B589B00CA900910B996FF064
:104F30000042CB601E4B06931E4B07930423CDE922
:104F400001321D4A089202466B46002000F022FA08
:104F500009B05DF814FB70B586B006464FF0FF301F
:104F60000091CDE90101002015460C46049032461F
:104F7000694604A8FFF7D4FF02460498211825B11A
:104F800008B1084600E020462860049800280DD0AB
:104F9000002A02DD0098884208D0081B0094CDE961
:104FA00001043246694604A8FFF7BAFF06B070BD97
:104FB000CD550008EB550008714E00080029A8BF28
:104FC0007047401C490008BF20F00100704710B432
:104FD000B0FA80FC00FA0CF050EA010404BF10BCE7
:104FE000704749B1CCF1200421FA04F411FA0CF114
:104FF00018BF012121430843A3EB0C01CB1D4FEA4D
:1050000000614FEA102042BF002010BC704700EB47
:10501000C35010440029A4BF10BC7047401C490075
:1050200008BF20F0010010BC70472DE9FE4F81EA57
:10503000030404F0004421F0004100944FF0000B01
:1050400023F0004350EA01045ED052EA03045BD02F
:10505000C3F30A54C1F30A552C44A4F2F334019467
:10506000A0FB0254C1F3130141F48011C3F31303F5
:1050700043F4801301FB024400FB034E840A970AA9
:1050800044EA815447EA8357A4FB076802958D0AD6
:1050900005FB07854FEA932C04FB0C542705029D62
:1050A0004FEA065847EA1637B5EB08056EEB070CD2
:1050B000870E920E47EA811742EA8312A7FB02018C
:1050C000B6EB0B0164EB00042B0D43EA0C335E18C6
:1050D00044EB1C50DA465146E7FB0201C5F31304CA
:1050E0004FEA0B3343EA14534FEA0432019C43EA7C
:1050F0000603A4F10C040294009CCDE900B400F076
:1051000094FA03B0BDE8F08F00200146F9E72DE9DD
:10511000F04D81EA030404F0004B21F000451446F1
:105120004FF0000A23F0004150EA050220D054EA73
:1051300001021DD0C5F30A570246C5F31303C1F39C
:105140001300C1F30A5640F4801543F48013A7EB13
:105150000608101BD64608F2FD3873EB050002D393
:1051600008F1010801E092185B41B8F1000F03DA81
:1051700000200146BDE8F08D00204FF48011064666
:1051800084460EE0171B73EB050705D3121B63EB78
:10519000050306434CEA010C49084FEA3000921817
:1051A0005B4150EA0107EDD152EA030012D082EAD6
:1051B000040083EA0501084305D0101BAB4106D269
:1051C0000122002306E000224FF0004302E06FF0CE
:1051D000010253101AEB06004CEB085110EB0A00C9
:1051E00041EB0B01BDE8F04D00F010BA064C074D45
:1051F00006E0E06840F0010394E8070098471034A7
:10520000AC42F6D3FAF798FFD45C0008F45C0008CF
:10521000202A04DB203A00FA02F100207047914076
:10522000C2F1200320FA03F3194390407047202A6B
:1052300004DB203A21FA02F00021704721FA02F340
:10524000D040C2F1200291400843194670473A28E5
:1052500000D2303820F02002412A01D3A2F13700D9
:10526000884201D34FF0FF30704700002DE9FF4F17
:10527000087883B09946FF2805D0491C2D2804D012
:105280000024002008E000200BE00124F9E700EBF7
:10529000800003EB4000491C0B78FF2BF7D104B1D1
:1052A000404200230293147819461D462D2C01D04C
:1052B0002B2C04D1521C2D2C13D000240294AA466E
:1052C0001478FF2C0FD00A25A3FB057801FB05817C
:1052D0004FF0000C03FB0C11521CE3194AEB0101C7
:1052E000EEE70124EAE7814453EA010002D019F510
:1052F000C87F06DA03980021C0E9001107B0BDE8B5
:10530000F08F0025AE4E2F46DFF8B882184600F029
:10531000DAF9CDE90001B9F1000002DAC9F10004BF
:1053200000E004460023A74A1AEB030B42EB045AA1
:1053300012E0E00707D02A46334638464146FFF7D9
:1053400074FE074688462A46334610461946FFF73C
:105350006CFE05460E466410002CEAD1DDE9000122
:10536000B9F1000F5A46534606DAFFF7D0FE3A4627
:105370004346FFF7CCFE05E0FFF757FE3A464346AB
:10538000FFF753FE029A0AB181F00041039AC2E985
:105390000001B3E72DE9FF4F1F468DB0D7E9014665
:1053A0004FF0FF382E2045464FF000090B90B969A9
:1053B0006D1C0E988847396A824688470028F6D1C6
:1053C000BAF1FF3F0AD024F4D064002E11DDBAF107
:1053D0002B0F08D0BAF12D0F0BD102E0404611B0CF
:1053E0008DE744F48064B9696D1C0E988847824645
:1053F000761E6946600501D52D2000E02B208DF832
:10540000000001F1010B0DF1200809E0B9696D1CE4
:105410000E98884782460F9844F40074761E056003
:10542000002E02DDBAF1300FF0D00B998A453ED143
:1054300044F0800406E00F99681CA9F1010944F4C6
:1054400000740860B9696D1C761E0E988847824604
:105450003028F0D02BE00B998A4505D1200603D4E3
:1054600044F08004761E18E0504600F060F908B35E
:105470000DF11301761E44F400748B4508D2AAF195
:1054800030000BF8010B200607D5A9F1010003E05D
:10549000200602D409F101008146A00502D50F992A
:1054A000681C0860B9696D1C0E9888478246002EFA
:1054B000D1DC53E0002E51DDBAF1650F02D0BAF114
:1054C000450F4BD1A00549D5B9696D1C24F4407432
:1054D000761E0E9888478246002E0CDD2B2804D0BD
:1054E000BAF12D0F07D144F48074B9696D1C0E9880
:1054F00088478246761EE00501D52D2100E02B214C
:1055000008F8011BCDF82C8021E00DF12901761E51
:1055100044F4007488450CD2AAF1300010F0FF006A
:1055200088F8000002D10B99884509D908F10108D3
:1055300006E0E00501D5244801E042F20F70814603
:10554000B9696D1C0E98884782460F980560002E39
:1055500004DD504600F0EBF80028D6D1F9690E982A
:105560008847FF208BF8000088F800000020069094
:1055700007904B466A4608A906A8FFF777FEA005E4
:1055800002D46FF001002AE714F0240F0AD0E007DC
:1055900014D1DDE906123868031D3B600068C0E9DC
:1055A00000120BE0DDE90601FFF7FCFB0146E00716
:1055B00004D13868021D3A600068016028460EE791
:1055C000000014400000F03FF1D8FFFF426842B1F4
:1055D000016811F8013B23B1521EC0E900121846C0
:1055E00070470121C160881E704742685AB1C36884
:1055F000016843B983688B4205D0491E521CC0E93B
:105600000012002070474FF0FF30704710B5141E95
:1056100073F1000408DA401C41F1000192185B416B
:105620001A4301D120F0010010BD2DE9F04D924642
:105630009B4611B1B1FA81F202E0B0FA80F2203259
:105640009046FFF7E5FD04460F4640EA0A0041EAAE
:105650000B0153465A46084313D0114653EA010042
:1056600019D0C8F140025046FFF7E1FD05460E464D
:10567000504659464246FFF7CBFD084305D001206E
:1056800004E020463946BDE8F08D0020054346EA97
:10569000E0762C4337430A986305E40AA0EB080040
:1056A0000022FD0A44EA47540A3002D50020014690
:1056B000E9E7010510196941DDE90845001969416B
:1056C000BDE8F04DA2E70EB540F23342029200224F
:1056D000CDE900221346FFF7A8FF03B000BD00008C
:1056E0000FB4084B10B504A902AA039800F026F8DD
:1056F000044602A9002000F052FA204610BC5DF8D2
:1057000014FB00009F5B0008004870472401002044
:1057100002E008C8121F08C1002AFAD1704770477A
:10572000002001E001C1121F002AFBD17047303870
:105730000A2801D201207047002070472DE9FF4F51
:105740008DB00F460546002606E025280BD0DDE982
:105750000F1290476D1C761C28780028F5D111B0E7
:105760003046BDE8F08F0024A246A1460122EC4954
:1057700000E0044315F8013F203B02FA03F0084221
:10578000F7D128782A2810D06FF02F022878A0F1BE
:105790003001092914D80AEB8A0102EB410144F0D7
:1057A000020400EB010A6D1CF0E701CF5FEA000A7A
:1057B00003D544F40054CAF1000A44F002046D1CFD
:1057C00028782E2817D115F8010F44F004042A2850
:1057D0000ED06FF02F022878A0F1300109290AD8E5
:1057E00009EB890102EB410100EB01096D1CF2E7B5
:1057F00057F8049B6D1C28786C280FD006DC4C28C9
:1058000017D068280DD06A2814D104E0742810D06D
:105810007A280FD10DE044F400140AE044F4801417
:1058200001E044F440146978814202D104F5801407
:105830006D1C6D1C2A786E2A1FD00CDC632A31D0B7
:1058400004DC002A8BD0582A11D1A3E0642A68D046
:10585000692A0CD165E0732A2ED004DC6F2A73D03C
:10586000702A04D19BE0752A6FD0782A6ED010463A
:10587000DDE90F129047761C50E1C4F30250022874
:1058800006D0032809D0042801CF09D0066045E1DD
:1058900001CFF117C0E9006140E101CF06803DE191
:1058A00006703BE117F8040B8DF8000000208DF81E
:1058B0000100EB46012003E057F804BB4FF0FF3036
:1058C00061074FF0000102D40DE008F101018846A4
:1058D00049450FDA8045F8DB1BF808100029F4D1A0
:1058E00008E008F1010188468142FADB1BF8081044
:1058F0000029F6D1DDE90F23AAEB080081462146F5
:1059000000F036F9304400EB080604E0DDE90F1240
:105910001BF8010B9047B8F10108F7D22146484621
:10592000F7E00A21C4F302534FF0000B0891022B59
:1059300004D001CFC117032B09D00AE0FF1D27F0C7
:105940000707F7E8020108E032E01FE020E000B2BC
:10595000C117042B01D140B2C117031E71F100031E
:1059600007DA4FF0000CD0EB0C006CEB01012D239B
:1059700002E0230504D52B238DF82430012303E016
:10598000E30701D02023F7E7984658E00A2110E00A
:1059900010210EE010204FF0000B08900CE01021B9
:1059A0004FF0000B44F004044FF00809089103E0A5
:1059B00008214FF0000B0891C4F30253022B04D0CE
:1059C00001CF0021032B06D006E0FF1D27F00707BB
:1059D000F7E8020103E080B2042B00D1C0B24FF01F
:1059E000000823072BD5702A07D0DDF820C08CF0E3
:1059F000100C5CEA0B0C05D00EE040238DF824302F
:105A0000012308E050EA010306D030238DF824304A
:105A10008DF8252002239846DDF820C08CF0080C74
:105A20005CEA0B0C0BD150EA010301D1630706D5E8
:105A300030238DF824304FF00108A9F10109582ACC
:105A400004D038A20B9208AA0A920BE03AA2F9E716
:105A50005B46089AFFF7D6F90B9B9B5C0A9A521E8D
:105A60000A92137050EA0102F2D10A98ADEB0000DD
:105A700000F1200B600702D524F4803401E04FF0E0
:105A80000109D94502DDA9EB0B0000E0002000EB85
:105A90000B0141440890AAEB010AE00306D4DDE9BA
:105AA0000F232146504600F063F806444FF00009EA
:105AB00008E009A911F80900DDE90F12904709F182
:105AC0000109761CC145F4DBE0030CD5DDE90F23A9
:105AD0002146504600F04CF8064404E0DDE90F1280
