:020000040800F2
:1000000000000220A90B0008ED0B0008ED0B000812
:10001000ED0B0008ED0B0008ED0B000800000000E0
:10002000000000000000000000000000ED0B0008D0
:10003000ED0B000800000000ED0B0008DD060008D5
:10004000ED0B0008ED0B0008ED0B0008ED0B0008B0
:10005000ED0B0008ED0B0008ED0B0008ED0B0008A0
:10006000ED0B0008ED0B0008ED0B0008ED0B000890
:10007000ED0B0008ED0B0008ED0B0008ED0B000880
:10008000ED0B0008ED0B0008000000000000000070
:100090000000000000000000ED0B0008ED0B000860
:1000A000ED0B0008ED0B0008ED0B0008ED0B000850
:1000B000ED0B0008ED0B0008ED0B0008ED0B000840
:1000C000ED0B0008ED0B0008ED0600082D070008F9
:1000D00000000000ED0B0008ED0B0008ED0B000820
:1000E0000000000000000000000000000000000010
:1000F000ED0B000800000000ED0B0008ED0B000800
:10010000ED0B0008000000000000000000000000EF
:1001100000000000ED0B0008ED0B0008ED0B0008DF
:10012000ED0B0008ED0B00080000000000000000CF
:1001300000000000000000000000000000000000BF
:10014000ED0B0008ED0B0008ED0B0008ED0B0008AF
:10015000ED0B0008ED0B000800000000000000009F
:10016000000000000000000000000000000000008F
:1001700000000000ED0B000800000000000000007F
:08018000ED0B0008ED0B000877
:1001880010B5054C237833B9044B13B10448AFF3C9
:1001980000800123237010BD04000020000000002F
:1001A800900D000808B5034B1BB103490348AFF392
:1001B800008008BD0000000008000020900D000825
:1001C80000238360C0E90012C360704783684268F7
:1001D800013310B5B3FBF2F402FB1433C2689A4240
:1001E8001DBF82680468A15400201CBF83600120E1
:1001F80010BD8268C3689A420DD0C3680268D35C98
:100208000B70C36842680133B3FBF2F102FB113390
:10021800C3600120704700207047002101704175BC
:1002280080F82A101422013000F0DDBCFFF7F5BF7A
:1002380030B50246014400208A4200D130BD12F890
:10024800013B0824584045B24300D8B2002D04F1C0
:10025800FF33B8BF80F0070013F0FF04F3D1EBE7DA
:1002680070B5037804460D461646072B0FD8DFE80D
:1002780003F0040A1219232D3E50432901D101230A
:100288002370002070BD4A2901D10223F8E72046D7
:10029800FFF7C3FFF5E7012380F82A304170817525
:1002A8000323EDE790F82A3081705A1C034480F844
:1002B8002A2099750423E3E790F82A30C1705A1C64
:1002C800034480F82A2099750523D9E71029DED838
:1002D80090F82A3001715A1C034480F82A20997535
:1002E80000239942437514BF06230723C8E7427DBC
:1002F800531C0244DBB24375517190F82A20511CFB
:10030800024480F82A10957502799A42B9D80723D1
:10031800B6E790F82A101630FFF78AFFA842B6D140
:100328006378012BB3D1631C324604F1150153F8ED
:10033800040B42F8040B8B42F9D12046FFF76DFFFE
:1003480001209FE7F8B5102B0F46069C11461D4665
:100358001CD8DE1D9DF81C30F6B29E4216D84323E9
:1003680023704A2363700123A370E07027716571BD
:1003780025B11AB12A46A01D00F059FCA01C291D60
:10038800FFF756FF2C44A0713046F8BD0026FBE766
:100398002DE9F04389B0044602AD4FF017090E4627
:1003A800174600214A462846984600F01CFC207E45
:1003B800431C23763146CDE9005943463A46FFF7B8
:1003C800C1FF014618B1A3680BB12846984709B088
:1003D800BDE8F08338B5036804460D4698472844BD
:1003E800606138BD0346084603B11847704738B501
:1003F80034220D460021044600F0F5FB95E80F0075
:1004080084E80F000123237638BD000013B50446A5
:1004180003689847237C012B0ED1636953B3834249
:1004280028D2042323741B4900236361E06802B0C7
:10043800BDE81040FFF7D6BF022B1DD16369CBB1D1
:10044800834217D201230DF10702822120468DF83D
:100458000730FFF79DFF63680BB10F4898470323E8
:100468004FF47A7120462374FFF7B4FF0B49E06814
:10047800FFF7B8FF02B010BD032BFBD16369002B57
:10048800F8D08342F6D2042323740023044963611D
:10049800CCE700BF620C00087E0C0008890C00083D
:1004A800B40C000837B50D4604461B49284600F031
:1004B800B4FB30B9636803B3184803B0BDE83040F3
:1004C80018471749284600F0A8FBC0B9237C012B20
:1004D80015D142F21073ADF8043081210223204671
:1004E80001AAFFF755FF236A01332362022323740D
:1004F80042F6E0612046FFF76DFF03B030BD0949C1
:10050800284600F08AFB0028F7D1237C032B02BF82
:10051800207460616076F0E7D20C0008D70C000800
:10052800220D0008420D000837B54A7882768B788C
:10053800C3760D468DF804208DF8053001AA0223F4
:1005480080210446FFF724FFAB78103B042B3AD8F0
:10055800DFE803F003391B313500E3690133E36158
:10056800237C002B2FD1EB7803B12B79637663685A
:100578000BB11648984701234FF47A71204623742B
:1005880003B0BDE83040FFF725BF636A01336362FB
:10059800237C5A1E012A16D8012B06D1236B0C493D
:1005A800E06801332363FFF71DFF63680BB1094857
:1005B80098470323E0E7A36A0133A362E8E7E36A05
:1005C8000133E362E4E703B030BD00BFDC0C000890
:1005D800E50C00087E0C000804289ABF024B53F86B
:1005E80020000248704700BF640D00080C0D000889
:1005F800014B1868704700BFE400002010B5134491
:100608009A4203D103685B06FCD510BD0468240632
:10061800FCD512F8014B44600C6801340C60EFE71C
:1006280002460B4601480249FFF7E8BF00100140A7
:10063800D000002030B50023CA5C1D181C460133C9
:100648000AB9234602E02F2B2A70F5D10022C254A2
:100658000133302BFBD130BD13B50A2304468DF886
:10066800073000F0F2FA0649034622460548FFF72C
:10067800C5FF01230DF10702FFF7C0FF02B010BD4F
:10068800CC0000200044004010B50146044608484C
:10069800FFF7D0FF07490622204600F0ACFA28B938
:1006A80021460548BDE81040FFF7C4BF10BD00BF94
:1006B80058000020530D000828000020014601487A
:1006C800FFF784BD7801002001460148FFF77EBD91
:1006D80068010020024A136801331360704700BFA5
:1006E800E40000200C4B1A6810B412F00F041FBF6E
:1006F8000A48016801310160920608D5084A58681D
:10070800136810BC0133C0B21360FFF7DDBF04B13A
:100718005B6810BC704700BF00100140C800002093
:10072800D80000200C490B6810B413F00F041FBF49
:100738000A480268013202609B0608D5084A4868E0
:10074800136810BC0133C0B21360FFF7B7BF0CB118
:10075800014B5B6810BC704700440040C400002097
:10076800D40000202DE98048AB4BAC4CAC4FDFF8EF
:10077800B492DFF8B4A2DFF8B4820FCB91B006AE22
:1007880086E80F00AA49AB48FFF754FFAA49AB48CF
:10079800FFF750FF4FF0E02043F67F634361A84A1C
:1007A8000021072381610361D2F8303843F0020346
:1007B800C2F83038236823F030032360236843F0FD
:1007C80010032360636823F004036360A36843F0A5
:1007D8003003A360E36823F03003E3600423A361DC
:1007E800D2F8303843F00103C2F83038954B1D6811
:1007F8003D401D601D6845F4201545F0A0051D60AD
:100808005D6825F4C16525F004055D609D6845F4C3
:10081800701545F0F0059D60DD683D40DD60DD68E0
:1008280045F4801545F04005DD601D6A25F47F45D7
:100838001D621D6A45F4EE451D625D6A25F47F65FB
:100848005D625D6A45F4EE655D62D2F8403843F456
:100858000033C2F840387C4B40F2836742F22C05E3
:10086800D960196159619F60DD604023C0F8043187
:10087800D2F8443843F01003C2F84438734BD960B7
:10088800196159619F60DD602023C0F80431704907
:100898007048714D714F8022FFF792FC7049714882
:1008A8008022FFF78DFC7048FFF7C0FC31462846D0
:1008B8006E4EFFF79CFD2B7C337089F800303B6847
:1008C800CAF8003000238DF828300DF1280B614854
:1008D8005946FFF78EFC00287AD18DF81700614839
:1008E8000DF11701FFF785FC002840F0FE8028462F
:1008F800FFF78CFD5E4BEA691A605E4B2A6A1A6044
:100908005D4B6A6A1A605D4BAA6A1A605C4BEA6AB8
:100918001A605C4B2A6B287C1A6099F80030834275
:100928000BD030703B6889F80000CAF80030FFF738
:1009380053FE01463F48FFF77DFE2B7C3A68002BAB
:1009480036D1514B1B787BB950490B68D31AB3F594
:100958007A7F09D30A604E494E480B6803920133E7
:100968000B60FFF779FE039A4B4B197801F0FF03F0
:10097800F1B94A480168511AB1F57A7F18D3484944
:1009880002600A68039301320A6058461946172222
:1009980000F029F9039B1722CDE900B283211A46FA
:1009A8001846FFF7CFFC014610B15846FFF738FE4E
:1009B8003A683378042BD9B240F0BA806423B2FB8A
:1009C800F3F3DB0700F1B2804FF48023A36179E7EA
:1009D8009DF828200D2A3FF478AF0A2A98F80030AD
:1009E8007BD1002B3FF471AF2E492E480022CA5408
:1009F8002D4900F012F900285AD1234B01221A7010
:100A08002A4A13680133136026492846FFF74AFD2E
:100A1800002388F8003058E7780D000800040240E9
:100A28000FFFC3FF00000020DC000020E8000020CA
:100A38005A0D0008580000205F0D0008280000200B
:100A48000030024000000240004400400010014015
:100A5800080200207801002034010020E400002072
:100A6800880100206801002009010020E000002022
:100A7800A00000209C000020980000209400002086
:100A8800900000208C000020890000202400002015
:100A9800B4000020D20C00088800002020000020AC
:100AA800B0000020E9000020D70C0008C00000209A
:100AB8003049314800F0B1F820B9304B01221A70A2
:100AC8002F4A9EE72F492C4800F0A7F800289BD111
:100AD8002A4B01221A702C4A93E71E2B98D8591CCE
:100AE80088F800102449CA54EFE69DF817102748E3
:100AF8005A46FFF7B5FB00283FF4F1AE244B01221C
:100B08001A70244A1368013313609DF82A30152B94
:100B180008D1214A13680133136059462846FFF764
:100B280003FDDCE6802BF8D11C4AF3E7A161C9E696
:100B38003178CBB2032998BF01334FF47A7198BF4B
:100B4800DBB2B2FBF1F088BF002301FB10224FF0AB
:100B5800C80C0021C8B2984201D3042336E70CFB25
:100B680001F0904203D8643090423FF62DAF013136
:100B7800F0E700BF220D0008E900002089000020EE
:100B8800BC000020420D0008B80000200901002028
:100B980088000020A4000020AC000020A80000204D
:100BA8000B480C490C4A914200D304E050F8043B2E
:100BB80041F8043BF7E7094809490022884200D375
:100BC80002E040F8042BF9E7FFF7CCFDFEE7000050
:100BD800A00D0008000000200100002004000020F3
:100BE80088020020FEE702440346934200D1704782
:100BF80003F8011BF9E710B56AB10139841810F838
:100C0800012B11F8013F9A4203D1A04201D0002ADA
:100C1800F5D1D01A10BD1046FCE710F8012B11F8D9
:100C2800013B012A28BF9A42F7D0D01A70470A44DC
:100C3800914200F1FF3300D1704710B511F8014B14
:100C480003F8014F9142F9D110BD034613F8012B67
:100C5800002AFBD1181A013870474641554C543ABE
:100C680020554E4F2073746F702061636B20746938
:100C78006D656F757400524553554D455F5245512A
:100C8800007761746368646F673A204A20726573FD
:100C9800756C742074696D656F75742C20666F723D
:100CA80063696E6720726573756D65004641554CC2
:100CB800543A20554E4F20726573756D65206163F7
:100CC8006B2074696D656F75740050494E4700500C
:100CD8004F4E470053544F505F524551006272695E
:100CE8006467653A206561726C79204A2072657381
:100CF800756C742C20666F7263696E6720726573F9
:100D0800756D6500554E4B4E4F574E0049444C4546
:100D180000574149545F554E4F5F53544F505F4100
:100D2800434B00574149545F4A5F524553554C5411
:100D380000574149545F554E4F5F524553554D45F5
:100D48005F41434B004641554C54004641554C5475
:100D58003A00424F4F54004E4F4E4500140D0008C4
:100D6800190D00082B0D0008390D00084D0D00085D
:100D7800F905000861060008290600089106000820
:100D8800F8B500BFF8B500BFAD010008890100083B
:080D98008AFEFF7F010000004C
:010DA000044E
:0400000508000BA93B
:00000001FF
