:020000040800F2
:10000000D01E0020490100085101000853010008DA
:1000100055010008570100085901000800000000C0
:100020000000000000000000000000005B0100086C
:100030005D010008000000005F010008293C000885
:100040006301000863010008630100086301000800
:1000500063010008630100086301000863010008F0
:1000600063010008630100086301000863010008E0
:1000700063010008630100086301000863010008D0
:1000800063010008630100086301000863010008C0
:1000900063010008630100086301000863010008B0
:1000A00063010008630100086301000863010008A0
:1000B0006301000863010008630100086301000890
:1000C0006301000863010008630100086301000880
:1000D00063010008114100083F4100086D4100081C
:1000E0006301000863010008630100086301000860
:1000F0006301000863010008630100086301000850
:10010000630100086301000863010008630100083F
:10011000630100089B41000863010008873900085B
:10012000630100086301000863010008630100081F
:10013000DFF810D005F094FB004800472F2100089D
:10014000AFF30080D01E00200648804706480047D5
:10015000FEE7FEE7FEE7FEE7FEE7FEE7FEE7FEE777
:10016000FEE7FEE74B020008310100080CB5002055
:10017000019000906C48006840F480306A49086043
:1001800000BF6948006800F4003000900198401CEE
:100190000190009818B90198B0F5A06FF1D16248AC
:1001A000006800F4003010B10120009001E0002050
:1001B00000900098012843D15C48006840F010008E
:1001C0005A4908600846006820F0030008600846A5
:1001D000006840F002000860534840685249486097
:1001E0000846406848600846406840F480604860BF
:1001F0000846406820F47C1048600846406840F497
:10020000E81048600846006840F08070086000BF51
:100210004548006800F000700028F9D04248406866
:1002200020F00300404948600846406840F0020062
:10023000486000BF3C48406800F00C000828F9D135
:100240000CBD10B5FFF792FF10BD10B53648006821
:1002500040F00100344908600846406834490840CD
:100260003149486008460068324908402E49086014
:100270000846006820F4802008600846406820F4A2
:10028000FE0048604FF41F008860FFF7DAFF4FF070
:1002900000602949086010BD10B50021002000222F
:1002A000214B5B6803F00C0121B1042906D0082919
:1002B00028D107E0214B224C236027E01F4B204C24
:1002C000236023E0184B5B6803F47010164B5B68E7
:1002D00003F48032022303EB904022B9194B4343CD
:1002E000174C23600DE0104B5B6803F4003323B11F
:1002F000144B4343124C236003E0104B4343104C18
:10030000236003E00D4B0E4C236000BF00BF064B83
:100310005B68C3F303130C4CE15C094B1B68CB40D7
:10032000074C236010BD0000001002400020024076
:100330000000FFF8FFFFF6FE08ED00E000127A0073
:100340000000002000093D00040000203149014365
:10035000314A1160704770B5002100230F22C47824
:1003600004B32D4C246804F4E064C4F5E064210A6D
:10037000C1F10403CA40447804FA03F184781440BC
:1003800021430901254C0678A155047804F01F0586
:100390000124AC4005786D11AD0005F1E025C5F8EC
:1003A000004109E0047804F01F050124AC401C4D15
:1003B0000678761145F8264070BD1A4A0A40024375
:1003C000154B1B1F1A60704739B1134A121D126872
:1003D0000243114B1B1D1A6006E00F4A121D1268E2
:1003E00082430D4B1B1D1A607047042808D14FF043
:1003F000E021096941F004014FF0E022116107E0BA
:100400004FF0E021096921F004014FF0E022116171
:10041000704700000000FA050CED00E000E400E089
:1004200080E100E080FFFF1F10B50446CC48844205
:1004300008D10121042000F02DFB0021042000F050
:1004400029FB46E0C748844208D10121082000F07A
:1004500021FB0021082000F01DFB3AE0C248844245
:1004600008D10121102000F015FB0021102000F020
:1004700011FB2EE0BD48844208D10121202000F06C
:1004800009FB0021202000F005FB22E0B84884424F
:1004900008D10121402000F0FDFA0021402000F0A9
:1004A000F9FA16E0B348844208D10121802000F017
:1004B000F1FA0021802000F0EDFA0AE0AE48844213
:1004C00007D10121801500F0E5FA0021A01500F008
:1004D000E1FA10BD10B50121084600F0DBFA002159
:1004E000012000F0D7FA10BD2DE9F04102460025A9
:1004F0000026002000230024002791F803C00CF000
:100500000F0591F803C00CF0100CBCF1000F03D0E4
:1005100091F802C04CEA050591F800C0BCF1000F4B
:1005200031D0146800202BE04FF0010C0CFA00F3DE
:10053000B1F800C00CEA03069E4220D183004FF0C0
:100540000F0C0CFA03F7BC4305FA03FC4CEA040455
:1005500091F803C0BCF1280F06D14FF0010C0CFA42
:1005600000FCC2F814C00AE091F803C0BCF1480FC7
:1005700005D14FF0010C0CFA00FCC2F810C0401C71
:100580000828D1D31460B1F800C0BCF1FF0F34DDEE
:10059000546800202EE000F1080C4FF0010808FA22
:1005A0000CF3B1F800C00CEA03069E4221D183008F
:1005B0004FF00F0C0CFA03F7BC4305FA03FC4CEAAE
:1005C000040491F803C0BCF1280F05D100F1080C18
:1005D00008FA0CF8C2F8148091F803C0BCF1480F77
:1005E00007D100F1080C4FF0010808FA0CF8C2F826
:1005F0001080401C0828CED35460BDE8F0814FF62F
:10060000FF710180022181700421C1707047024690
:10061000002093680B400BB1012000E000207047E0
:100620000146886880B2704702460020D3680B40BC
:100630000BB1012000E0002070470146C86880B27D
:10064000704701617047416170470AB1016100E084
:1006500041617047C16070474FF480320A43826144
:100660008161826182698269704702460020434B42
:1006700018684FF68073184040EA021008433F4B59
:10068000186070473E49C8617047F0B50A460023BC
:1006900000240021002500F00046B6F1004F02D1F1
:1006A000364EF16901E0354E7168C0F3034583B2FF
:1006B00000F44016B6F5401F08D121F070612F4EAE
:1006C000766826F070662D4F7E6012E000F480168A
:1006D000B6F5801F06D1032606FA05F4A14341F0C2
:1006E000706106E0460D360103FA06F6B14341F0AB
:1006F000706122B1460D360103FA06F6314300F06F
:100700000046B6F1004F02D11C4EF16101E01B4ED4
:100710007160F0BD30B500228B071C0F0F2303FA68
:1007200004F2164B08338C1053F824309343134CC7
:1007300008348D1044F8253023468C1053F82430AB
:100740008C07240F00FA04F423430C4C08348D105A
:1007500044F8253030BD0A49DC310860704700009C
:1007600000080140000C014000100140001401404D
:1007700000180140001C0140002001400000014021
:1007800000002042DF48006840F00100DD490860B9
:1007900008464068DC490840DA4948600846006875
:1007A000DA490840D74908600846006820F48020EC
:1007B00008600846406820F4FE0048604FF41F00BF
:1007C00088607047CF49096821F48031CD4A1160B3
:1007D0001146096821F480211160B0F5803F03D0F3
:1007E000B0F5802F0ED106E0C649096841F480318A
:1007F000C44A116007E0C349096841F4A021C14A15
:10080000116000E000BF00BF704710B50146002234
:10081000002300204A11012A02D1BA4C236806E0C5
:10082000022A02D1B74C236A01E0B64C636A01F098
:100830001F02012494401C400CB1012000E0002064
:1008400010BD38B5002000900024002500BF3120E5
:10085000FFF7DBFF05460098401C00900098B0F5BC
:10086000A06F01D0002DF2D03120FFF7CEFF08B1EC
:10087000012400E00024204638BD01460020A14AA2
:10088000106820F0F80040EAC10010607047A049ED
:1008900008607047024600209A4B586820F47C108C
:1008A00042EA01031843974B58607047984908661D
:1008B000704701460020934A506820F00300084327
:1008C000506070478F48406800F00C007047014648
:1008D00000208C4A506820F0F000084350607047B8
:1008E00001460020874A506820F4E06008435060C9
:1008F000704701460020834A506820F4605040EA67
:10090000C1005060704729B17E4A527A02437D4B44
:100910005A7204E07B4A527A82437A4B5A72704789
:100920007B49D8310860704701460020754A5068FD
:1009300020F440400843506070470021714A203243
:100940001170704A82F82010012802D004280AD1C0
:1009500004E001216B4A2032117005E00521694A4B
:100960002032117000E000BF00BF70476949086085
:1009700070476449096A0143624A116270476549D8
:1009800044390860704730B500210022002400235C
:100990005C4D6D6805F00C0121B1042905D00829D2
:1009A00023D105E05C4D056022E05B4D05601FE052
:1009B000544D6D6805F47012524D6D6805F4803425
:1009C000022505EB92421CB9544D554305600BE0DE
:1009D0004C4D6D6805F400351DB1504D5543056013
:1009E00002E04D4D5543056002E04B4D056000BFF0
:1009F00000BF444D6D6805F0F0010909484D6B5C7E
:100A00000568DD4045603F4D6D6805F4E061090A09
:100A1000434D6B5C4568DD4085603A4D6D6805F47B
:100A20006051C90A3E4D6B5C4568DD40C560354D7F
:100A30006D6805F44041890B3A4D6B5CC568B5FBA8
:100A4000F3F5056130BD29B12E4A526902432D4BA1
:100A50005A6104E02B4A526982432A4B5A6170471B
:100A600029B1284A92690243264B9A6104E0254A3B
:100A700092698243234B9A61704729B1214AD26916
:100A80000243204BDA6104E01E4AD26982431D4BC7
:100A9000DA61704729B11B4AD2680243194BDA6008
:100AA00004E0184AD2688243164BDA60704729B1D5
:100AB000144A12690243134B1A6104E0114A126985
:100AC0008243104B1A6170471249403908607047E1
:100AD0000F49C86470470B49C87170470948406A9C
:100AE00040F0807007494862704701460020054A7F
:100AF00092680A400AB1012000E0002070470149D5
:100B000088727047001002400000FFF8FFFFF6FEF9
:100B1000000042428004424200127A0000093D0077
:100B2000140000202400002010B50446BE48844272
:100B300008D101218014FFF7ADFF0021A014FFF7B9
:100B4000A9FF16E0B948844208D101210014FFF73B
:100B5000AEFF00212014FFF7AAFF0AE0B448844248
:100B600007D10121C013FFF7A2FF0021E013FFF717
:100B70009EFF10BD10B50022028802F441520B887E
:100B80004C8823438C882343CC8823430C892343FC
:100B90004C8923438C892343CC8923431A43028005
:100BA000838B4FF2FF74234083830B8A038210BD33
:100BB0002DE9F04F85B005460C464FF0000902279D
:100BC0004FF000084FF0010B0026B246A88B4FF201
:100BD00040010840A88302202884B5F81C90A06832
:100BE000022801D100BF38E0A08810B94FF0010BF6
:100BF00001E04FF0020B8D48854200D100E000BFBC
:100C00006846FFF7C0FEDDF800A0E088B0F5007F81
:100C10000AD14FEA1A2000EB80004000A168B0FB27
:100C2000F1F0401D86B20BE04FEA4B10BAFBF0F03A
:100C300000EB80004000A168B0FBF1F0401D86B2DF
:100C40000A20B6FBF0F606F00108A6EB0800C0F398
:100C50004F074FF6FF7000EA0828022F01DBFF2F35
:100C600002DD02274FF00008E08840EA0800384320
:100C70002884A088A1890843618808432188084303
:100C800040F4006040EA0909A5F81C9005B0BDE8F1
:100C9000F08F0021018041808180C18001814181EC
:100CA0008181C1810721018270470021018041803B
:100CB0008180C1800221816000218181704721B142
:100CC000028842F04002028004E002884FF6BF73BF
:100CD0001A400280704721B1828B42F48062828385
:100CE00004E0828B4FF6FF331A408283704730B5A1
:100CF000002400230C110125A540ABB21AB1858850
:100D00001D43858002E085889D43858030BD1AB1F2
:100D100083880B43838002E083888B438380704702
:100D2000818170470146888970474FF6FF62914282
:100D300004D0028842F48072028004E002884FF6F8
:100D4000FF631A400280704721B1828842F004029A
:100D5000828004E082884FF6FB731A4082807047DD
:100D600002884FF2FF731A40028002880A43028011
:100D70007047018841F480510180704721B1028899
:100D800042F40052028004E002884DF6FF731A40DC
:100D90000280704702460020012901D0108B00E03C
:100DA000908A70470146088A7047B1F5804F04D198
:100DB000028842F48042028004E002884BF6FF730E
:100DC0001A40028070470246002013890B400BB185
:100DD000012000E000207047CA4302817047F0B54F
:100DE0000246002000240023002501F00F07012601
:100DF000BE40B4B20B1101269E40B3B2968806EAFB
:100E000003051689264016B10DB1012000E000202F
:100E1000F0BD10B5002201F00F040123A3409AB2E7
:100E2000D343038110BD0000003001400038004072
:100E3000003C004010B50446FE48844208D1012120
:100E4000C014FFF727FE0021E014FFF723FEC4E0E3
:100E5000B4F1804F08D101210846FFF728FE002198
:100E60000120FFF724FEB8E0F348844208D10121B5
:100E70000220FFF71CFE00210220FFF718FEACE065
:100E8000EE48844208D101210420FFF710FE002122
:100E90000420FFF70CFEA0E0E948844208D10121BC
:100EA0000820FFF704FE00210820FFF700FE94E071
:100EB000E448844208D101211020FFF7F8FD002109
:100EC0001020FFF7F4FD88E0DF48844208D10121BB
:100ED0002020FFF7ECFD00212020FFF7E8FD7CE05B
:100EE000DA48844208D101214014FFF7D3FD0021E4
:100EF0006014FFF7CFFD70E0D548844209D101218D
:100F0000C804FFF7C7FD00214FF40020FFF7C2FD22
:100F100063E0D048844209D101210805FFF7BAFDFA
:100F200000214FF48010FFF7B5FD56E0CA48844217
:100F300009D101214805FFF7ADFD00214FF4001054
:100F4000FFF7A8FD49E0C548844208D101214020AF
:100F5000FFF7ADFD00214020FFF7A9FD3DE0C048AF
:100F6000844208D101218020FFF7A1FD00218020CB
:100F7000FFF79DFD31E0BB48844208D10121801577
:100F8000FFF795FD0021A015FFF791FD25E0B6487C
:100F9000844209D101210804FFF77CFD00214FF4B0
:100FA0008030FFF777FD18E0B048844209D1012175
:100FB0004804FFF76FFD00214FF40030FFF76AFD92
:100FC0000BE0AB48844208D101218804FFF762FDA1
:100FD00000214FF48020FFF75DFD10BD0022028844
:100FE000944B98420ED0994B98420BD0B0F1804F61
:100FF00008D0914B984205D0904B984202D0904B2C
:10100000984204D14FF68F731A404B881A438D4B88
:10101000984207D08C4B984204D04FF6FF431A40B9
:10102000CB881A4302808B8883850B880385814B8C
:1010300098420BD0854B984208D08B4B984205D0F4
:101040008A4B984202D08A4B984201D10B7A038690
:1010500001238382704770B5002400220023058C91
:101060004FF6FE7635400584028C8388048B4FF65C
:101070008F752C40B51E2C400D882C43751E2A40C0
:101080000D892A434D882A436A4DA8420BD06F4DE3
:10109000A84208D0744DA84205D0744DA84202D091
:1010A000734DA84213D14FF6F7752A404D892A4354
:1010B0004FF6FB752A408D882A434FF6FF652B407B
:1010C0004FF6FF552B408D892B43CD892B438380D1
:1010D0000483CD888586028470BD70B5002400220B
:1010E0000023058C4FF6EF7635400584028C83880B
:1010F000048B48F6FF752C404FF6FF452C400D88B9
:101100004FF6FF7606EA05252C434FF6DF752A4099
:101110000D8906EA05152A434D8806EA05152A4376
:10112000444DA84202D0494DA8421DD14FF67F75CB
:101130002A404D894FF6FF7606EA05152A434FF6F9
:10114000BF752A408D8806EA05152A434FF6FF35FC
:101150002B404FF2FF752B408D8906EA85052B4306
:10116000CD8906EA85052B4383800483CD880587D6
:10117000028470BD70B5002400220023058C4FF658
:10118000FF6635400584028C8388848B4FF68F750B
:101190002C404FF6FC752C400D882C434FF6FF5524
:1011A0002A400D894FF6FF7606EA05252A434D8829
:1011B00006EA05252A431F4DA84202D0234DA84226
:1011C0001DD14FF2FF752A404D894FF6FF7606EA92
:1011D00005252A434FF6FF352A408D8806EA052566
:1011E0002A434EF6FF752B404DF6FF752B408D8937
:1011F00006EA05152B43CD8906EA05152B438380A6
:101200008483CD888587028470BD70B50022002359
:101210000024058C4EF6FF7635400584038C8488C7
:10122000828B48F6FF752A404FF6FF452A400D880D
:1012300020E00000002C01400004004000080040B5
:10124000000C004000100040001400400034014039
:10125000004C014000500140005401400018004083
:10126000001C0040002000400040014000440140BC
:10127000004801404FF6FF7606EA05252A434DF661
:10128000FF752B400D8906EA05352B434D8806EA8C
:1012900005352B43FA4DA84202D0FA4DA84208D199
:1012A0004BF6FF752C408D894FF6FF7606EA8515C3
:1012B0002C4384808283CD88A0F84050038470BD85
:1012C000828B4FF2FF331A408283828B4FF6FF737B
:1012D00003EA01231A4382837047F0B50C46154692
:1012E000002200210026078C4EF6FF7C07EA0C073F
:1012F0000784828B018C4FF6FF7707EA043640F6AD
:10130000FF473A404FF6FF7707EA05273A434FF683
:10131000FF7707EA03373A43D94FB8420ED0D94F87
:10132000B8420BD0B0F1804F08D0D74FB84205D0AB
:10133000D64FB84202D0D64FB84206D14DF6FF770D
:10134000394046F48057394305E047F6FF573940A6
:1013500044F48057394382830184F0BD828B4FF679
:10136000F3731A408283828B0A4382837047F0B5FD
:101370000C461546002200210026078C4FF6FF6C14
:1013800007EA0C070784828B018C4FF6FF7707EA88
:1013900004264FF60C773A404FF6FF7707EA03171B
:1013A0002F433A43B64FB8420ED0B64FB8420BD097
:1013B000B0F1804F08D0B44FB84205D0B34FB84217
:1013C00002D0B34FB84206D14FF6FF57394046F42A
:1013D0008077394305E04FF2FF57394044F4807776
:1013E000394382830184F0BD028B4FF2FF331A40F0
:1013F0000283028B4FF6FF7303EA01231A43028331
:101400007047F0B50C461546002200210026078CD7
:101410004FF6EF7C07EA0C070784028B018C4FF62E
:10142000FF7707EA041640F6FF473A404FF6FF778A
:1014300007EA03373A434FF6FF7707EA05273A43AF
:101440008F4FB8420ED08F4FB8420BD0B0F1804FC3
:1014500008D08D4FB84205D08C4FB84202D08C4F87
:10146000B84206D14FF6DF77394046F010073943CE
:1014700005E04FF65F77394044F0100739430283A7
:101480000184F0BD028B4FF6F3731A400283028B86
:101490000A4302837047F0B50C461546002200212E
:1014A000068C4FF6FE773E400684028B018C4FF689
:1014B0000C7632407E1C06EA03162E433243704EF1
:1014C000B0420ED06F4EB0420BD0B0F1804F08D07A
:1014D0006D4EB04205D06D4EB04202D06C4EB0425F
:1014E00006D14FF6FD76314044F00106314305E068
:1014F0004FF6F576314044F0010631430283018412
:10150000F0BD70B505460C465D4885420ED05D487D
:1015100085420BD0B5F1804F08D05B48854205D09D
:101520005A48854202D05A48854200D100E000BFA7
:10153000208850B92389A28861882846FFF7ABFF2D
:10154000E1882846FFF79EFF25E0208804280AD17D
:101550002389A28861882846FFF753FFE18828463F
:10156000FFF742FF17E0208808280AD12389A288C4
:1015700061882846FFF7FBFEE1882846FFF7EEFE6C
:1015800009E02389A28861882846FFF7A6FEE18842
:101590002846FFF795FE70BD2DE9F04105460C4643
:1015A00000260127608808B9022600E00026A088EE
:1015B000012801D1022700E001272088A0B9238952
:1015C000A28861882846FFF766FFE1882846FFF772
:1015D00059FF23893A4631462846FFF712FFE18832
:1015E0002846FFF701FF13E02389A2886188284677
:1015F000FFF707FFE1882846FFF7F6FE23893A4602
:1016000031462846FFF747FFE1882846FFF73AFFB3
:10161000BDE8F0810A884B881A438B881A43CB882F
:101620001A430B891A434B891A438B891A43A0F832
:10163000442070474FF6FF71818000210180C180F6
:101640004180017270470021018041808180C1800A
:10165000018141818181C1817047002101804180E8
:10166000012181800021C18001817047002101801A
:1016700041808180C180018141818181704700006A
:10168000002C0140003401400004004000080040EC
:10169000000C004021B1028842F00102028004E007
:1016A00002884FF6FE731A400280704731B1B0F8DD
:1016B000442042F40042A0F8442005E0B0F8442061
:1016C000C2F30E02A0F8442070471AB183890B437D
:1016D000838102E083898B438381704781827047D5
:1016E00041EA0203A0F8483070471AB183890B43DE
:1016F000838102E083898B438381704701894FF6A0
:10170000F8721140018170470A46002101894FF6A5
:101710008F73194011430181704730B504460D465F
:1017200029462046FFF7F0FF208940F0070020817E
:1017300030BD2DE9F04104460D4616461F46602D8A
:1017400006D13B46012231462046FFF75AFE05E00E
:101750003B46012231462046FFF79DFE29462046A2
:10176000FFF7D2FF208940F007002081BDE8F0811B
:1017700030B50C4600210189C9B24FF6FF7505EA64
:101780000325154325432943018130BD2DE9F0414F
:1017900005460E4617469846002443463A463146CB
:1017A0002846FFF7E5FF2C894FF6F870044044F017
:1017B00007044FF68F70044044F070042C81BDE89C
:1017C000F081F0B504460D4616461F463B463246AC
:1017D00029462046FFF7CCFF208940F48040208135
:1017E000F0BD0185828270470A46002101884FF6CC
:1017F0008F731940114301807047F0B50C461546B0
:101800001E460021002200230189028B038C4FF623
:10181000F877394021434FF6FC473A4040F2011730
:101820003A434FF6DD773B404FF6FF7707EA06175E
:101830002F433B43018102830384F0BD0A4600210C
:10184000018B4FF68F7319401143018370470A468D
:101850000021018B48F6FF7319404FF6FF7303EA2E
:1018600002231943018370470A460021818B4FF6FA
:101870008F7319401143818370470A460021818B81
:1018800048F6FF7319404FF6FF7303EA022319432A
:101890008183704721B1028842F08002028004E017
:1018A00002884FF67F731A400280704721B1828808
:1018B00042F00402828004E082884FF6FB731A40F3
:1018C0008280704721B1828842F00802828004E061
:1018D00082884FF6F7731A408280704721B1828860
:1018E00042F00102828004E082884FF6FE731A40C3
:1018F000828070470A460021018B4FF6F77319402A
:101900001143018370470A460021018B4FF2FF7398
:1019100019404FF6FF7303EA02231943018370470E
:101920000A460021818B4FF6F773194011438183DA
:1019300070470A460021818B4FF2FF7319404FF622
:10194000FF7303EA02231943818370470A4600218B
:10195000018B4FF6FB7319401143018370470A4610
:101960000021018B4FF6FF3319404FF6FF7303EA56
:1019700002231943018370470A460021818B4FF6E9
:10198000FB7319401143818370470A460021818B04
:101990004FF6FF3319404FF6FF7303EA0223194352
:1019A000818370470A460021018B4FF67F731940EF
:1019B0001143018370470A460021018BC1F30E01D8
:1019C0004FF6FF7303EA02231943018370470A4667
:1019D0000021818B4FF67F7319401143818370473B
:1019E0000A460021818BC1F30E014FF6FF7303EA13
:1019F00002231943818370470A460021018C4FF668
:101A0000FD7319401143018470470A460021018C7F
:101A10004FF6F77319401143018470470A460021BD
:101A2000018C4FF6DF7319404FF6FF7303EA021380
:101A30001943018470470A460021018C4FF67F73D9
:101A400019404FF6FF7303EA0213194301847047EC
:101A50000A460021018C4FF6FF5319404FF6FF73E1
:101A600003EA02231943018470470A460021018CCE
:101A70004FF2FF7319404FF6FF7303EA0223194335
:101A8000018470470A460021018C4DF6FF7319400E
:101A90004FF6FF7303EA023319430184704730B5F0
:101AA000002301248C40A3B2048C9C430484048C46
:101AB00002FA01F5ADB22C43048430BD30B50023E9
:101AC00004248C40A3B2048C9C430484048C02FA4A
:101AD00001F5ADB22C43048430BD70B5034600203F
:101AE00000241846183001258D40ACB21D8CA5434A
:101AF0001D8409B1082909D100EB6100056825F0B2
:101B0000700505600568154305600EE00D1FC5F3FF
:101B10004E052844056825F4E045056005684FF644
:101B2000FF7606EA02263543056070BD21B10288C2
:101B300042F00202028004E002884FF6FD731A4070
:101B40000280704721B1028842F00402028004E062
:101B500002884FF6FB731A400280704721B18288D9
:101B600042F08002828004E082884FF67F731A4040
:101B70008280704702884FF6F7731A40028002880D
:101B80000A430280704782884FF68F731A40828022
:101B900082880A438280704702894FF6F8731A40A0
:101BA000028102890A430281704702894FF67F73DE
:101BB0001A40028102890A4302817047818470477A
:101BC000818570478186704701877047818770479C
:101BD000A0F84010704702884FF6FF431A40028079
:101BE00002880A43028070470146888E704701468A
:101BF000088F70470146888F70470146B1F8400052
:101C000070470146888C70470146088D7047024630
:101C10000020138A0B400BB1012000E00020704728
:101C2000CA430282704730B50246002000230024D8
:101C3000158A05EA0103958905EA010413B10CB17F
:101C4000012000E0002030BDCA430282704700003E
:101C500010B50446FB48844209D101218803FEF7F0
:101C600019FF00214FF48040FEF714FF32E0F648E0
:101C7000844209D101214804FEF719FF00214FF4E5
:101C80000030FEF714FF25E0F048844209D101211D
:101C90008804FEF70CFF00214FF48020FEF707FFB9
:101CA00018E0EB48844209D10121C804FEF7FFFE89
:101CB00000214FF40020FEF7FAFE0BE0E5488442D5
:101CC00008D101210805FEF7F2FE00214FF4801033
:101CD000FEF7EDFE10BD2DE9F04786B005460E4635
:101CE0000024A24600BFA1460027B08900B100BF72
:101CF0002F462C8A4CF6FF700440F08804432C8257
:101D0000AC894EF6F3100440B088318908437189DC
:101D100008430443AC81AC8A4FF6FF400440B089CD
:101D20000443AC8201A8FEF72EFEC648874202D1CA
:101D3000DDF810A001E0DDF80CA0A88900F4004057
:101D400040B10AEBCA0000EB0A1031684900B0FB51
:101D5000F1F807E00AEBCA0000EB0A1031688900CD
:101D6000B0FBF1F86420B8FBF0F004012009642115
:101D700001FB1089A88900F4004040B1322000EB3B
:101D8000C900B0FBF1F000F00700044308E0322086
:101D900000EB09106421B0FBF1F000F00F000443E8
:101DA0002C8106B0BDE8F0874FF416510160002188
:101DB0008180C18001810C21418100218181704796
:101DC00010B502460020108A4FF2FF0318400B881E
:101DD0004C8823438C882343CC88234318431082A8
:101DE00010BD0021018041808180C180704721B1F8
:101DF000828942F40052828104E082894DF6FF73A9
:101E00001A4082817047F0B5034600240026002561
:101E1000002040F66A17B94200D100BF1846C1F34E
:101E2000421401F01F06012707FA06F5012C01D123
:101E30000C3004E0022C01D1103000E014301AB153
:101E400007682F43076002E00768AF430760F0BDF3
:101E50001AB1838A0B43838202E0838A8B43838295
:101E60007047028A4FF6F0731A400282028A0A43D0
:101E70000282704782894FF2FF731A408281828901
:101E80000A438281704721B1828942F00202828135
:101E900004E082894FF6FD731A4082817047028AFE
:101EA0004FF6DF731A400282028A0A4302827047A9
:101EB00021B1028A42F48042028204E0028A4BF697
:101EC000FF731A4002827047C1F308028280704794
:101ED00001468888C0F308007047818941F00101FC
:101EE00081817047028BD2B20283028B42EA0122C7
:101EF00002837047028B02F47F420283028B0A4303
:101F00000283704721B1828A42F02002828204E07B
:101F1000828A4FF6DF731A408282704721B1828A2B
:101F200042F01002828204E0828A4FF6EF731A4078
:101F30008282704721B1828A42F00802828204E0E4
:101F4000828A4FF6F7731A408282704721B18289E4
:101F500042F40042828103E08289C2F30E02828150
:101F6000704721B1828A42F40062828204E0828A50
:101F70004FF2FF731A4082827047828A4FF6FB73DA
:101F80001A408282828A0A438282704721B1828A01
:101F900042F00202828204E0828A4FF6FD731A4008
:101FA0008282704702460020B1F5007F00D100BF59
:101FB00013880B400BB1012000E00020704701F4B2
:101FC0000072B2F5007F00D100BFCA4302807047A3
:101FD00070B50246002400230025002040F66A1652
:101FE000B14200D100BFC1F3421501F01F03012629
:101FF00006FA03F3012D02D19689334006E0022D43
:1020000002D1168A334001E0968A33400C12012631
:1020100006FA04F41688344013B10CB1012000E034
:10202000002070BD10B50022002340F66A14A142C2
:1020300000D100BF0A1201249440A3B2DC43048003
:1020400010BD00000038014000440040004800403E
:10205000004C00400050004010B501210D20FEF75B
:10206000FFFC01214748FEF710FB10BD10B501F041
:10207000E1FD45490968401AB0F57A7F00D210BDEC
:1020800001F0D8FD404908604FF400513F48FEF789
:10209000CBFAC0F10100C4B222464FF400513B48D4
:1020A000FEF7D3FA00BFEAE710B500240A2000F0DB
:1020B00046FAC4223649374802F05FFA35480068CC
:1020C0003549884204D008463249086000204860FB
:1020D0003048D0F8AC0025280ED0002406E00021BE
:1020E0002C488C3040F82410601CC4B2082CF6DB5D
:1020F00025212848C0F8AC10002408E025488C3081
:1021000050F82410204601F053FD601CC4B2082C86
:10211000F4DB204890F88800252807D11D48007A74
:10212000242803D11B48083000F075FC10BD08B509
:1021300001F050FD01F0F2FAFFF78EFF00F040F8D9
:1021400000F080F801F066FC02F034F91348144BFB
:10215000144A15490090154800F0BAFFFFF7A4FF94
:1021600002F07AF90446214611A003F03DFD07E094
:1021700000F080F900F036F8FFF778FF00F00BFF71
:10218000F6E70000000230002800002000100140A7
:1021900000F07F0004050020E5B13401C8050020EF
:1021A00000001B430000B0420000D2420000C842C1
:1021B0007732357136342069643D25780A00000095
:1021C00010B54FF4E13001F041FD4FF4E13001F082
:1021D00097FD4FF4E13001F0E7FD4FF4E13001F0FD
:1021E00039FE10BD10B51448008818B313480078A4
:1021F000012803D1124800F00EFC16E00F480078C9
:10220000022803D10E4800F0EBF90EE00B480078ED
:10221000032803D10A4800F0E3F906E007480078F4
:10222000042802D1064800F060FD00200249088021
:102230000249087010BD0000F0000020F2000020EC
:10224000A006002010B501F0D1FF10BD2DE9F0412E
:1022500007460E4600257878397800EB01209A4928
:1022600008809A480088098888426ED0964800887D
:102270009749088094480088944909880840924901
:1022800008800024EDE00120A0408F490988084023
:1022900000287DD10120A0408C49098808400028F1
:1022A0007FD04FF480618B4802F065FB732E0DD117
:1022B000894951F8240002F069FB8046864850F8AD
:1022C00024104246834802F03DFB10E0412E0DD120
:1022D000824951F8240002F059FB80467F4850F8AB
:1022E000241042467B4802F02DFB00E0B7E07CA1C1
:1022F000784800F082FAC5B21DB10021681E754A07
:10230000115478A1734800F078FAF8B1002240F235
:1023100025517548FFF777FD0020744908806D4905
:102320000B31734802F039FB71496A4802F035FB02
:1023300001206E490880012240F225516A48FFF7CA
:1023400062FD01206B49087026E091E06AA16148B6
:1023500000F053FA00B3002240F225516248FFF723
:1023600052FD0020614908805A490B31604802F053
:1023700014FB5F49574802F010FB01205B490880BD
:10238000012240F225515848FFF73DFD022001E0AF
:1023900064E006E0574908704FF6FF704B4908802B
:1023A0005CE04FF480614B4802F0E5FA732E0DD1EA
:1023B000494951F8240002F0E9FA8046464850F8AD
:1023C00024104246434802F0BDFA10E0412E0DD1E0
:1023D000424951F8240002F0D9FA80463F4850F8AB
:1023E000241042463B4802F0ADFA00E037E03CA141
:1023F000384800F002FAC5B285B33649481939A108
:1024000000F0FBF990B133484119394802F0C5FAA0
:10241000374802F0BBFA401E354900220A542D48C5
:1024200002F0BBFA2B4800F0F6FA17E029494819E8
:1024300031A100F0E2F988B1264841192C4802F098
:10244000ACFA2B4802F0A2FA401E294900220A5495
:10245000204802F0A2FA1F4800F0C2F800BF601C3A
:10246000C4B2102CFFF60FAF194800881749088036
:10247000BDE8F08110B501F0DDFB20490968401A84
:10248000322800D210BD01F0D5FB1C49086001F0D4
:102490001FFF1B4800781B49C978884205D118489E
:1024A00040781849097988420BD016484178C01CF9
:1024B000FFF7CCFE1348C078114908701148007925
:1024C000487000BFDEE70000B6000020B400002026
:1024D000B8000020A00600202C0000206C00002086
:1024E0005E0000002400000000380140F0000020E1
:1024F00004010020F200002023000000B0000020B2
:10250000AC000020B40A002000BF011EA0F10102AF
:1025100090B2FAD170470CB5002101910BE00B216C
:10252000009102E00099491E009100990029F9D11B
:102530000199491C019101998142F0D30CBD18B554
:1025400004460020009006E04FF47A70FFF7E3FFA6
:102550000098401C00900098A042F5D318BD0000E0
:1025600010B540F2FF7002F0B5F8C422F749F84800
:1025700002F0D3F810BD10B504460120F5490880DB
:10258000F5480078012803D0204601F0C0FC02E0A5
:102590000020F1490870F0480078022803D0204656
:1025A00001F0D6FC02E00020EB490870EA48007810
:1025B000032803D0204601F0DEFC02E00020E649BB
:1025C0000870E5480078052803D0204601F0F2FCA9
:1025D00002E00020E04908700020DE49088010BDBC
:1025E0002DE9FE4F04460026B24600250027A846E6
:1025F000A946002002902046FFF7BDFF204602F0CA
:10260000C5F98046B8F10C0F4FDB207823284CD158
:102610002079502849D16079532846D1A0794328A0
:1026200043D1E0794B2840D1207B21283DD16078EF
:10263000303864214843A178303901EB810100EB47
:102640004101E0783038084486B2607A303864213D
:102650004843A17A303901EB810100EB4101E07A76
:10266000303801EB0009B9F1C80F45DC082E43DA18
:10267000207A2B2808D1F0B2494601F099FAB448E3
:102680008C3040F826900DE0207A2D280AD1F0B247
:10269000C9F1000101F08CFAC9F10001AC488C309D
:1026A00040F82610FFF75CFF26E0B8F1080F23DBA7
:1026B0002078232820D1207950281DD16079442802
:1026C0001AD1A079532817D1E079542814D1207A4F
:1026D000212811D16078303864214843A1783039FD
:1026E00001EB810100EB4101E07830380E18F0B2C7
:1026F00001F026FABDE8FE8F78E0605D23281CD14A
:102700000026681C85B2002714E0A8450FDB605D39
:1027100039280CDC605D302809DB605D06EB860142
:1027200000EB4100303886B2681C85B200E05BE007
:10273000781C87B2032F59DAE7E7605D502827D16C
:1027400000200290681C85B200271EE0A84519DB16
:10275000605D392816DC605D302813DB605D02F0B7
:10276000F0FD7E490190029802F0EAFB0090019989
:1027700002F08EFB83467A4902F0DCFB0290681C73
:1027800085B200E030E0781C87B2042F2EDADDE756
:10279000605D542827D14FF0000A681C85B20027DD
:1027A00015E0A84510DB605D39280DDC605D302840
:1027B0000ADB605D0AEB8A0100EB410030381FFA4A
:1027C00080FA681C85B200E00EE0781C87B2042F06
:1027D000E7DB029802F0D8FD8346F0B25246594634
:1027E00001F01EF902E000BF681C85B2A84502DBBB
:1027F000605D002881D100BF7CE770B504460B46C0
:1028000021461A4619E008781578A84214D10AE042
:1028100011F8015B12F8016BB54204D0D01A081A06
:10282000411C1A4602E010780028F1D100BF107850
:1028300018B9081B80B270BD491C08780028E2D185
:1028400000BFF8E72DE9F04F87B080460E4691466D
:102850001D460027BA460021304602F041FE03D251
:10286000002007B0BDE8F08F4FF0000A002412E00E
:10287000204602F05DFD83463A485B464A463146B3
:102880000090404600F041FC20B9BC4200DA2746E7
:102890004FF0010A641E14F1870FE9DABAF1000F54
:1028A00029D0384602F044FD83462E485B464A460E
:1028B00031460090404600F028FC2A48C06C40F6A3
:1028C000B831091A2748C164C06C2649896CCDE922
:1028D0000215CDE904052348406CCDE900052148E7
:1028E0002B4621A1026C304803F08EF92E48FFF7E9
:1028F00077FE0120B5E70020B3E770B5024600215E
:102900000020002354E0545C542C4FD14C1C145D27
:10291000303C4FF47A756C438D1C555D303D05EBB2
:10292000C50606EB051504EB8505CC1C145D303C93
:1029300004EB840405EB44050C1D145D303C2B199D
:10294000834200DD1846091D32E0000000F07F00E0
:1029500004050020F0000020C300002000002041FA
:1029600000004042C80500207B2330303050253025
:1029700034645425303464212330303150253034D0
:10298000645425303464212330303250253034648F
:10299000542530346421233030335025303464548E
:1029A00025303464217D000004010020491C00BF53
:1029B000545C002CA7D170BD10B504460A20FFF767
:1029C000BEFD4FF48061FE4801F0D5FF21024FF4B7
:1029D0008072FB4801F0D1FDF948FFF78EFFF949FD
:1029E0000860F748FFF7FCFD10BDF7A003F0FCF806
:1029F000012080F3138800BF00BFF648006800F490
:102A0000E060F5490843001DF2490860BFF34F8FAD
:102A100000BF00BFFEE730B589B0054600240020A6
:102A2000089007900690059004900390EB49087079
:102A3000EBA12846FFF7E1FE04461CB1EAA001F035
:102A400066FAFAE0EBA12846FFF7D7FE044664B128
:102A50000120EA490870FF2001F072F8E8A0FFF7B2
:102A60008AFDFF20E9490870E7E0E9A12846FFF761
:102A7000C4FE0446C4B108AAE7A1284601F096FFA7
:102A80000028DED00899C8B201F05AF8E5A1E8485C
:102A9000089A03F0B9F8E648FFF76DFD4FF480613E
:102AA000E34801F068FFC8E0E2A12846FFF7A5FE71
:102AB00004460CB1FFF799FFE0A12846FFF79DFE01
:102AC00004466CB107AADFA1284601F06FFF002879
:102AD000B7D00120C94908700798FFF76DFFACE037
:102AE000DBA12846FFF789FE04461CB3DA48DB4B1E
:102AF000DB4ADCA10090284601F058FF0028A0D056
:102B00000120BE490870D6480068D4490968884247
:102B10000BD0D3480068D7490860CF480068D64931
:102B200008600020B549087087E0CD480068FFF7CD
:102B300043FF82E0D1A12846FFF75FFE0446ACB117
:102B400007AAD0A19E4801F031FF002875D0AF49F7
:102B500007980870079810B9CDA0FFF70CFD0798EB
:102B600002286AD1CEA0FFF706FD66E0D0A1284674
:102B7000FFF743FE04461CB1FF20A44908705CE047
:102B8000CDA12846FFF739FE04461CB1CCA001F0C8
:102B9000BEF952E0B9A12846FFF72FFE0446ACB1BA
:102BA00007AAB8A1864801F001FF002845D097493F
:102BB00007980870079810B9B5A0FFF7DCFC0798D4
:102BC00002283AD1B6A0FFF7D6FC36E0BDA12846D0
:102BD000FFF713FE0446ACB10A20FFF7B0FC88A053
:102BE000FFF7FEFC0A20FFF7AAFCBAA001F08FF95C
:102BF0000A20FFF7A4FCBFA001F089F90A20FFF723
:102C00009EFC1AE0BDA12846FFF7F7FD0446A4B1DB
:102C100006A803A904AB05AACDE90010B9A128466E
:102C200001F0C4FE48B1DDE90503DDE90321FFF74A
:102C300009FE10B9B8A001F06AF909B030BD10B5AD
:102C40000446BBA12046FFF7D8FD18B12046FFF788
:102C5000E2FE07E0B7A12046FFF7CFFD10B1204606
:102C6000FFF7BEFC10BDF0B50C46002117E00A4688
:102C70004B1C07E050F8226050F82370BE4200DD84
:102C80001A465B1CA342F5DB8A4207D050F822505B
:102C900050F8216040F8226040F82150491C661E1F
:102CA0008E42E4DCF0BD0146002901DD0846704794
:102CB0004842FCE710B504460021204602F01AFC09
:102CC00001D2204610BD84F00040FBE704E0037809
:102CD0008B4200D10270401C0378002BF7D1704763
:102CE00002680B6803600A60704770B504464FF0D5
:102CF000FF35607824280CD1A078212809D1002143
:102D00008D4880F88810FFF72BFC8CA001F0FFF8AD
:102D100070BD607824281FD181218748083001F0D8
:102D20002AFE611C8448083001F037FE204601F07D
:102D30002DFE801E8049083100220A5425217E483C
:102D400080F88810FFF70CFC81A0FFF714FC7A488C
:102D50000830FFF710FCDBE7A07830384FF47A71C9
:102D60004843E178303901EBC10202EB011100EB7D
:102D700081012079303800EB800001EB400160795F
:102D800030380D18002D02DBA079232803D075A060
:102D9000FFF7F1FBBCE72802C11700EB1151091343
:102DA000A0EB013131B92E02F11706EB11510813D6
:102DB00001F090FC7B223C212046FFF787FFD3E007
:102DC000A0060020C400002073746D3332207265A9
:102DD000736574000CED00E00000FA05C3000020EC
:102DE000244452532100000068656C6C6F20776F9B
:102DF000726421002444535421000000C0000020CC
:102E0000233235355044535421000000C1000020C6
:102E1000244453543A000000244453543A25642176
:102E20000000000023253033645044535421000037
:102E3000040100202452535421000000244447532D
:102E40003A000000244447533A2564210000000062
:102E5000244447543A000000D8000020D400002049
:102E6000D0000020244447543A25642D25642C25A5
:102E700064210000C8000020CC00002024534D4FE6
:102E80004445000024534D4F444525642100000073
:102E90002330313050313531325430303030210030
:102EA0002330313050313531315430303030210021
:102EB00024545A21000000002447455441210000B9
:102EC0004141410024534D4152545F53544F5021CE
:102ED000000000002330303650313530305430306F
:102EE00030302123303037503135303054303030AD
:102EF00030210000404F4B2100000000244B4D5377
:102F00003A000000244B4D533A25662C25662C25AB
:102F1000662C25642100000043616E2774206669D9
:102F20006E64206265737420706F7321212100002C
:102F300024000000230000000405002040434C450D
:102F40004152205052455F434D44204F4B210000D9
:102F500040534554205052455F434D44204F4B2130
:102F600000000000450000007D223E212046FFF7C2
:102F7000ADFE204601F00AFD401C86B22902324611
:102F8000204601F084FB00203E4908703EA0FFF778
:102F9000F2FA00BFBCE610B53C48007800285BD1CF
:102FA00000F048FE00213A4AD2E90032C31A61EB30
:102FB0000200384909680022C91A82414CDA00F03F
:102FC00039FE0021324A03C23348006848B1334811
:102FD000006830B901202D49087031A000F097FF3A
:102FE00010BD32480068FFF7E7FC314800683149FE
:102FF0000968884218DA2D4800682E490968884215
:103000000CD12B480068294908602348006820B18A
:1030100022480068401E21490860E1E72348006813
:10302000401C2249086017E02048006821490968CF
:1030300088420CD11E4800681C4908601648006888
:1030400020B116480068401E14490860C8E71748B8
:103050000068401E1549086000BFC1E7F8B5044686
:103060000D461646032C02D140F6B830451B2B46C0
:10307000224611A11548009602F0C6FD1348FFF73D
:10308000AFFAF8BDC300002041000000C0000020DE
:10309000E0000020C4000020D8000020CC00002068
:1030A0004047726F7570446F6E652100C800002044
:1030B000D0000020D4000020232530336450253078
:1030C00034645425303464210000000004010020E1
:1030D0002DE9F04180460D4616461F46069CFE49E6
:1030E000404601F02DFF2060FB49284601F028FFF3
:1030F0006060F949304601F023FFA060F649384688
:1031000001F01EFFE060BDE8F0810FB59DB0F2490F
:103110001D9801F015FF1D90EF491E9801F010FF5A
:103120001E90ED491F9801F00BFF1F902298006838
:1031300017902298406816902298806815902298DF
:10314000C068149000211D9802F0CAF902D1002035
:1031500018901BE0DDE91D0101F024FF079002F04B
:103160005FF9CDE9080103F023FC0022DB4BCDE938
:103170000A0101F0FCFFDA4ADA4BCDE90C0102F05A
:1031800068F8CDE90E0102F08FF918901E990846F3
:1031900001F0D6FE0A901D99084601F0D1FE099073
:1031A0000A9901F075FE0B9002F03AF9CDE90C0195
:1031B00003F0ACFDCDE90E0102F076F91E902098E7
:1031C00002F02EF9C64AC74BCDE9000101F0CFFF4E
:1031D0000022C54BCDE9020102F03BF8CDE9040124
:1031E00003F0F6FCCDE90801149802F019F9CDE9D5
:1031F0000601DDE9082301F0BAFFCDE90C011E98B4
:1032000002F00EF9CDE90A01DDE90C2301F0A9FF76
:10321000CDE90E0102F048F91E90209802F000F965
:10322000AF4AB04BCDE9000101F0A1FF0022AE4B47
:10323000CDE9020102F00DF8CDE9040103F016FD1D
:10324000CDE90801149802F0EBF8CDE90601DDE9BB
:10325000082301F08CFFCDE90C0117991F9801F0AC
:1032600069FE099002F0DCF8CDE90A01DDE90C23E2
:1032700001F077FFCDE90E0102F016F91F901798C3
:1032800080F000400F901F9902F034F902D2012023
:1032900021B000BDDDE9151001F0FAFD0B9002F040
:1032A000BFF8CDE90E011F99084601F049FE0890CC
:1032B0001E99084601F044FE0790089901F0E8FDC8
:1032C000099002F0ADF8CDE90A0103F01FFDCDE948
:1032D0000C01DDE90E2302F0CFF801D20220D7E77E
:1032E0001F99084601F02CFE04901E99084601F033
:1032F00027FE0390049901F0CBFD059002F090F8B1
:10330000CDE9060103F002FDCDE90A011E9802F0A5
:1033100087F8CDE90801DDE90A2301F09AFFCDE93C
:103320000C0103F007FACDE90E0102F0BDF811908F
:103330001F99084601F004FE02901E99084601F00C
:10334000FFFD0190029901F0A3FD039002F068F8DF
:10335000CDE9040103F0DAFCCDE908014FF080402B
:10336000169901F0EDFD059002F05AF8CDE906013D
:10337000DDE9082301F0FBFECDE90C0115990846B3
:1033800001F0DEFD08901699084601F0D9FD06907F
:103390001F99084601F0D4FD04901E99084601F0DB
:1033A000CFFD0390049901F073FD0590069901F09B
:1033B0006FFD0790089901F0BDFD099002F030F80B
:1033C000CDE90A01DDE90C2301F043FFCDE90E014F
:1033D00002F06AF812904FF07E51129802F08AF8CB
:1033E00004D34249129802F07BF801D205204FE73E
:1033F00000211F9802F074F802D23C48109002E0BD
:103400004FF07E501090129802F00AF8CDE90801B2
:1034100003F090F9CDE90C01DDE9101001F090FD09
:10342000099001F0FDFFCDE90A01DDE90C2301F06F
:10343000F7FDCDE90E0102F037F81990199801F067
:10344000EFFF0022284BCDE90A0101F090FE244A4B
:10345000244BCDE90C0101F0FCFECDE90E0102F098
:1034600023F81990199801F0DBFF00221E4BCDE9DB
:103470000E0102F001F809D3199801F0D1FF0022E2
:103480001346CDE90E0101F0DFFF01D20620FFE671
:103490004FF08040169901F053FD0D90159901F001
:1034A0004FFD0F901599084601F04AFD0D901699B1
:1034B000084601F045FD0B901F99084601F040FDBC
:1034C00009901E99084601F03BFD0890099901F00A
:1034D000DFFC0A900B990BE00000204100E07040F7
:1034E0004AD8124DFB21094000806640000080BF91
:1034F00001F020FD0C900D9901F01CFD80F00040C2
:103500000E900F9901F04EFD13904FF07E511398DD
:1035100001F0F0FF04D37549139801F0E1FF01D2E7
:103520000320B5E6139801F07BFFCDE90C0103F011
:1035300001F9CDE90E0101F0B7FF1A901A9801F0D8
:103540006FFF00226A4BCDE9080101F010FE694AC5
:10355000694BCDE90A0101F07CFE0022644BCDE904
:103560000C0101F001FECDE90E0101F09DFF1A9062
:103570001A9801F055FF0022604BCDE90E0101F0D1
:103580007BFF09D31A9801F04BFF00225C4BCDE979
:103590000E0101F059FF01D2042079E61999209813
:1035A00001F0C8FC0F901A9901F072FC1B901B9857
:1035B00001F036FF0022534BCDE90E0101F05CFF14
:1035C00009D31B9801F02CFF00224F4BCDE90E01CF
:1035D00001F03AFF01D207205AE6229918980861B3
:1035E0004A49199801F0A6FC0146229841611A99AE
:1035F000229881611B992298C161229800690790E5
:1036000001F00EFF0022424BCDE9080101F0AFFDB1
:103610000022404BCDE90A0101F01BFE00223E4B87
:10362000CDE90C0101F0A0FDCDE90E0101F0D9FEBC
:103630002299086422984069079001F0F1FE002267
:10364000334BCDE9080101F092FD0022314BCDE969
:103650000A0101F0FEFD00222F4BCDE90C0101F023
:10366000DFFCCDE90E0101F0BCFE01462298416469
:1036700022988069079001F0D3FE0022244BCDE907
:10368000080101F074FD0022224BCDE90A0101F08E
:10369000E0FD0022204BCDE90C0101F0C1FCCDE999
:1036A0000E0101F09EFE0146229881642298C069B5
:1036B000079001F0B5FE0022154BCDE9080101F09D
:1036C00056FD0022134BCDE90A0101F0C2FD002294
:1036D000114BCDE90C0101F047FDCDE90E0101F0E0
:1036E00080FE01462298C1640020D1E5000080BF21
:1036F000008066404AD8124DFB21094000E060403E
:1037000000E060C000805640008056C00000B44217
:1037100000409F4000E070400070974008B50121D4
:103720001020FDF79DF94FF40050ADF80000102077
:103730008DF8030003208DF8020069460148FCF76C
:10374000D3FE08BD0010014038B501213820FDF737
:1037500087F94FF40070ADF8000003208DF80200E7
:1037600010208DF803006946F748FCF7BDFE4FF4C2
:103770008070ADF800006946F348FCF7B5FE2020E4
:10378000ADF800006946F048FCF7AEFE1020ADF839
:1037900000006946EC48FCF7A7FE0420ADF80000E5
:1037A0006946EA48FCF7A0FE4FF40060ADF800005F
:1037B0006946E748FCF798FE00241BE040F2DC5025
:1037C000E44901EB04110880E24901EB041188800F
:1037D0000020E04901EB0411886041F28830DD49A6
:1037E00001EB041148800020DA4901EB0411C860A4
:1037F000601CC4B2082CE1DB38BD1FB501212020BC
:10380000FDF73BF94720ADF804000920ADF80800AA
:1038100001A9D148FDF7E2FB0121CF48FEF700FAEC
:1038200001221146CC48FDF750FF37208DF80000EB
:1038300001208DF801008DF802008DF80300684624
:10384000FCF789FD0121C448FDF724FF1FBD2DE9C8
:10385000F05F0446BF4901EB04118868002101F0C4
:103860003FFE5AD0BB4800EB04100088B94901EB79
:103870000411C96800EB010940F6BA10814501DD69
:10388000814604E0B9F5FA7F01DA4FF4FA79B14ADA
:1038900002EB04129168AF4A02EB0412906801F047
:1038A000F7FA834601F0BCFD21F000480746A9481D
:1038B00000EB04108088A9EB000ABAF1000F01DBCD
:1038C000514601E0CAF10001084601F03FFD0546FE
:1038D0003A46434601F0B8FD0AD89E4901EB04116F
:1038E000A1F8049000209B4901EB0411886014E0CA
:1038F000984901EB0411888801F023FD064695489C
:1039000000EB04108168304601F0C2FA054601F070
:1039100054FD904901EB04118880BDE8F09F70B51B
:1039200004460D46062C2BD2DFE804F0030A1117DB
:103930001D232A464FF400718348FCF786FE20E0E1
:103940002A464FF480718048FCF77FFE19E02A4632
:1039500020217D48FCF779FE13E02A4610217A48A1
:10396000FCF773FE0DE02A4604217848FCF76DFE53
:1039700007E02A464FF400617548FCF766FE00E058
:1039800000BF00BF70BD10B501217348FEF74BF9B1
:1039900000283ED071480078082802D100206F49E5
:1039A00008706F48007890B96A486C49097800EB54
:1039B0000110808868492C3108800121674800780F
:1039C000FFF7ADFF65480078FFF741FF15E061485C
:1039D0006249097800EB0110808840F6C4110C1A86
:1039E0005D492C310C8000215C480078FFF797FF7F
:1039F0005A480078401C594908705948007808B95D
:103A0000012000E000205649087001215248FEF7CD
:103A10001BF910BD10B5FFF797FEFFF7EEFE10BDC6
:103A20002DE9FF5F04460E46914640F6C4108642DB
:103A300002DCB6F5FA7F01DABDE8FF9FFF2C35D135
:103A4000002530E0434901EB05110E80414901EBAF
:103A50000511488801F08BFC07460022414B01F01C
:103A6000F8FB82468B463B4901EB05110988394A30
:103A700002EB05129288881A01F068FC52465B46F8
:103A8000CDE9000101F0E5FBCDE9020101F00CFDFB
:103A9000304901EB051188602E4901EB0511A1F8B1
:103AA0000290681CC5B2082DCCDBC5E7082C00DBF2
:103AB000C2E742F21070814500DD8146B9F1140F72
:103AC0000DDA244901EB04110E80224901EB0411A7
:103AD0008E8000201F4901EB041188602EE01D49F3
:103AE00001EB04110E801B4901EB0411A1F80290B7
:103AF000184901EB0411488801F039FC07460022FF
:103B0000184B01F0A6FB82468B46124901EB0411CB
:103B10000988104A02EB04129288881A01F016FCF8
:103B200052465B46CDE9000101F093FBCDE902016D
:103B300001F0BAFC074901EB0411886000BF7BE784
:103B4000FF2823D100211EE0000C01400014014099
:103B5000001001402006002000140040E900002071
:103B6000E800002000003440184A02EB001292885E
:103B7000164B03EB01131A80154A144B03EB011388
:103B80009A604A1CD1B20829EEDB7047082800DB96
:103B9000FBE70E4A02EB001292880C4B03EB00137A
:103BA0001A800B4A094B03EB00139A6000BFECE745
:103BB000082800DB7047054A02EB0012D160044A76
:103BC000024B03EB00139A6000BFF3E720060020CE
:103BD0006F12833A30B5194800684FF47A72B0FB1F
:103BE000F2F1B1F1807F00D31DE021F07F40401E53
:103BF0004FF0E022506150170F22002807DA130718
:103C00001D0E0F4B00F00F04241F1D5503E013077A
:103C10001C0E0C4B1C5400BF00204FF0E0229061A2
:103C20000720106100BF30BD07480068401C0649EE
:103C300008607047044800687047000000000020DA
:103C400018ED00E000E400E0EC00002010B586B0C4
:103C50000446012144F20400FCF702FFFE48FDF790
:103C6000F7FF4FF40070ADF8040018208DF807003E
:103C700003208DF8060001A9F848FCF735FC4FF445
:103C80008060ADF8040004208DF8070003208DF853
:103C9000060001A9F148FCF727FC02940020ADF8CA
:103CA0000C00ADF80E00ADF810000C20ADF81200BD
:103CB0000020ADF8140002A9E748FEF70CF8252013
:103CC0008DF8000001208DF8010000208DF8020021
:103CD00001208DF803006846FCF73DFB012240F20D
:103CE0002551DD48FEF78FF8002240F22771DA48AF
:103CF000FEF789F80121D848FEF779F806B010BD23
:103D000010B586B0044601210820FCF7A9FE012168
:103D10004804FCF7B2FE0420ADF8140018208DF81A
:103D2000170003208DF8160005A9CC48FCF7DCFB32
:103D30000820ADF8140004208DF8170005A9C74825
:103D4000FCF7D2FB01940020ADF80800ADF80A00A2
:103D5000ADF80C00ADF810000C20ADF80E0001A974
:103D6000BF48FDF7B8FF26208DF8000001208DF830
:103D7000010000208DF8020001208DF80300684644
:103D8000FCF7E9FA012240F22551B548FEF73BF86D
:103D9000002240F22771B248FEF735F80121B04801
:103DA000FEF725F806B010BD10B586B00446012117
:103DB0000820FCF755FE01218804FCF75EFE4FF455
:103DC0008060ADF814001C208DF8170003208DF8DA
:103DD000160005A9A348FCF787FB4FF40060ADF877
:103DE000140004208DF8170005A99E48FCF77CFB01
:103DF00001940020ADF80800ADF80A00ADF80C0001
:103E0000ADF810000C20ADF80E0001A99648FDF7A2
:103E100062FF27208DF8000001208DF801000020AE
:103E20008DF8020001208DF803006846FCF793FA34
:103E3000012240F225518C48FDF7E5FF002240F2B7
:103E400027718948FDF7DFFF01218748FDF7CFFF84
:103E500006B010BD10B586B0044601211020FCF755
:103E6000FFFD01210805FCF708FE4FF48050ADF876
:103E700014001C208DF8170003208DF8160005A9EA
:103E80007A48FCF731FB01940020ADF80800ADF84A
:103E90000A00ADF80C00ADF810000C20ADF80E00D3
:103EA00001A97348FDF717FF01217148FEF742F899
:103EB00035208DF8000001208DF8010000208DF8DC
:103EC000020001208DF803006846FCF744FA012245
:103ED00040F225516648FDF796FF002240F2277117
:103EE0006348FDF790FF01216148FDF780FF06B0B0
:103EF00010BD10B5044621465748FDF7E5FF00BF49
:103F000080215548FEF74EF80028F9D010BD10B5B5
:103F1000044603E014F8010BFFF7EBFF20780028BC
:103F2000F8D110BD10B50446224652A1524801F006
:103F30006BFE5148FFF7EBFF10BD00BF4C4A1288E3
:103F400002F04002002AF9D0C2B2494B9A80704771
:103F500010B504460BE014F8011B4148FDF7B4FF0F
:103F600000BF80213E48FEF71DF80028F9D02078D8
:103F70000028F0D110BD10B50446002240F22551B2
:103F80003948FDF740FF0BE014F8011B3648FDF7F8
:103F90009BFF00BF80213448FEF704F80028F9D0C9
:103FA00020780028F0D1012240F225512E48FDF75B
:103FB0002AFF10BD10B50446002240F225512C48BE
:103FC000FDF721FF0BE014F8011B2948FDF77CFFEA
:103FD00000BF80212648FDF7E5FF0028F9D02078B2
:103FE0000028F0D1012240F225512148FDF70BFFB6
:103FF00010BD10B5214A128802B110BD204A1278B6
:10400000CAB9242803D101221D4B1A7010E02328BD
:1040100003D102221A4B1A700AE07B2803D1032233
:10402000174B1A7004E03C2802D10422144B1A707A
:104030000022144B1A80134A13881288521C114C08
:104040002280114AD0540E4A1278012A24D1212804
:1040500022D100220C4B19E0003801400008014039
:1040600000440040000C01400048004000100140A6
:104070000050004025640000A00A0020F00000204D
:10408000F2000020F4000020A006002024881A5529
:1040900001224D4B1A802BE04C4A1278022A0AD199
:1040A000212808D100234A4A4A4C2488135501226A
:1040B000454B1A801CE0454A1278032A0AD17D2814
:1040C00008D10022424B434C24881A5501223E4B12
:1040D0001A800DE03D4A1278042A09D13E2807D102
:1040E00000233B4A3B4C248813550122364B1A804F
:1040F000354A1288012A01D1374A1170354A12888F
:10410000B2F5806F02DB0022324B1A8000BF74E7E9
:1041100010B540F225513148FDF75AFF01280DD165
:104120002E48FDF7D5FEC4B201212046FFF761FFFE
:1041300040F225512948FDF775FF00BF10BD10B5AD
:1041400040F225512648FDF743FF01280DD12448B0
:10415000FDF7BEFEC4B202212046FFF74AFF40F23F
:1041600025511F48FDF75EFF00BF10BD10B540F29E
:1041700025511C48FDF72CFF01280DD11948FDF7EA
:10418000A7FEC4B203212046FFF733FF40F22551BA
:104190001448FDF747FF00BF10BD10B540F2255190
:1041A0001148FDF715FF01280DD10F48FDF790FECE
:1041B000C4B205212046FFF71CFF40F225510A48F2
:1041C000FDF730FF00BF10BDF0000020F20000201E
:1041D000A0060020F4000020C300002000380140A9
:1041E00000440040004800400050004008B5012154
:1041F0001020FCF735FC0220ADF8000028208DF8D7
:10420000030003208DF8020069464E48FCF76CF964
:104210000420ADF8000010208DF8030003208DF875
:10422000020069464748FCF75FF94FF40040ADF8DB
:10423000000069464348FCF757F90120ADF800003B
:1042400069464048FCF750F90122D1033D48FCF78C
:10425000FCF9012211463B48FCF7F7F90122042141
:104260003848FCF7F2F908BD2DE9F04105462F4624
:104270000026002427E00120A04000EA07020421D4
:104280003048FCF7E2F9012211462E48FCF7DDF92F
:104290000620FEF740F9002201212A48FCF7D5F953
:1042A0000620FEF738F9012211462648FCF7CDF921
:1042B00002212448FCF7ABF918B10120A04030439B
:1042C000C6B2601CC4B2082CD5DB3046BDE8F08114
:1042D00010B500224FF400411A48FCF7B6F901204E
:1042E000FFF7C2FF184908704220FFF7BDFF1649CB
:1042F00048700878FFF7B8FF134988700878FFF70F
:10430000B3FF1149C8700878FFF7AEFF0E49087176
:104310000878FFF7A9FF0C4948710878FFF7A4FF58
:10432000094988710878FFF79FFF0749C871087825
:10433000FFF79AFF044908720122D1030148FCF7F4
:1043400084F910BD00100140B40A002010B50446E5
:10435000F94884810146F948FCF70CFC0121F74833
:10436000FCF7ADFC10BD70B50546002405E0601CEF
:10437000C4B2C82C01DD002070BD0221F048FCF75A
:1043800022FD0028F3D02946ED48FCF7C9FC0024A3
:1043900005E0601CC4B2C82C01DD0020ECE701215F
:1043A000E748FCF710FD0028F3D0E548FCF7BAFC1D
:1043B000C0B2E1E710B501210820FCF751FB4FF432
:1043C0008050E04908801020C87003208870DE48C3
:1043D000FCF78AF84FF48051DB48FCF732F94FF4D0
:1043E0002040D84908801820C870D748FCF77CF8CE
:1043F0004FF48040D34908804820C870D248FCF769
:1044000073F84FF42041D048FCF71BF901218803D1
:10441000FCF733FB0020C84908804FF482704880C5
:10442000002088800220C880012008814002488145
:10443000382088810020C88107200882C048FCF706
:1044400099FB0121BE48FCF73AFCFF20FFF78BFFE8
:104450001820FFF77BFF10BD10B5002400224FF499
:104460008051B948FCF7F1F89020FFF77CFF00205D
:10447000FFF779FF0020FFF776FF0020FFF773FFBB
:10448000FF20FFF770FF44EA0024FF20FFF76BFFD7
:10449000044301221103AC48FCF7D7F8204610BDB5
:1044A00010B5002400224FF48051A748FCF7CDF846
:1044B0000520FFF758FFFF20FFF755FF04460122B4
:1044C0001103A148FCF7C1F8204610BD10B5044601
:1044D00000224FF480519C48FCF7B7F80120FFF709
:1044E00042FF2046FFF73FFF012211039648FCF7E9
:1044F000ACF810BD10B500224FF480519248FCF783
:10450000A4F80620FFF72FFF012211038E48FCF7C5
:104510009CF810BD10B500224FF480518A48FCF77A
:1045200094F80420FFF71FFF012211038648FCF7CF
:104530008CF810BD10B5044600224FF4805182481B
:10454000FCF783F80320FFF70EFFC4F30740FFF7E3
:104550000AFFC4F30720FFF706FFE0B2FFF703FFEF
:10456000FF20FFF700FF7949087001221103764808
:10457000FCF76BF87548007810BD2DE9F041064650
:104580000C46174600224FF480516F48FCF75DF847
:104590000320FFF7E8FEC4F30740FFF7E4FEC4F38F
:1045A0000720FFF7E0FEE0B2FFF7DDFE002505E0A3
:1045B000FF20FFF7D8FE7055681C85B2BD42F7DBBF
:1045C000012211036048FCF740F8BDE8F08110B506
:1045D00000BFFFF765FF00F001000028F9D110BD12
:1045E00070B505460C46FFF785FF00224FF4805159
:1045F0005548FCF72AF80220FFF7B5FEC4F3074040
:10460000FFF7B1FEC4F30720FFF7ADFEE0B2FFF7FE
:10461000AAFE2846FFF7A7FE012211034A48FCF72D
:1046200014F8FFF7D4FF70BD2DE9F04107460C46A2
:104630001646E0B2C0F58078464500DD4646FFF7F5
:1046400059FF00224FF480513F48FBF7FEFF022044
:10465000FFF789FEC4F30740FFF785FEC4F3072088
:10466000FFF781FEE0B2FFF77EFE002504E0785DF3
:10467000FFF779FE681C85B2B542F8DB0122110311
:104680003148FBF7E2FFFFF7A2FFBDE8F0812DE91B
:10469000F04107460E461446F0B2C0F58075AC42B4
:1046A00000DC254612E02A4631463846FFF7BCFFBB
:1046B000AC4200D10BE02F442E44601B84B2B4F511
:1046C000807F02DD4FF4807500E02546EBE700BFF8
:1046D000BDE8F08110B504462403FFF70BFFFFF798
:1046E00076FF00224FF480511748FBF7AEFF2020E1
:1046F000FFF739FEC4F30740FFF735FEC4F3072088
:10470000FFF731FEE0B2FFF72EFE012211030E4843
:10471000FBF79BFFFFF75BFF10BD2DE9F0478146DC
:104720000F4616464FEA1738C7F30B0ACAF58054EE
:10473000A64200DC344650E0BE0A002000300140B2
:1047400000380040F6000020000C0140FA00002074
:104750004FEA08314FF480527848FFF70EFF0025EA
:1047600008E00AEB05007549085CFF2800D003E06B
:10477000681C85B2A542F4DB00BFA54216DA4046AC
:10478000FFF7A8FF002507E019F8050005EB0A016F
:104790006A4A5054681C85B2A542F5DB4FEA0831DD
:1047A0004FF480526548FFF772FF04E02246394615
:1047B0004846FFF76CFFA64200D10FE008F1010860
:1047C0004FF0000AA1442744301B86B2B6F5805F43
:1047D00002DD4FF4805400E03446B9E700BFBDE885
:1047E000F0872DE9F04107460C461546C4F30B004F
:1047F000C0F58056B54200DD35462A46214638468A
:10480000FFF745FFBDE8F0812DE9F04381B0ADF53C
:10481000805D80460F4616464FF00009C7F30B0037
:10482000C0F58054A64200DC344644E04FEA173914
:104830004FEA09314FF4805201A8FFF79EFE002590
:1048400009E0C7F30B00284401A9085CFF2800D049
:1048500003E0681C85B2A542F3DB00BFA54217DA6E
:104860004846FFF737FF002508E018F80500C7F3B2
:104870000B01294401AA5054681C85B2A542F4DBFF
:104880004FEA09314FF4805201A8FFF7AAFF04E074
:10489000224639464046FFF7A4FFA64200D10BE06E
:1048A000A0442744301B86B2B6F5805F02DD4FF48A
:1048B000805400E03446B9E700BF01B00DF5805DDB
:1048C000BDE8F08310B5FFF715FEFFF780FE00226C
:1048D0004FF480511A48FBF7B8FEC720FFF743FD9D
:1048E000012211031648FBF7B0FEFFF770FE10BD62
:1048F00010B500224FF480511148FBF7A6FEB920F5
:10490000FFF731FD012211030D48FBF79EFE032046
:10491000FDF701FE10BD10B500224FF4805108488C
:10492000FBF793FEAB20FFF71EFD012211030448A5
:10493000FBF78BFE0320FDF7EEFD10BDD00A002033
:10494000000C014040EA01039B0703D009E008C9BD
:10495000121F08C0042AFAD203E011F8013B00F844
:10496000013B521EF9D27047D2B201E000F8012B90
:10497000491EFBD270470022F6E710B513460A46DF
:1049800004461946FFF7F0FF204610BD421C10F800
:10499000011B0029FBD1801A7047034611F8012B37
:1049A00000F8012B002AF9D1184670470FB400B562
:1049B0008DB010A909900B9000914FF0FF300A9034
:1049C00000200C9005480690054807906A4609A803
:1049D0000F9900F00FFE0DB05DF814FB11560008A2
:1049E0002F5600082DE9FF5F1D464FF0FF3BD5E92C
:1049F000014691465F464FF00008A9697F1C019867
:104A00008847296A824688470028F6D1BAF1FF3FD5
:104A10000CD024F4C064002E19DD600614D5BAF160
:104A20002B0F09D0BAF12D0F0ED103E0584604B078
:104A3000BDE8F09F44F48064A9697F1C0198884711
:104A4000761E8246002E02DDBAF1300F03D0B9F196
:104A5000000F26D032E0A969761E44F400747F1C52
:104A6000019888478246002E05DDBAF1780F06D0FE
:104A7000BAF1580F03D0B9F1000F10D01EE0B9F110
:104A8000000F02D0B9F1100F18D1A969761E24F4D5
:104A900000747F1C019888478246102002E008209D
:104AA00000E00A20814609E008FB0908A969761E92
:104AB00044F400747F1C019888478246002E05DD6F
:104AC0004946504600F082FD0028EDDAE969019878
:104AD0008847A00502D46FF00100A8E7E00725D1C0
:104AE000600613D5600502D5C8F1000000E040461D
:104AF00029680A1D2A600968220501D5087015E099
:104B0000220701D5088011E008600FE02868011D28
:104B100029600068210502D580F8008006E02107A1
:104B200002D5A0F8008001E0C0F8008038467EE79A
:104B30002DE9FF4F087883B09946FF2805D0491C1E
:104B40002D2804D00024002008E000200BE00124E0
:104B5000F9E700EB800003EB4000491C0B78FF2BCA
:104B6000F7D104B1404200230293147819461D4640
:104B70002D2C01D02B2C04D1521C2D2C13D0002411
:104B80000294AA461478FF2C0FD00A25A3FB0578BF
:104B900001FB05814FF0000C03FB0C11521CE319C3
:104BA0004AEB0101EEE70124EAE7814453EA010000
:104BB00002D019F5C87F06DA03980021C0E9001178
:104BC00007B0BDE8F08F0025AE4E2F46DFF8B88263
:104BD000184600F039FECDE90001B9F1000002DA13
:104BE000C9F1000400E004460023A74A1AEB030BB6
:104BF00042EB045A12E0E00707D02A463346384613
:104C0000414600F0B4FA074688462A463346104625
:104C1000194600F0ACFA05460E466410002CEAD1A5
:104C2000DDE90001B9F1000F5A46534606DA00F0FB
:104C300010FB3A46434600F00CFB05E000F097FA03
:104C40003A46434600F093FA029A0AB181F00041D5
:104C5000039AC2E90001B3E72DE9FF4F1F468DB06B
:104C6000D7E901464FF0FF382E2045464FF00009A6
:104C70000B90B9696D1C0E988847396A824688473F
:104C80000028F6D1BAF1FF3F0AD024F4D064002EF8
:104C900011DDBAF12B0F08D0BAF12D0F0BD102E0C4
:104CA000404611B08DE744F48064B9696D1C0E98DC
:104CB00088478246761E6946600501D52D2000E0B2
:104CC0002B208DF8000001F1010B0DF1200809E007
:104CD000B9696D1C0E98884782460F9844F4007499
:104CE000761E0560002E02DDBAF1300FF0D00B9970
:104CF0008A453ED144F0800406E00F99681CA9F172
:104D0000010944F400740860B9696D1C761E0E98A0
:104D1000884782463028F0D02BE00B998A4505D190
:104D2000200603D444F08004761E18E0504601F0BB
:104D3000C9FA08B30DF11301761E44F400748B45D3
:104D400008D2AAF130000BF8010B200607D5A9F113
:104D5000010003E0200602D409F101008146A0050C
:104D600002D50F99681C0860B9696D1C0E988847B8
:104D70008246002ED1DC53E0002E51DDBAF1650FE2
:104D800002D0BAF1450F4BD1A00549D5B9696D1CC8
:104D900024F44074761E0E9888478246002E0CDD5F
:104DA0002B2804D0BAF12D0F07D144F48074B969CF
:104DB0006D1C0E9888478246761EE00501D52D2190
:104DC00000E02B2108F8011BCDF82C8021E00DF12B
:104DD0002901761E44F4007488450CD2AAF13000F3
:104DE00010F0FF0088F8000002D10B99884509D91E
:104DF00008F1010806E0E00501D5244801E042F28F
:104E00000F708146B9696D1C0E98884782460F98CD
:104E10000560002E04DD504601F054FA0028D6D17A
:104E2000F9690E988847FF208BF8000088F8000089
:104E30000020069007904B466A4608A906A8FFF78F
:104E400077FEA00502D46FF001002AE714F0240FCA
:104E50000AD0E00714D1DDE906123868031D3B6073
:104E60000068C0E900120BE0DDE9060100F01CFB60
:104E70000146E00704D13868021D3A60006801600D
:104E800028460EE7000014400000F03FF1D8FFFF75
:104E9000F0B480EA0102D40F4200B2EB410F02D21B
:104EA0000246084611464A0042D0C30DDDB2C1F3A6
:104EB000C752AD1A202D35DAC1F3160141F40002B4
:104EC00004B15242C5F1200602FA06F12A4110440B
:104ED000B3EBD05F23D0C4B1012DA0EBC35009DCEC
:104EE000F0BC4FF0004202EAC352DBB200F5000012
:104EF00000F0B7BB400000F1807000EBC350A0F1A0
:104F0000807040EAD170490009E0490841EAC07167
:104F1000A0EBC35000F50000400800EBC350F0BC0C
:104F200000F096BB6142012202EB4101001BF6E753
:104F3000F0BC704781F00041AAE780F00040A7E78D
:104F400080EA010210B502F00043400022D04A007E
:104F50001FD0010E01EB1261C0F35600C2F35602DE
:104F600040F4000042F40002A0FB022000047F395C
:104F7000140400D0401C50EA124001D44000491EE5
:104F8000C2B20C0604EBD010401C4008802A02D0AC
:104F900003E0002010BD20F00100002900DA00200D
:104FA000184310BD30B480EA010202F0004530F031
:104FB000004221F0004013D090B1C30DD40DC2F3D4
:104FC0001601C0F31600E41A41F4000140F4000297
:104FD0007D34914201D3641C00E04900002C02DAC8
:104FE00030BC002070474FF400000023914201D3F1
:104FF000891A034340084FEA4101F7D151B1914268
:1050000002D14FF0004105E002D24FF0010101E072
:105010006FF0010103EBC450284430BC00F018BB12
:105020002DE9FE4F804681EA0300C00F0C46009038
:1050300021F0004123F00045B8EB0200A94105D260
:105040004046214690461C460B46024623F000404F
:10505000104347D0270DC7F30A00C3F30A5102904B
:10506000401A019040286BDAC3F3130040F4801B10
:105070000098924620B10023D2EB030A63EB0B0B9E
:1050800001985946C0F14002504600F06EFA0646BB
:105090000D4650465946019A00F086FA10EB08007A
:1050A0006141002487EA115284EAE7731A4340D031
:1050B000009A62B3019A012A4FEA075215DC001BDD
:1050C00061EB02014FF0004202EA0752CDE90042D3
:1050D000001C41F5801132462B4600F0FFFA03B068
:1050E000BDE8F08F40462146F9E7001B61EB020165
:1050F000001C41F5801300185B412018A2F5001731
:1051000047EB030140EAD570B6196D4111E06D0817
:105110004FEA360645EAC0754FEA0752001B61EBBD
:105120000201001C41F5801149084FEA30000019C6
:10513000514132462B4603B0BDE8F04F00F0BFBAF4
:105140000098012240000023D0EB020263EBE073E1
:10515000009821464FEAE074B8EB000061EB0401CF
:10516000E9E783F000435BE781F0004158E72DE970
:10517000FE4F81EA030404F0004421F00041009452
:105180004FF0000B23F0004350EA01045ED052EAD6
:1051900003045BD0C3F30A54C1F30A552C44A4F2B0
:1051A000F3340194A0FB0254C1F3130141F48011C4
:1051B000C3F3130343F4801301FB024400FB034ECB
:1051C000840A970A44EA815447EA8357A4FB076894
:1051D00002958D0A05FB07854FEA932C04FB0C54BE
:1051E0002705029D4FEA065847EA1637B5EB080532
:1051F0006EEB070C870E920E47EA811742EA831284
:10520000A7FB0201B6EB0B0164EB00042B0D43EA94
:105210000C335E1844EB1C50DA465146E7FB0201A2
:10522000C5F313044FEA0B3343EA14534FEA043235
:10523000019C43EA0603A4F10C040294009CCDE90E
:1052400000B400F04BFA03B0BDE8F08F0020014637
:10525000F9E72DE9F04D81EA030404F0004B21F059
:10526000004514464FF0000A23F0004150EA0502C1
:1052700020D054EA01021DD0C5F30A570246C5F3F7
:105280001303C1F31300C1F30A5640F4801543F42D
:105290008013A7EB0608101BD64608F2FD3873EB07
:1052A000050002D308F1010801E092185B41B8F152
:1052B000000F03DA00200146BDE8F08D00204FF416
:1052C0008011064684460EE0171B73EB050705D3D5
:1052D000121B63EB050306434CEA010C49084FEA35
:1052E000300092185B4150EA0107EDD152EA030009
:1052F00012D082EA040083EA0501084305D0101B9E
:10530000AB4106D20122002306E000224FF0004309
:1053100002E06FF0010253101AEB06004CEB08514B
:1053200010EB0A0041EB0B01BDE8F04D00F0C7B9EE
:10533000C10F80EAE0700844CA079623002100F0FC
:1053400090B996230022114600F08BB90EB5C10F1B
:1053500080EAE0700844CA07002140F233438DE838
:105360000E000A460B4600F0B9F903B000BD0EB5B9
:1053700040F2334102910021CDE900110A460B466B
:1053800000F0ACF903B000BD00F0004220F0004096
:10539000C10DC0F3160040F400007F2901DA00209F
:1053A0007047962903DCC1F19601C84001E09639A7
:1053B0008840002AF4D04042704720F00040C10DE0
:1053C000C0F3160040F400007F2901DA0020704786
:1053D000962903DCC1F19601C84070479639884090
:1053E000704770B5C1F30A5201F000450024C1F3C3
:1053F000130140F2FF3341F480119A4201DA002098
:1054000070BD40F233439A42A2F2334203DC52426F
:1054100000F0BAF800E090402C43F1D0404270BD5B
:1054200000F0004230F000400AD0C10D01F560717B
:10543000C0F3160042EA0151C20840071143704709
:10544000002001467047000030B5041E71F10004D1
:1054500004DB4FF00044404264EB0101141E73F181
:10546000000405DB1C464FF00043524263EB04038B
:105470008B4208BF824230BD30B5041E71F100047A
:1054800004DB4FF00044404264EB0101141E73F151
:10549000000405DB1C464FF00043524263EB04035B
:1054A000994208BF904230BD01F0004330B421F072
:1054B000004150EA010206D00A0DA2F56072C1F364
:1054C0001301002A02DC30BC00207047440F44EA7C
:1054D000C104C100E01830BC00EBC25000F0B8B805
:1054E000002801DBC0F10040002901DBC1F10041CF
:1054F00081427047002801DBC0F10040002901DB38
:10550000C1F10041884270472DE9F05F0546002057
:1055100092469B4688460646814640241BE0284624
:1055200041464746224600F02FF853465A46C01AD5
:10553000914110D311461846224600F016F82D1A54
:1055400067EB01084F4622460120002100F00DF8CC
:1055500017EB00094E41201EA4F10104DFDC484690
:1055600031462A464346BDE8F09F202A04DB203A14
:1055700000FA02F1002070479140C2F1200320FAA6
:1055800003F3194390407047202A04DB203A21FAA4
:1055900002F00021704721FA02F3D040C2F120024C
:1055A0009140084319467047202A06DBCB17203A62
:1055B00041FA02F043EAE07306E041FA02F3D04018
:1055C000C2F1200291400843194670473A2800D2A0
:1055D000303820F02002412A01D3A2F1370088425E
:1055E00001D34FF0FF307047026811441378016017
:1055F00018467047D1600449516104491162002185
:105600001161114600F044B9E955000885580008B9
:10561000426842B1016811F8013B23B1521EC0E952
:105620000012184670470121C160881E7047426809
:105630005AB1C368016843B983688B4205D0491EDB
:10564000521CC0E90012002070474FF0FF30704735
:105650000029A8BF7047401C490008BF20F0010086
:10566000704710B4B0FA80FC00FA0CF050EA010464
:1056700004BF10BC704749B1CCF1200421FA04F4F6
:1056800011FA0CF118BF012121430843A3EB0C01CF
:10569000CB1D4FEA00614FEA102042BF002010BC32
:1056A000704700EBC35010440029A4BF10BC7047E2
:1056B000401C490008BF20F0010010BC704710B525
:1056C000141E73F1000408DA401C41F10001921825
:1056D0005B411A4301D120F0010010BD2DE9F04DCE
:1056E00092469B4611B1B1FA81F202E0B0FA80F223
:1056F00020329046FFF739FF04460F4640EA0A0081
:1057000041EA0B0153465A46084313D0114653EA67
:10571000010019D0C8F140025046FFF735FF054699
:105720000E46504659464246FFF71FFF084305D034
:10573000012004E020463946BDE8F08D00200543F5
:1057400046EAE0762C4337430A986305E40AA0EB67
:1057500008000022FD0A44EA47540A3002D500201E
:105760000146E9E7010510196941DDE9084500191D
:105770006941BDE8F04DA2E770B521F00043034355
:105780000CD0C1F30A550024D5EB040564EB0403E7
:10579000D617AD1AB34102DB0020014670BD2018B8
:1057A00041EB025170BD2DE9F04D00231A461B1A42
:1057B0008A4103DB00200146BDE8F08DC1F30A52A7
:1057C000C1F3130141F480154FF0000BD10702D152
:1057D00000186D41521E0027044640F2FF11384662
:1057E00001EB620A3E468046024600204FF48011DB
:1057F000FFF7CAFEC2197141BB1846EB0100B4EBBA
:10580000030C75EB000C04D3E41A65EB0005174696
:105810000E46241908F101006D4180463428E3DD6D
:10582000F91946EB0600091BA84103D24FF0FF32DD
:10583000134601E0002213461BEB070046EB0A511A
:10584000BDE8F04DFFF73BBF0EB540F23342029288
:105850000022CDE900221346FFF740FF03B000BD50
:10586000064C074D06E0E06840F0010394E80700AD
:1058700098471034AC42F6D3FAF75EFC4474000843
:1058800064740008C0B24FF4F05100F099B9000000
:105890002DE9F34F8BB04FF0000801F10C000C46DE
:1058A0004FF0010B46460DF1080A01906269012193
:1058B00001989047051E2DD0252D2CD0216A8847B0
:1058C000C0B16269012101989047216A8847002888
:1058D000F7D1411E62690198904700E0761CA169EA
:1058E0000B988847216A88470028F7D1E1690B980F
:1058F0008847DBE7A1690B9888470746A84201D192
:10590000761CD3E7E1690B9888477F1C02D1B8F178
:10591000000F6FD047E1002762693D463946019884
:1059200090472A2804D162690121019890470125F6
:10593000DFF888926269012101989047A0F1300157
:105940000A290AD24F45E5DC07EB870100EB410746
:10595000303FDFD445F01005ECE7E90601D46FF0E5
:1059600000476C280AD04C2814D0682815D06A2823
:105970000DD074281CD07A281AD01DE0626901214C
:10598000019890476C2802D045F0040514E045F0DA
:1059900002050DE045F020050AE062690121019849
:1059A0009047682802D045F0080505E045F40065F9
:1059B0006269012101989047C4E9015765283DD0EB
:1059C00019DC58287AD00CDC452837D004DC25288F
:1059D00026D0412831D131E046282FD047282CD17C
:1059E0002CE05B2877D0612828D063287CD06428FD
:1059F00023D15AE0D1E06F2848D008DC66281DD0BA
:105A000067281BD0692821D06E2816D127E070287E
:105A100045D0732868D0752847D078280DD14DE03F
:105A2000A1690B988847054625283FF469AFE169CD
:105A30000B9888476D1C3FF46AAFB4E023466A4672
:105A40006FF001000B99FFF707F99FE045F0400068
:105A50006060A80723464FF0000236D43EE0E80716
:105A60007FF447AF2068011D21600068290501D53A
:105A700006701BE7290701D5068017E7A90703D59C
:105A8000F117C0E9006111E706600FE745F040003B
:105A90006060A80723464FF0080216D41EE040F6C7
:105AA0000E0125EA0100606016E045F040006060EC
:105AB000A80723464FF00A0207D40FE045F0400044
:105AC0006060A80708D5234610226FF001000B99EB
:105AD000AFF300805AE007E0234610226FF0010088
